{
  "contractName": "NextyBonus",
  "abi": [
    {
      "constant": true,
      "inputs": [
        {
          "name": "",
          "type": "address"
        }
      ],
      "name": "withdrawnAmount",
      "outputs": [
        {
          "name": "",
          "type": "uint256"
        }
      ],
      "payable": false,
      "stateMutability": "view",
      "type": "function"
    },
    {
      "constant": true,
      "inputs": [],
      "name": "totalAmount",
      "outputs": [
        {
          "name": "",
          "type": "uint256"
        }
      ],
      "payable": false,
      "stateMutability": "view",
      "type": "function"
    },
    {
      "constant": true,
      "inputs": [
        {
          "name": "",
          "type": "address"
        }
      ],
      "name": "whiteList",
      "outputs": [
        {
          "name": "",
          "type": "bool"
        }
      ],
      "payable": false,
      "stateMutability": "view",
      "type": "function"
    },
    {
      "constant": true,
      "inputs": [],
      "name": "LOCK_DURATION",
      "outputs": [
        {
          "name": "",
          "type": "uint256"
        }
      ],
      "payable": false,
      "stateMutability": "view",
      "type": "function"
    },
    {
      "constant": true,
      "inputs": [
        {
          "name": "",
          "type": "address"
        },
        {
          "name": "",
          "type": "uint256"
        }
      ],
      "name": "fixedAmount",
      "outputs": [
        {
          "name": "time",
          "type": "uint256"
        },
        {
          "name": "endTime",
          "type": "uint256"
        },
        {
          "name": "value",
          "type": "uint256"
        },
        {
          "name": "lockStatus",
          "type": "uint8"
        }
      ],
      "payable": false,
      "stateMutability": "view",
      "type": "function"
    },
    {
      "constant": true,
      "inputs": [],
      "name": "owner",
      "outputs": [
        {
          "name": "",
          "type": "address"
        }
      ],
      "payable": false,
      "stateMutability": "view",
      "type": "function"
    },
    {
      "constant": true,
      "inputs": [],
      "name": "BONUS_REMOVEALBE_DURATION",
      "outputs": [
        {
          "name": "",
          "type": "uint256"
        }
      ],
      "payable": false,
      "stateMutability": "view",
      "type": "function"
    },
    {
      "constant": true,
      "inputs": [
        {
          "name": "",
          "type": "address"
        },
        {
          "name": "",
          "type": "uint256"
        }
      ],
      "name": "bonusAmount",
      "outputs": [
        {
          "name": "time",
          "type": "uint256"
        },
        {
          "name": "endTime",
          "type": "uint256"
        },
        {
          "name": "value",
          "type": "uint256"
        },
        {
          "name": "lockStatus",
          "type": "uint8"
        }
      ],
      "payable": false,
      "stateMutability": "view",
      "type": "function"
    },
    {
      "constant": true,
      "inputs": [
        {
          "name": "",
          "type": "uint256"
        }
      ],
      "name": "member",
      "outputs": [
        {
          "name": "",
          "type": "address"
        }
      ],
      "payable": false,
      "stateMutability": "view",
      "type": "function"
    },
    {
      "constant": true,
      "inputs": [
        {
          "name": "",
          "type": "address"
        }
      ],
      "name": "lockedAmount",
      "outputs": [
        {
          "name": "",
          "type": "uint256"
        }
      ],
      "payable": false,
      "stateMutability": "view",
      "type": "function"
    },
    {
      "constant": true,
      "inputs": [
        {
          "name": "",
          "type": "address"
        }
      ],
      "name": "unlockedAmount",
      "outputs": [
        {
          "name": "",
          "type": "uint256"
        }
      ],
      "payable": false,
      "stateMutability": "view",
      "type": "function"
    },
    {
      "constant": true,
      "inputs": [],
      "name": "FIXED_PERCENT",
      "outputs": [
        {
          "name": "",
          "type": "uint256"
        }
      ],
      "payable": false,
      "stateMutability": "view",
      "type": "function"
    },
    {
      "inputs": [
        {
          "name": "_percent",
          "type": "uint256"
        }
      ],
      "payable": false,
      "stateMutability": "nonpayable",
      "type": "constructor"
    },
    {
      "payable": true,
      "stateMutability": "payable",
      "type": "fallback"
    },
    {
      "anonymous": false,
      "inputs": [
        {
          "indexed": false,
          "name": "_percent",
          "type": "uint256"
        }
      ],
      "name": "ChangePercentSuccess",
      "type": "event"
    },
    {
      "anonymous": false,
      "inputs": [
        {
          "indexed": false,
          "name": "_address",
          "type": "address"
        },
        {
          "indexed": false,
          "name": "_sorter",
          "type": "uint256"
        }
      ],
      "name": "AddMemberSuccess",
      "type": "event"
    },
    {
      "anonymous": false,
      "inputs": [
        {
          "indexed": false,
          "name": "_address",
          "type": "address"
        },
        {
          "indexed": false,
          "name": "_amount",
          "type": "uint256"
        }
      ],
      "name": "CreatedSuccess",
      "type": "event"
    },
    {
      "anonymous": false,
      "inputs": [
        {
          "indexed": false,
          "name": "_amount",
          "type": "uint256"
        }
      ],
      "name": "RemovedSuccess",
      "type": "event"
    },
    {
      "anonymous": false,
      "inputs": [
        {
          "indexed": false,
          "name": "_amount",
          "type": "uint256"
        }
      ],
      "name": "OwnerWithdrawSuccess",
      "type": "event"
    },
    {
      "anonymous": false,
      "inputs": [
        {
          "indexed": false,
          "name": "_address",
          "type": "address"
        },
        {
          "indexed": false,
          "name": "_amount",
          "type": "uint256"
        }
      ],
      "name": "MemberWithdrawSuccess",
      "type": "event"
    },
    {
      "constant": false,
      "inputs": [
        {
          "name": "_percent",
          "type": "uint256"
        }
      ],
      "name": "setFixedPercent",
      "outputs": [],
      "payable": false,
      "stateMutability": "nonpayable",
      "type": "function"
    },
    {
      "constant": false,
      "inputs": [
        {
          "name": "_amount",
          "type": "uint256"
        }
      ],
      "name": "ownerWithdraw",
      "outputs": [],
      "payable": false,
      "stateMutability": "nonpayable",
      "type": "function"
    },
    {
      "constant": false,
      "inputs": [
        {
          "name": "_address",
          "type": "address"
        }
      ],
      "name": "addMember",
      "outputs": [],
      "payable": false,
      "stateMutability": "nonpayable",
      "type": "function"
    },
    {
      "constant": false,
      "inputs": [
        {
          "name": "_address",
          "type": "address"
        },
        {
          "name": "_amount",
          "type": "uint256"
        }
      ],
      "name": "createLockedAmount",
      "outputs": [],
      "payable": false,
      "stateMutability": "nonpayable",
      "type": "function"
    },
    {
      "constant": false,
      "inputs": [
        {
          "name": "_address",
          "type": "address"
        }
      ],
      "name": "updateStatus",
      "outputs": [],
      "payable": false,
      "stateMutability": "nonpayable",
      "type": "function"
    },
    {
      "constant": false,
      "inputs": [
        {
          "name": "_address",
          "type": "address"
        },
        {
          "name": "_isSpecific",
          "type": "bool"
        },
        {
          "name": "_amountId",
          "type": "uint256"
        }
      ],
      "name": "removeBonusAmount",
      "outputs": [],
      "payable": false,
      "stateMutability": "nonpayable",
      "type": "function"
    },
    {
      "constant": false,
      "inputs": [],
      "name": "memberWithdraw",
      "outputs": [],
      "payable": false,
      "stateMutability": "nonpayable",
      "type": "function"
    },
    {
      "constant": false,
      "inputs": [
        {
          "name": "_address",
          "type": "address"
        }
      ],
      "name": "getLockedAmount",
      "outputs": [
        {
          "name": "",
          "type": "uint256"
        }
      ],
      "payable": false,
      "stateMutability": "nonpayable",
      "type": "function"
    },
    {
      "constant": false,
      "inputs": [
        {
          "name": "_address",
          "type": "address"
        }
      ],
      "name": "getUnlockedAmount",
      "outputs": [
        {
          "name": "",
          "type": "uint256"
        }
      ],
      "payable": false,
      "stateMutability": "nonpayable",
      "type": "function"
    },
    {
      "constant": true,
      "inputs": [
        {
          "name": "_address",
          "type": "address"
        }
      ],
      "name": "getWithdrawnAmount",
      "outputs": [
        {
          "name": "",
          "type": "uint256"
        }
      ],
      "payable": false,
      "stateMutability": "view",
      "type": "function"
    },
    {
      "constant": true,
      "inputs": [
        {
          "name": "_address",
          "type": "address"
        }
      ],
      "name": "getFixedHistory",
      "outputs": [
        {
          "name": "",
          "type": "uint256[]"
        },
        {
          "name": "",
          "type": "uint256[]"
        },
        {
          "name": "",
          "type": "uint256[]"
        },
        {
          "name": "",
          "type": "uint8[]"
        }
      ],
      "payable": false,
      "stateMutability": "view",
      "type": "function"
    },
    {
      "constant": true,
      "inputs": [
        {
          "name": "_address",
          "type": "address"
        }
      ],
      "name": "getBonusHistory",
      "outputs": [
        {
          "name": "",
          "type": "uint256[]"
        },
        {
          "name": "",
          "type": "uint256[]"
        },
        {
          "name": "",
          "type": "uint256[]"
        },
        {
          "name": "",
          "type": "uint8[]"
        }
      ],
      "payable": false,
      "stateMutability": "view",
      "type": "function"
    }
  ],
  "bytecode": "0x608060405260006001556000600260006101000a81548160ff0219169083151502179055503480156200003157600080fd5b5060405160208062002e758339810180604052810190808051906020019092919050505033600260016101000a81548173ffffffffffffffffffffffffffffffffffffffff021916908373ffffffffffffffffffffffffffffffffffffffff160217905550620000b081620000d1640100000000026401000000009004565b620000ca336200018e640100000000026401000000009004565b5062000379565b600260019054906101000a900473ffffffffffffffffffffffffffffffffffffffff1673ffffffffffffffffffffffffffffffffffffffff163373ffffffffffffffffffffffffffffffffffffffff161415156200012e57600080fd5b8060001115801562000141575060648111155b15156200014d57600080fd5b806000819055507f2f30ac359ed0e20f9b98a846d1572189822c7b4ec013d704e0783115e434db27816040518082815260200191505060405180910390a150565b600260019054906101000a900473ffffffffffffffffffffffffffffffffffffffff1673ffffffffffffffffffffffffffffffffffffffff163373ffffffffffffffffffffffffffffffffffffffff16141515620001eb57600080fd5b600460008273ffffffffffffffffffffffffffffffffffffffff1673ffffffffffffffffffffffffffffffffffffffff16815260200190815260200160002060009054906101000a900460ff161515156200024557600080fd5b60038190806001815401808255809150509060018203906000526020600020016000909192909190916101000a81548173ffffffffffffffffffffffffffffffffffffffff021916908373ffffffffffffffffffffffffffffffffffffffff160217905550506001600460008373ffffffffffffffffffffffffffffffffffffffff1673ffffffffffffffffffffffffffffffffffffffff16815260200190815260200160002060006101000a81548160ff0219169083151502179055507fcb0a32863f19fa75ac0ffa8c4857aca955881c7dfdbd41dca2fa7895aada674881600160038054905003604051808373ffffffffffffffffffffffffffffffffffffffff1673ffffffffffffffffffffffffffffffffffffffff1681526020018281526020019250505060405180910390a150565b612aec80620003896000396000f30060806040526004361061013e576000357c0100000000000000000000000000000000000000000000000000000000900463ffffffff16806301162b93146101ad57806310b20139146101f05780631a39d8ef146102475780632d70715d1461027257806333f707d1146102c9578063372c12b1146102f6578063420d4a0214610351578063485d3834146103a8578063491d00d6146103d357806357698b86146104005780638da5cb5b14610484578063929ec537146104db578063943b15e314610532578063944953de1461055d578063956d113b146105e15780639a0606d01461064e578063a153e7081461069b578063a8988ce2146106f2578063a9cc67ab14610749578063ac69471114610774578063b913394b1461078b578063ca6d56dc146107e4578063e475e7c614610827578063f2073e6a14610997575b600260009054906101000a900460ff1615151561015a57600080fd5b6001600260006101000a81548160ff02191690831515021790555061018a34600154610b0790919063ffffffff16565b6001819055506000600260006101000a81548160ff021916908315150217905550005b3480156101b957600080fd5b506101ee600480360381019080803573ffffffffffffffffffffffffffffffffffffffff169060200190929190505050610b25565b005b3480156101fc57600080fd5b50610231600480360381019080803573ffffffffffffffffffffffffffffffffffffffff169060200190929190505050611110565b6040518082815260200191505060405180910390f35b34801561025357600080fd5b5061025c611128565b6040518082815260200191505060405180910390f35b34801561027e57600080fd5b506102b3600480360381019080803573ffffffffffffffffffffffffffffffffffffffff16906020019092919050505061112e565b6040518082815260200191505060405180910390f35b3480156102d557600080fd5b506102f460048036038101908080359060200190929190505050611177565b005b34801561030257600080fd5b50610337600480360381019080803573ffffffffffffffffffffffffffffffffffffffff1690602001909291905050506112f4565b604051808215151515815260200191505060405180910390f35b34801561035d57600080fd5b50610392600480360381019080803573ffffffffffffffffffffffffffffffffffffffff169060200190929190505050611314565b6040518082815260200191505060405180910390f35b3480156103b457600080fd5b506103bd611366565b6040518082815260200191505060405180910390f35b3480156103df57600080fd5b506103fe6004803603810190808035906020019092919050505061136e565b005b34801561040c57600080fd5b5061044b600480360381019080803573ffffffffffffffffffffffffffffffffffffffff16906020019092919080359060200190929190505050611428565b6040518085815260200184815260200183815260200182600381111561046d57fe5b60ff16815260200194505050505060405180910390f35b34801561049057600080fd5b50610499611481565b604051808273ffffffffffffffffffffffffffffffffffffffff1673ffffffffffffffffffffffffffffffffffffffff16815260200191505060405180910390f35b3480156104e757600080fd5b5061051c600480360381019080803573ffffffffffffffffffffffffffffffffffffffff1690602001909291905050506114a7565b6040518082815260200191505060405180910390f35b34801561053e57600080fd5b506105476114f9565b6040518082815260200191505060405180910390f35b34801561056957600080fd5b506105a8600480360381019080803573ffffffffffffffffffffffffffffffffffffffff16906020019092919080359060200190929190505050611500565b604051808581526020018481526020018381526020018260038111156105ca57fe5b60ff16815260200194505050505060405180910390f35b3480156105ed57600080fd5b5061060c60048036038101908080359060200190929190505050611559565b604051808273ffffffffffffffffffffffffffffffffffffffff1673ffffffffffffffffffffffffffffffffffffffff16815260200191505060405180910390f35b34801561065a57600080fd5b50610699600480360381019080803573ffffffffffffffffffffffffffffffffffffffff16906020019092919080359060200190929190505050611597565b005b3480156106a757600080fd5b506106dc600480360381019080803573ffffffffffffffffffffffffffffffffffffffff1690602001909291905050506117d3565b6040518082815260200191505060405180910390f35b3480156106fe57600080fd5b50610733600480360381019080803573ffffffffffffffffffffffffffffffffffffffff1690602001909291905050506117eb565b6040518082815260200191505060405180910390f35b34801561075557600080fd5b5061075e611803565b6040518082815260200191505060405180910390f35b34801561078057600080fd5b50610789611809565b005b34801561079757600080fd5b506107e2600480360381019080803573ffffffffffffffffffffffffffffffffffffffff16906020019092919080351515906020019092919080359060200190929190505050611aab565b005b3480156107f057600080fd5b50610825600480360381019080803573ffffffffffffffffffffffffffffffffffffffff169060200190929190505050611cb7565b005b34801561083357600080fd5b50610868600480360381019080803573ffffffffffffffffffffffffffffffffffffffff169060200190929190505050611ea0565b6040518080602001806020018060200180602001858103855289818151815260200191508051906020019060200280838360005b838110156108b757808201518184015260208101905061089c565b50505050905001858103845288818151815260200191508051906020019060200280838360005b838110156108f95780820151818401526020810190506108de565b50505050905001858103835287818151815260200191508051906020019060200280838360005b8381101561093b578082015181840152602081019050610920565b50505050905001858103825286818151815260200191508051906020019060200280838360005b8381101561097d578082015181840152602081019050610962565b505050509050019850505050505050505060405180910390f35b3480156109a357600080fd5b506109d8600480360381019080803573ffffffffffffffffffffffffffffffffffffffff16906020019092919050505061212e565b6040518080602001806020018060200180602001858103855289818151815260200191508051906020019060200280838360005b83811015610a27578082015181840152602081019050610a0c565b50505050905001858103845288818151815260200191508051906020019060200280838360005b83811015610a69578082015181840152602081019050610a4e565b50505050905001858103835287818151815260200191508051906020019060200280838360005b83811015610aab578082015181840152602081019050610a90565b50505050905001858103825286818151815260200191508051906020019060200280838360005b83811015610aed578082015181840152602081019050610ad2565b505050509050019850505050505050505060405180910390f35b6000808284019050838110151515610b1b57fe5b8091505092915050565b60008090505b600660008373ffffffffffffffffffffffffffffffffffffffff1673ffffffffffffffffffffffffffffffffffffffff1681526020019081526020016000208054905081101561110c5760006003811115610b8257fe5b600660008473ffffffffffffffffffffffffffffffffffffffff1673ffffffffffffffffffffffffffffffffffffffff16815260200190815260200160002082815481101515610bce57fe5b906000526020600020906004020160030160009054906101000a900460ff166003811115610bf857fe5b148015610c61575042600660008473ffffffffffffffffffffffffffffffffffffffff1673ffffffffffffffffffffffffffffffffffffffff16815260200190815260200160002082815481101515610c4d57fe5b906000526020600020906004020160010154105b15610e3a576001600660008473ffffffffffffffffffffffffffffffffffffffff1673ffffffffffffffffffffffffffffffffffffffff16815260200190815260200160002082815481101515610cb457fe5b906000526020600020906004020160030160006101000a81548160ff02191690836003811115610ce057fe5b0217905550600660008373ffffffffffffffffffffffffffffffffffffffff1673ffffffffffffffffffffffffffffffffffffffff16815260200190815260200160002081815481101515610d3157fe5b906000526020600020906004020160020154600760008473ffffffffffffffffffffffffffffffffffffffff1673ffffffffffffffffffffffffffffffffffffffff16815260200190815260200160002060008282540392505081905550600660008373ffffffffffffffffffffffffffffffffffffffff1673ffffffffffffffffffffffffffffffffffffffff16815260200190815260200160002081815481101515610ddb57fe5b906000526020600020906004020160020154600860008473ffffffffffffffffffffffffffffffffffffffff1673ffffffffffffffffffffffffffffffffffffffff168152602001908152602001600020600082825401925050819055505b60006003811115610e4757fe5b600560008473ffffffffffffffffffffffffffffffffffffffff1673ffffffffffffffffffffffffffffffffffffffff16815260200190815260200160002082815481101515610e9357fe5b906000526020600020906004020160030160009054906101000a900460ff166003811115610ebd57fe5b148015610f26575042600560008473ffffffffffffffffffffffffffffffffffffffff1673ffffffffffffffffffffffffffffffffffffffff16815260200190815260200160002082815481101515610f1257fe5b906000526020600020906004020160010154105b156110ff576001600560008473ffffffffffffffffffffffffffffffffffffffff1673ffffffffffffffffffffffffffffffffffffffff16815260200190815260200160002082815481101515610f7957fe5b906000526020600020906004020160030160006101000a81548160ff02191690836003811115610fa557fe5b0217905550600560008373ffffffffffffffffffffffffffffffffffffffff1673ffffffffffffffffffffffffffffffffffffffff16815260200190815260200160002081815481101515610ff657fe5b906000526020600020906004020160020154600760008473ffffffffffffffffffffffffffffffffffffffff1673ffffffffffffffffffffffffffffffffffffffff16815260200190815260200160002060008282540392505081905550600560008373ffffffffffffffffffffffffffffffffffffffff1673ffffffffffffffffffffffffffffffffffffffff168152602001908152602001600020818154811015156110a057fe5b906000526020600020906004020160020154600860008473ffffffffffffffffffffffffffffffffffffffff1673ffffffffffffffffffffffffffffffffffffffff168152602001908152602001600020600082825401925050819055505b8080600101915050610b2b565b5050565b60096020528060005260406000206000915090505481565b60015481565b6000600960008373ffffffffffffffffffffffffffffffffffffffff1673ffffffffffffffffffffffffffffffffffffffff168152602001908152602001600020549050919050565b600260019054906101000a900473ffffffffffffffffffffffffffffffffffffffff1673ffffffffffffffffffffffffffffffffffffffff163373ffffffffffffffffffffffffffffffffffffffff161415156111d357600080fd5b600260009054906101000a900460ff161515156111ef57600080fd5b600154811115151561120057600080fd5b6001600260006101000a81548160ff021916908315150217905550611230816001546123bc90919063ffffffff16565b600181905550600260019054906101000a900473ffffffffffffffffffffffffffffffffffffffff1673ffffffffffffffffffffffffffffffffffffffff166108fc829081150290604051600060405180830381858888f1935050505015801561129e573d6000803e3d6000fd5b506000600260006101000a81548160ff0219169083151502179055507fc67a6e2c9e13b320d5ce7e24743ea93ba9261320310966dd6240569493690eff816040518082815260200191505060405180910390a150565b60046020528060005260406000206000915054906101000a900460ff1681565b600061131f82610b25565b600860008373ffffffffffffffffffffffffffffffffffffffff1673ffffffffffffffffffffffffffffffffffffffff168152602001908152602001600020549050919050565b6301e1338081565b600260019054906101000a900473ffffffffffffffffffffffffffffffffffffffff1673ffffffffffffffffffffffffffffffffffffffff163373ffffffffffffffffffffffffffffffffffffffff161415156113ca57600080fd5b806000111580156113dc575060648111155b15156113e757600080fd5b806000819055507f2f30ac359ed0e20f9b98a846d1572189822c7b4ec013d704e0783115e434db27816040518082815260200191505060405180910390a150565b60056020528160005260406000208181548110151561144357fe5b9060005260206000209060040201600091509150508060000154908060010154908060020154908060030160009054906101000a900460ff16905084565b600260019054906101000a900473ffffffffffffffffffffffffffffffffffffffff1681565b60006114b282610b25565b600760008373ffffffffffffffffffffffffffffffffffffffff1673ffffffffffffffffffffffffffffffffffffffff168152602001908152602001600020549050919050565b62ed4e0081565b60066020528160005260406000208181548110151561151b57fe5b9060005260206000209060040201600091509150508060000154908060010154908060020154908060030160009054906101000a900460ff16905084565b60038181548110151561156857fe5b906000526020600020016000915054906101000a900473ffffffffffffffffffffffffffffffffffffffff1681565b600080600260019054906101000a900473ffffffffffffffffffffffffffffffffffffffff1673ffffffffffffffffffffffffffffffffffffffff163373ffffffffffffffffffffffffffffffffffffffff161415156115f657600080fd5b600154831115151561160757600080fd5b600460008573ffffffffffffffffffffffffffffffffffffffff1673ffffffffffffffffffffffffffffffffffffffff16815260200190815260200160002060009054906101000a900460ff16151561165f57600080fd5b6116876064611679600054866123d590919063ffffffff16565b61240890919063ffffffff16565b915061169c82846123bc90919063ffffffff16565b90506116a88483612423565b6116b28482612521565b6116c7836001546123bc90919063ffffffff16565b60018190555061171f83600760008773ffffffffffffffffffffffffffffffffffffffff1673ffffffffffffffffffffffffffffffffffffffff16815260200190815260200160002054610b0790919063ffffffff16565b600760008673ffffffffffffffffffffffffffffffffffffffff1673ffffffffffffffffffffffffffffffffffffffff168152602001908152602001600020819055507f0af5b4bb4bde1ba8d1310c81bc038775802dd1fc8610862258145f44632f08aa8484604051808373ffffffffffffffffffffffffffffffffffffffff1673ffffffffffffffffffffffffffffffffffffffff1681526020018281526020019250505060405180910390a150505050565b60076020528060005260406000206000915090505481565b60086020528060005260406000206000915090505481565b60005481565b600080600460003373ffffffffffffffffffffffffffffffffffffffff1673ffffffffffffffffffffffffffffffffffffffff16815260200190815260200160002060009054906101000a900460ff16151561186457600080fd5b600260009054906101000a900460ff1615151561188057600080fd5b600860008273ffffffffffffffffffffffffffffffffffffffff1673ffffffffffffffffffffffffffffffffffffffff1681526020019081526020016000205491506000821115156118d157600080fd5b3390506118dd81610b25565b6001600260006101000a81548160ff02191690831515021790555061194a82600960008473ffffffffffffffffffffffffffffffffffffffff1673ffffffffffffffffffffffffffffffffffffffff16815260200190815260200160002054610b0790919063ffffffff16565b600960008373ffffffffffffffffffffffffffffffffffffffff1673ffffffffffffffffffffffffffffffffffffffff168152602001908152602001600020819055506000600860008373ffffffffffffffffffffffffffffffffffffffff1673ffffffffffffffffffffffffffffffffffffffff168152602001908152602001600020819055506119da61261f565b8073ffffffffffffffffffffffffffffffffffffffff166108fc839081150290604051600060405180830381858888f19350505050158015611a20573d6000803e3d6000fd5b506000600260006101000a81548160ff0219169083151502179055507f8141602dfea6211bce1de52d5b4ea2acbcee367345f53fd43dcb1380245b07ef8183604051808373ffffffffffffffffffffffffffffffffffffffff1673ffffffffffffffffffffffffffffffffffffffff1681526020018281526020019250505060405180910390a15050565b600080600260019054906101000a900473ffffffffffffffffffffffffffffffffffffffff1673ffffffffffffffffffffffffffffffffffffffff163373ffffffffffffffffffffffffffffffffffffffff16141515611b0a57600080fd5b600460008673ffffffffffffffffffffffffffffffffffffffff1673ffffffffffffffffffffffffffffffffffffffff16815260200190815260200160002060009054906101000a900460ff161515611b6257600080fd5b60009150611b6f85610b25565b8315611be35782600011158015611bc75750600660008673ffffffffffffffffffffffffffffffffffffffff1673ffffffffffffffffffffffffffffffffffffffff1681526020019081526020016000208054905083105b1515611bd257600080fd5b611bdc8584612897565b9150611c5e565b600090505b600660008673ffffffffffffffffffffffffffffffffffffffff1673ffffffffffffffffffffffffffffffffffffffff16815260200190815260200160002080549050811015611c5d57611c4e611c3f8683612897565b83610b0790919063ffffffff16565b91508080600101915050611be8565b5b611c7382600154610b0790919063ffffffff16565b6001819055507f66666578c836dc01e1a47b3552eae6199e273c425f03e253aa358f69fc187cbe826040518082815260200191505060405180910390a15050505050565b600260019054906101000a900473ffffffffffffffffffffffffffffffffffffffff1673ffffffffffffffffffffffffffffffffffffffff163373ffffffffffffffffffffffffffffffffffffffff16141515611d1357600080fd5b600460008273ffffffffffffffffffffffffffffffffffffffff1673ffffffffffffffffffffffffffffffffffffffff16815260200190815260200160002060009054906101000a900460ff16151515611d6c57600080fd5b60038190806001815401808255809150509060018203906000526020600020016000909192909190916101000a81548173ffffffffffffffffffffffffffffffffffffffff021916908373ffffffffffffffffffffffffffffffffffffffff160217905550506001600460008373ffffffffffffffffffffffffffffffffffffffff1673ffffffffffffffffffffffffffffffffffffffff16815260200190815260200160002060006101000a81548160ff0219169083151502179055507fcb0a32863f19fa75ac0ffa8c4857aca955881c7dfdbd41dca2fa7895aada674881600160038054905003604051808373ffffffffffffffffffffffffffffffffffffffff1673ffffffffffffffffffffffffffffffffffffffff1681526020018281526020019250505060405180910390a150565b60608060608060608060608060008090505b600560008b73ffffffffffffffffffffffffffffffffffffffff1673ffffffffffffffffffffffffffffffffffffffff1681526020019081526020016000208054905081101561211657600560008b73ffffffffffffffffffffffffffffffffffffffff1673ffffffffffffffffffffffffffffffffffffffff16815260200190815260200160002081815481101515611f4857fe5b9060005260206000209060040201600001548582815181101515611f6857fe5b9060200190602002018181525050600560008b73ffffffffffffffffffffffffffffffffffffffff1673ffffffffffffffffffffffffffffffffffffffff16815260200190815260200160002081815481101515611fc257fe5b9060005260206000209060040201600101548482815181101515611fe257fe5b9060200190602002018181525050600560008b73ffffffffffffffffffffffffffffffffffffffff1673ffffffffffffffffffffffffffffffffffffffff1681526020019081526020016000208181548110151561203c57fe5b906000526020600020906004020160020154838281518110151561205c57fe5b9060200190602002018181525050600560008b73ffffffffffffffffffffffffffffffffffffffff1673ffffffffffffffffffffffffffffffffffffffff168152602001908152602001600020818154811015156120b657fe5b906000526020600020906004020160030160009054906101000a900460ff1682828151811015156120e357fe5b9060200190602002019060038111156120f857fe5b9081600381111561210557fe5b815250508080600101915050611eb2565b84848484985098509850985050505050509193509193565b60608060608060608060608060008090505b600660008b73ffffffffffffffffffffffffffffffffffffffff1673ffffffffffffffffffffffffffffffffffffffff168152602001908152602001600020805490508110156123a457600660008b73ffffffffffffffffffffffffffffffffffffffff1673ffffffffffffffffffffffffffffffffffffffff168152602001908152602001600020818154811015156121d657fe5b90600052602060002090600402016000015485828151811015156121f657fe5b9060200190602002018181525050600660008b73ffffffffffffffffffffffffffffffffffffffff1673ffffffffffffffffffffffffffffffffffffffff1681526020019081526020016000208181548110151561225057fe5b906000526020600020906004020160010154848281518110151561227057fe5b9060200190602002018181525050600660008b73ffffffffffffffffffffffffffffffffffffffff1673ffffffffffffffffffffffffffffffffffffffff168152602001908152602001600020818154811015156122ca57fe5b90600052602060002090600402016002015483828151811015156122ea57fe5b9060200190602002018181525050600660008b73ffffffffffffffffffffffffffffffffffffffff1673ffffffffffffffffffffffffffffffffffffffff1681526020019081526020016000208181548110151561234457fe5b906000526020600020906004020160030160009054906101000a900460ff16828281518110151561237157fe5b90602001906020020190600381111561238657fe5b9081600381111561239357fe5b815250508080600101915050612140565b84848484985098509850985050505050509193509193565b60008282111515156123ca57fe5b818303905092915050565b600080828402905060008414806123f657508284828115156123f357fe5b04145b15156123fe57fe5b8091505092915050565b600080828481151561241657fe5b0490508091505092915050565b600061242d612a8c565b6301e13380915060806040519081016040528042815260200183420181526020018481526020016000600381111561246157fe5b8152509050600560008573ffffffffffffffffffffffffffffffffffffffff1673ffffffffffffffffffffffffffffffffffffffff168152602001908152602001600020819080600181540180825580915050906001820390600052602060002090600402016000909192909190915060008201518160000155602082015181600101556040820151816002015560608201518160030160006101000a81548160ff0219169083600381111561251357fe5b021790555050505050505050565b600061252b612a8c565b6301e13380915060806040519081016040528042815260200183420181526020018481526020016000600381111561255f57fe5b8152509050600660008573ffffffffffffffffffffffffffffffffffffffff1673ffffffffffffffffffffffffffffffffffffffff168152602001908152602001600020819080600181540180825580915050906001820390600052602060002090600402016000909192909190915060008201518160000155602082015181600101556040820151816002015560608201518160030160006101000a81548160ff0219169083600381111561261157fe5b021790555050505050505050565b600080339150600090505b600660008373ffffffffffffffffffffffffffffffffffffffff1673ffffffffffffffffffffffffffffffffffffffff16815260200190815260200160002080549050811015612893576001600381111561268157fe5b600660008473ffffffffffffffffffffffffffffffffffffffff1673ffffffffffffffffffffffffffffffffffffffff168152602001908152602001600020828154811015156126cd57fe5b906000526020600020906004020160030160009054906101000a900460ff1660038111156126f757fe5b141561277d576002600660008473ffffffffffffffffffffffffffffffffffffffff1673ffffffffffffffffffffffffffffffffffffffff1681526020019081526020016000208281548110151561274b57fe5b906000526020600020906004020160030160006101000a81548160ff0219169083600381111561277757fe5b02179055505b6001600381111561278a57fe5b600560008473ffffffffffffffffffffffffffffffffffffffff1673ffffffffffffffffffffffffffffffffffffffff168152602001908152602001600020828154811015156127d657fe5b906000526020600020906004020160030160009054906101000a900460ff16600381111561280057fe5b1415612886576002600560008473ffffffffffffffffffffffffffffffffffffffff1673ffffffffffffffffffffffffffffffffffffffff1681526020019081526020016000208281548110151561285457fe5b906000526020600020906004020160030160006101000a81548160ff0219169083600381111561288057fe5b02179055505b808060010191505061262a565b5050565b6000804262ed4e00600660008773ffffffffffffffffffffffffffffffffffffffff1673ffffffffffffffffffffffffffffffffffffffff168152602001908152602001600020858154811015156128eb57fe5b906000526020600020906004020160000154011115612a8057600660008573ffffffffffffffffffffffffffffffffffffffff1673ffffffffffffffffffffffffffffffffffffffff1681526020019081526020016000208381548110151561295057fe5b90600052602060002090600402016002015490506003600660008673ffffffffffffffffffffffffffffffffffffffff1673ffffffffffffffffffffffffffffffffffffffff168152602001908152602001600020848154811015156129b257fe5b906000526020600020906004020160030160006101000a81548160ff021916908360038111156129de57fe5b0217905550612a3581600760008773ffffffffffffffffffffffffffffffffffffffff1673ffffffffffffffffffffffffffffffffffffffff168152602001908152602001600020546123bc90919063ffffffff16565b600760008673ffffffffffffffffffffffffffffffffffffffff1673ffffffffffffffffffffffffffffffffffffffff16815260200190815260200160002081905550809150612a85565b600091505b5092915050565b60806040519081016040528060008152602001600081526020016000815260200160006003811115612aba57fe5b815250905600a165627a7a72305820fad10cb96f527a1287b2124147b8aae4d078b8c6943394f339413a4433adf12d0029",
  "source": "pragma solidity ^0.4.23;\r\n\r\nimport './SafeMath.sol';\r\n\r\ncontract NextyBonus {\r\n    using SafeMath for uint256;\r\n    \r\n    uint256 public constant BONUS_REMOVEALBE_DURATION= 180*24*60*60; // 180 days in second\r\n    uint256 public constant LOCK_DURATION= 365*24*60*60; // 365 days in second\r\n    \r\n    uint256 public FIXED_PERCENT; //not constant\r\n    uint256 public totalAmount= 0;\r\n    \r\n    bool reEntrancyMutex = false;\r\n    \r\n    enum StatusType {\r\n        Locked,\r\n        Unlocked,\r\n        Withdrawn,\r\n        Removed     //Bonus amount only\r\n    }\r\n\r\n    struct LockAtribute {\r\n        uint256 time;\r\n        uint256 endTime;\r\n        uint256 value;\r\n        StatusType lockStatus;\r\n    }\r\n    \r\n    address public owner;\r\n    \r\n    address[] public member;\r\n    \r\n    mapping(address => bool) public whiteList;\r\n    \r\n    mapping(address => LockAtribute[]) public fixedAmount;\r\n    mapping(address => LockAtribute[]) public bonusAmount;\r\n    mapping(address => uint256) public lockedAmount;\r\n    mapping(address => uint256) public unlockedAmount;\r\n    mapping(address => uint256) public withdrawnAmount;\r\n    \r\n    //Modifiers\r\n\r\n    modifier onlyOwner() {\r\n        require(msg.sender == owner);\r\n        _;\r\n    }\r\n    \r\n    modifier onlyMember() {\r\n        require(whiteList[msg.sender]);\r\n        _;\r\n    }\r\n    \r\n    //Owners Events\r\n\r\n    event ChangePercentSuccess(uint256 _percent);\r\n    event AddMemberSuccess(address _address, uint256 _sorter);\r\n    event CreatedSuccess(address _address, uint256 _amount);\r\n    event RemovedSuccess(uint256 _amount);\r\n    event OwnerWithdrawSuccess(uint256 _amount);\r\n\r\n    //Members Events\r\n    \r\n    event MemberWithdrawSuccess(address _address, uint256 _amount);\r\n    \r\n    //Owner's Functions\r\n\r\n    constructor (uint256 _percent) public{ \r\n        owner= msg.sender;\r\n        setFixedPercent(_percent);\r\n        addMember(msg.sender); // owner at 1st place in the member array\r\n    }\r\n    \r\n    function () public payable {\r\n        require(!reEntrancyMutex);\r\n        reEntrancyMutex = true; \r\n        totalAmount= totalAmount.add(msg.value);\r\n        reEntrancyMutex = false; \r\n    }\r\n    \r\n    function setFixedPercent(uint256 _percent) onlyOwner public {\r\n        require((0 <= _percent) && (_percent <= 100));\r\n        FIXED_PERCENT= _percent;\r\n        emit ChangePercentSuccess(_percent);\r\n    }\r\n    \r\n    function ownerWithdraw(uint256 _amount) onlyOwner public {\r\n        require(!reEntrancyMutex);\r\n        require(_amount <= totalAmount);\r\n        reEntrancyMutex = true;\r\n        totalAmount= totalAmount.sub(_amount);\r\n        owner.transfer(_amount);\r\n        reEntrancyMutex = false;\r\n        emit OwnerWithdrawSuccess(_amount);\r\n    }\r\n    \r\n    function addMember(address _address) onlyOwner public {\r\n        require(!whiteList[_address]);\r\n        member.push(_address);\r\n        whiteList[_address]= true;\r\n        emit AddMemberSuccess(_address, member.length-1);\r\n    }\r\n    \r\n    function createFixedAmount(address _address, uint256 _amount) private {\r\n        uint256 lockDuration= LOCK_DURATION; //in second\r\n        \r\n        LockAtribute memory newAmount = LockAtribute({\r\n            time: now,\r\n            endTime: now + lockDuration,\r\n            value: _amount,\r\n            lockStatus: StatusType.Locked\r\n        });\r\n        \r\n        fixedAmount[_address].push(newAmount);\r\n    }\r\n    \r\n    function createBonusAmount(address _address, uint256 _amount) private {\r\n        uint256 lockDuration= LOCK_DURATION; //in second\r\n        \r\n        LockAtribute memory newAmount = LockAtribute({\r\n            time: now,\r\n            endTime: now + lockDuration,\r\n            value: _amount,\r\n            lockStatus: StatusType.Locked\r\n        });\r\n        \r\n        bonusAmount[_address].push(newAmount);\r\n    }\r\n    \r\n    function createLockedAmount(address _address, uint256 _amount) onlyOwner public {\r\n        require(_amount <= totalAmount);\r\n        require(whiteList[_address]);\r\n        \r\n        uint256 newFixedAmount= _amount.mul(FIXED_PERCENT).div(100);\r\n        uint256 newBonusAmount= _amount.sub(newFixedAmount);\r\n        \r\n        createFixedAmount(_address, newFixedAmount);\r\n        createBonusAmount(_address, newBonusAmount);\r\n        \r\n        totalAmount= totalAmount.sub(_amount);\r\n        lockedAmount[_address]= lockedAmount[_address].add(_amount);\r\n        emit CreatedSuccess(_address, _amount);\r\n    }\r\n    \r\n    function updateStatus(address _address) public {\r\n        for (uint256 i= 0; i< bonusAmount[_address].length; i++) {\r\n            if ((bonusAmount[_address][i].lockStatus == StatusType.Locked) && \r\n            (bonusAmount[_address][i].endTime < now)){\r\n                bonusAmount[_address][i].lockStatus= StatusType.Unlocked;\r\n                lockedAmount[_address]-= bonusAmount[_address][i].value;\r\n                unlockedAmount[_address]+= bonusAmount[_address][i].value;\r\n            }\r\n            \r\n            if ((fixedAmount[_address][i].lockStatus == StatusType.Locked) && \r\n            (fixedAmount[_address][i].endTime < now)){\r\n                fixedAmount[_address][i].lockStatus= StatusType.Unlocked;\r\n                lockedAmount[_address]-= fixedAmount[_address][i].value;\r\n                unlockedAmount[_address]+= fixedAmount[_address][i].value;\r\n            }\r\n        }\r\n    }\r\n    \r\n    function removeSpecificBonusAmount(address _address, uint256 _amountId) private returns(uint256) {\r\n        //if still removeable, remove and add amount into totalAmount    \r\n        if (bonusAmount[_address][_amountId].time + BONUS_REMOVEALBE_DURATION > now) {\r\n            uint256 value=bonusAmount[_address][_amountId].value;\r\n            bonusAmount[_address][_amountId].lockStatus= StatusType.Removed;\r\n            lockedAmount[_address]= lockedAmount[_address].sub(value);\r\n            return value;\r\n        }\r\n        return 0;\r\n    }\r\n    \r\n    function removeBonusAmount(address _address, bool _isSpecific, uint256 _amountId) onlyOwner public {\r\n        require(whiteList[_address]);\r\n        uint256 removedAmount= 0;\r\n        updateStatus(_address);\r\n        \r\n        if (_isSpecific) {\r\n            require((0 <= _amountId) && (_amountId <  bonusAmount[_address].length));\r\n            removedAmount= removeSpecificBonusAmount(_address, _amountId);\r\n        } else {\r\n            // remove all bonusAmount => search all bonusAmount sent to this _address\r\n            for (uint256 i= 0; i< bonusAmount[_address].length; i++) {\r\n                removedAmount= removedAmount.add(removeSpecificBonusAmount(_address, i));\r\n            }\r\n        }\r\n\r\n        totalAmount= totalAmount.add(removedAmount);\r\n        emit RemovedSuccess(removedAmount);\r\n    }\r\n    \r\n    //Members Functions\r\n    \r\n    function setUnlockedToWithdrawn() private {\r\n        address _address= msg.sender;\r\n        for (uint256 i= 0; i< bonusAmount[_address].length; i++) {\r\n            //if Unlocked\r\n            if (bonusAmount[_address][i].lockStatus == StatusType.Unlocked) {\r\n                bonusAmount[_address][i].lockStatus= StatusType.Withdrawn;\r\n            }\r\n            \r\n            if (fixedAmount[_address][i].lockStatus == StatusType.Unlocked) {\r\n                fixedAmount[_address][i].lockStatus= StatusType.Withdrawn;\r\n            }\r\n        }\r\n    }\r\n    \r\n    function memberWithdraw() onlyMember public {\r\n        require(!reEntrancyMutex);\r\n        uint256 amount= unlockedAmount[_address]; // Withdraw amount\r\n        require(amount > 0);\r\n        address _address=msg.sender;\r\n        \r\n        updateStatus(_address);\r\n        \r\n        reEntrancyMutex = true;\r\n        withdrawnAmount[_address]= withdrawnAmount[_address].add(amount);\r\n        unlockedAmount[_address]= 0;\r\n        setUnlockedToWithdrawn();\r\n        _address.transfer(amount);\r\n        reEntrancyMutex = false; \r\n        \r\n        emit MemberWithdrawSuccess(_address, amount);\r\n    }\r\n    \r\n    //Public Functions\r\n\r\n    function getLockedAmount(address _address) public returns(uint256) {\r\n        updateStatus(_address);\r\n        return lockedAmount[_address];\r\n    }\r\n    \r\n    function getUnlockedAmount(address _address) public returns(uint256) {\r\n        updateStatus(_address);\r\n        return unlockedAmount[_address];\r\n    }\r\n    \r\n    function getWithdrawnAmount(address _address) public view returns(uint256) {\r\n        return withdrawnAmount[_address];\r\n    }\r\n    \r\n    function getFixedHistory(address _address) public view returns(uint256[], uint256[], uint256[], StatusType[]){\r\n        uint256[] memory time;\r\n        uint256[] memory endTime;\r\n        uint256[] memory value;\r\n        StatusType[] memory lockStatus;\r\n        \r\n        for (uint256 i= 0; i< fixedAmount[_address].length; i++) {\r\n            time[i]= fixedAmount[_address][i].time;\r\n            endTime[i]= fixedAmount[_address][i].endTime;\r\n            value[i]= fixedAmount[_address][i].value;\r\n            lockStatus[i]= fixedAmount[_address][i].lockStatus;\r\n        }  \r\n        \r\n        return (time, endTime, value, lockStatus);\r\n    }\r\n    \r\n    function getBonusHistory(address _address) public view returns(uint256[], uint256[], uint256[], StatusType[]){\r\n        uint256[] memory time;\r\n        uint256[] memory endTime;\r\n        uint256[] memory value;\r\n        StatusType[] memory lockStatus;\r\n        \r\n        for (uint256 i= 0; i< bonusAmount[_address].length; i++) {\r\n            time[i]= bonusAmount[_address][i].time;\r\n            endTime[i]= bonusAmount[_address][i].endTime;\r\n            value[i]= bonusAmount[_address][i].value;\r\n            lockStatus[i]= bonusAmount[_address][i].lockStatus;\r\n        }  \r\n        \r\n        return (time, endTime, value, lockStatus);\r\n    }\r\n    \r\n}",
  "sourcePath": "C:\\Users\\bestb\\Desktop\\nodejs\\NextyBonus\\contracts\\NextyBonus.sol",
  "compiler": {
    "name": "solc",
    "version": "0.4.24+commit.e67f0147.Emscripten.clang"
  },
  "schemaVersion": "2.0.1",
  "updatedAt": "2018-07-26T08:02:58.708Z"
}