{
  "contractName": "NextyBonus",
  "abi": [
    {
      "constant": true,
      "inputs": [
        {
          "name": "",
          "type": "address"
        }
      ],
      "name": "withdrawnAmount",
      "outputs": [
        {
          "name": "",
          "type": "uint256"
        }
      ],
      "payable": false,
      "stateMutability": "view",
      "type": "function"
    },
    {
      "constant": true,
      "inputs": [],
      "name": "totalAmount",
      "outputs": [
        {
          "name": "",
          "type": "uint256"
        }
      ],
      "payable": false,
      "stateMutability": "view",
      "type": "function"
    },
    {
      "constant": true,
      "inputs": [
        {
          "name": "",
          "type": "address"
        }
      ],
      "name": "whiteList",
      "outputs": [
        {
          "name": "",
          "type": "bool"
        }
      ],
      "payable": false,
      "stateMutability": "view",
      "type": "function"
    },
    {
      "constant": true,
      "inputs": [],
      "name": "LOCK_DURATION",
      "outputs": [
        {
          "name": "",
          "type": "uint256"
        }
      ],
      "payable": false,
      "stateMutability": "view",
      "type": "function"
    },
    {
      "constant": true,
      "inputs": [
        {
          "name": "",
          "type": "address"
        },
        {
          "name": "",
          "type": "uint256"
        }
      ],
      "name": "fixedAmount",
      "outputs": [
        {
          "name": "startTime",
          "type": "uint256"
        },
        {
          "name": "endTime",
          "type": "uint256"
        },
        {
          "name": "value",
          "type": "uint256"
        },
        {
          "name": "lockStatus",
          "type": "uint8"
        }
      ],
      "payable": false,
      "stateMutability": "view",
      "type": "function"
    },
    {
      "constant": true,
      "inputs": [],
      "name": "owner",
      "outputs": [
        {
          "name": "",
          "type": "address"
        }
      ],
      "payable": false,
      "stateMutability": "view",
      "type": "function"
    },
    {
      "constant": true,
      "inputs": [],
      "name": "BONUS_REMOVEALBE_DURATION",
      "outputs": [
        {
          "name": "",
          "type": "uint256"
        }
      ],
      "payable": false,
      "stateMutability": "view",
      "type": "function"
    },
    {
      "constant": true,
      "inputs": [
        {
          "name": "",
          "type": "address"
        },
        {
          "name": "",
          "type": "uint256"
        }
      ],
      "name": "bonusAmount",
      "outputs": [
        {
          "name": "startTime",
          "type": "uint256"
        },
        {
          "name": "endTime",
          "type": "uint256"
        },
        {
          "name": "value",
          "type": "uint256"
        },
        {
          "name": "lockStatus",
          "type": "uint8"
        }
      ],
      "payable": false,
      "stateMutability": "view",
      "type": "function"
    },
    {
      "constant": true,
      "inputs": [
        {
          "name": "",
          "type": "uint256"
        }
      ],
      "name": "member",
      "outputs": [
        {
          "name": "",
          "type": "address"
        }
      ],
      "payable": false,
      "stateMutability": "view",
      "type": "function"
    },
    {
      "constant": true,
      "inputs": [
        {
          "name": "",
          "type": "address"
        }
      ],
      "name": "lockedAmount",
      "outputs": [
        {
          "name": "",
          "type": "uint256"
        }
      ],
      "payable": false,
      "stateMutability": "view",
      "type": "function"
    },
    {
      "constant": true,
      "inputs": [
        {
          "name": "",
          "type": "address"
        }
      ],
      "name": "unlockedAmount",
      "outputs": [
        {
          "name": "",
          "type": "uint256"
        }
      ],
      "payable": false,
      "stateMutability": "view",
      "type": "function"
    },
    {
      "constant": true,
      "inputs": [],
      "name": "FIXED_PERCENT",
      "outputs": [
        {
          "name": "",
          "type": "uint256"
        }
      ],
      "payable": false,
      "stateMutability": "view",
      "type": "function"
    },
    {
      "inputs": [
        {
          "name": "_percent",
          "type": "uint256"
        }
      ],
      "payable": false,
      "stateMutability": "nonpayable",
      "type": "constructor"
    },
    {
      "anonymous": false,
      "inputs": [
        {
          "indexed": false,
          "name": "_percent",
          "type": "uint256"
        }
      ],
      "name": "ChangePercentSuccess",
      "type": "event"
    },
    {
      "anonymous": false,
      "inputs": [
        {
          "indexed": false,
          "name": "_address",
          "type": "address"
        },
        {
          "indexed": false,
          "name": "_sorter",
          "type": "uint256"
        }
      ],
      "name": "AddMemberSuccess",
      "type": "event"
    },
    {
      "anonymous": false,
      "inputs": [
        {
          "indexed": false,
          "name": "_address",
          "type": "address"
        },
        {
          "indexed": false,
          "name": "_amount",
          "type": "uint256"
        }
      ],
      "name": "CreatedSuccess",
      "type": "event"
    },
    {
      "anonymous": false,
      "inputs": [
        {
          "indexed": false,
          "name": "_amount",
          "type": "uint256"
        }
      ],
      "name": "RemovedSuccess",
      "type": "event"
    },
    {
      "anonymous": false,
      "inputs": [
        {
          "indexed": false,
          "name": "_amount",
          "type": "uint256"
        }
      ],
      "name": "OwnerWithdrawSuccess",
      "type": "event"
    },
    {
      "anonymous": false,
      "inputs": [
        {
          "indexed": false,
          "name": "_amount",
          "type": "uint256"
        }
      ],
      "name": "OwnerDepositSuccess",
      "type": "event"
    },
    {
      "anonymous": false,
      "inputs": [
        {
          "indexed": false,
          "name": "_address",
          "type": "address"
        },
        {
          "indexed": false,
          "name": "_amount",
          "type": "uint256"
        }
      ],
      "name": "MemberWithdrawSuccess",
      "type": "event"
    },
    {
      "constant": false,
      "inputs": [
        {
          "name": "_owner",
          "type": "address"
        }
      ],
      "name": "setOwner",
      "outputs": [],
      "payable": false,
      "stateMutability": "nonpayable",
      "type": "function"
    },
    {
      "constant": false,
      "inputs": [],
      "name": "deposit",
      "outputs": [],
      "payable": true,
      "stateMutability": "payable",
      "type": "function"
    },
    {
      "constant": false,
      "inputs": [
        {
          "name": "_percent",
          "type": "uint256"
        }
      ],
      "name": "setFixedPercent",
      "outputs": [],
      "payable": false,
      "stateMutability": "nonpayable",
      "type": "function"
    },
    {
      "constant": false,
      "inputs": [
        {
          "name": "_amount",
          "type": "uint256"
        }
      ],
      "name": "ownerWithdraw",
      "outputs": [],
      "payable": true,
      "stateMutability": "payable",
      "type": "function"
    },
    {
      "constant": false,
      "inputs": [
        {
          "name": "_address",
          "type": "address"
        },
        {
          "name": "_lockedAmount",
          "type": "uint256"
        }
      ],
      "name": "createLockedAmount",
      "outputs": [],
      "payable": false,
      "stateMutability": "nonpayable",
      "type": "function"
    },
    {
      "constant": false,
      "inputs": [
        {
          "name": "_address",
          "type": "address"
        }
      ],
      "name": "updateStatus",
      "outputs": [],
      "payable": false,
      "stateMutability": "nonpayable",
      "type": "function"
    },
    {
      "constant": false,
      "inputs": [
        {
          "name": "_address",
          "type": "address"
        },
        {
          "name": "_isSpecific",
          "type": "bool"
        },
        {
          "name": "_id",
          "type": "uint256"
        }
      ],
      "name": "removeBonusAmount",
      "outputs": [],
      "payable": false,
      "stateMutability": "nonpayable",
      "type": "function"
    },
    {
      "constant": false,
      "inputs": [],
      "name": "memberWithdraw",
      "outputs": [],
      "payable": false,
      "stateMutability": "nonpayable",
      "type": "function"
    },
    {
      "constant": true,
      "inputs": [
        {
          "name": "_address",
          "type": "address"
        }
      ],
      "name": "getLockedAmount",
      "outputs": [
        {
          "name": "",
          "type": "uint256"
        }
      ],
      "payable": false,
      "stateMutability": "view",
      "type": "function"
    },
    {
      "constant": true,
      "inputs": [
        {
          "name": "_address",
          "type": "address"
        }
      ],
      "name": "getUnlockedAmount",
      "outputs": [
        {
          "name": "",
          "type": "uint256"
        }
      ],
      "payable": false,
      "stateMutability": "view",
      "type": "function"
    },
    {
      "constant": true,
      "inputs": [
        {
          "name": "_address",
          "type": "address"
        }
      ],
      "name": "getWithdrawnAmount",
      "outputs": [
        {
          "name": "",
          "type": "uint256"
        }
      ],
      "payable": false,
      "stateMutability": "view",
      "type": "function"
    },
    {
      "constant": true,
      "inputs": [
        {
          "name": "_address",
          "type": "address"
        },
        {
          "name": "_id",
          "type": "uint256"
        }
      ],
      "name": "getFixedHistory",
      "outputs": [
        {
          "name": "",
          "type": "uint256"
        },
        {
          "name": "",
          "type": "uint256"
        },
        {
          "name": "",
          "type": "uint256"
        },
        {
          "name": "",
          "type": "uint256"
        },
        {
          "name": "",
          "type": "bool"
        }
      ],
      "payable": false,
      "stateMutability": "view",
      "type": "function"
    },
    {
      "constant": true,
      "inputs": [
        {
          "name": "_address",
          "type": "address"
        },
        {
          "name": "_id",
          "type": "uint256"
        }
      ],
      "name": "getBonusHistory",
      "outputs": [
        {
          "name": "",
          "type": "uint256"
        },
        {
          "name": "",
          "type": "uint256"
        },
        {
          "name": "",
          "type": "uint256"
        },
        {
          "name": "",
          "type": "uint256"
        },
        {
          "name": "",
          "type": "bool"
        }
      ],
      "payable": false,
      "stateMutability": "view",
      "type": "function"
    },
    {
      "constant": true,
      "inputs": [
        {
          "name": "_address",
          "type": "address"
        }
      ],
      "name": "getHistoryLength",
      "outputs": [
        {
          "name": "",
          "type": "uint256"
        }
      ],
      "payable": false,
      "stateMutability": "view",
      "type": "function"
    },
    {
      "constant": true,
      "inputs": [],
      "name": "isOwner",
      "outputs": [
        {
          "name": "",
          "type": "bool"
        }
      ],
      "payable": false,
      "stateMutability": "view",
      "type": "function"
    }
  ],
  "bytecode": "0x608060405260006001556000600260006101000a81548160ff0219169083151502179055503480156200003157600080fd5b5060405160208062002e438339810180604052810190808051906020019092919050505033600260016101000a81548173ffffffffffffffffffffffffffffffffffffffff021916908373ffffffffffffffffffffffffffffffffffffffff160217905550620000b081620000d1640100000000026401000000009004565b620000ca336200018e640100000000026401000000009004565b506200031c565b600260019054906101000a900473ffffffffffffffffffffffffffffffffffffffff1673ffffffffffffffffffffffffffffffffffffffff163373ffffffffffffffffffffffffffffffffffffffff161415156200012e57600080fd5b8060001115801562000141575060648111155b15156200014d57600080fd5b806000819055507f2f30ac359ed0e20f9b98a846d1572189822c7b4ec013d704e0783115e434db27816040518082815260200191505060405180910390a150565b600460008273ffffffffffffffffffffffffffffffffffffffff1673ffffffffffffffffffffffffffffffffffffffff16815260200190815260200160002060009054906101000a900460ff16151515620001e857600080fd5b60038190806001815401808255809150509060018203906000526020600020016000909192909190916101000a81548173ffffffffffffffffffffffffffffffffffffffff021916908373ffffffffffffffffffffffffffffffffffffffff160217905550506001600460008373ffffffffffffffffffffffffffffffffffffffff1673ffffffffffffffffffffffffffffffffffffffff16815260200190815260200160002060006101000a81548160ff0219169083151502179055507fcb0a32863f19fa75ac0ffa8c4857aca955881c7dfdbd41dca2fa7895aada674881600160038054905003604051808373ffffffffffffffffffffffffffffffffffffffff1673ffffffffffffffffffffffffffffffffffffffff1681526020018281526020019250505060405180910390a150565b612b17806200032c6000396000f30060806040526004361061015f576000357c0100000000000000000000000000000000000000000000000000000000900463ffffffff16806301162b931461016457806310b20139146101a75780631127d700146101fe57806313af40351461027f5780631a39d8ef146102c25780632d70715d146102ed57806333f707d114610344578063372c12b114610364578063420d4a02146103bf578063485d383414610416578063491d00d61461044157806357698b861461046e578063781e3e57146104f25780638da5cb5b146105735780638f32d59b146105ca578063929ec537146105f9578063943b15e314610650578063944953de1461067b578063956d113b146106ff5780639a0606d01461076c578063a153e708146107b9578063a8988ce214610810578063a9cc67ab14610867578063ac69471114610892578063b14e52e8146108a9578063b913394b14610900578063d0e30db014610959575b600080fd5b34801561017057600080fd5b506101a5600480360381019080803573ffffffffffffffffffffffffffffffffffffffff169060200190929190505050610963565b005b3480156101b357600080fd5b506101e8600480360381019080803573ffffffffffffffffffffffffffffffffffffffff169060200190929190505050610fde565b6040518082815260200191505060405180910390f35b34801561020a57600080fd5b50610249600480360381019080803573ffffffffffffffffffffffffffffffffffffffff16906020019092919080359060200190929190505050610ff6565b60405180868152602001858152602001848152602001838152602001821515151581526020019550505050505060405180910390f35b34801561028b57600080fd5b506102c0600480360381019080803573ffffffffffffffffffffffffffffffffffffffff16906020019092919050505061120f565b005b3480156102ce57600080fd5b506102d76112af565b6040518082815260200191505060405180910390f35b3480156102f957600080fd5b5061032e600480360381019080803573ffffffffffffffffffffffffffffffffffffffff1690602001909291905050506112b5565b6040518082815260200191505060405180910390f35b610362600480360381019080803590602001909291905050506112fe565b005b34801561037057600080fd5b506103a5600480360381019080803573ffffffffffffffffffffffffffffffffffffffff16906020019092919050505061147b565b604051808215151515815260200191505060405180910390f35b3480156103cb57600080fd5b50610400600480360381019080803573ffffffffffffffffffffffffffffffffffffffff16906020019092919050505061149b565b6040518082815260200191505060405180910390f35b34801561042257600080fd5b5061042b6114e4565b6040518082815260200191505060405180910390f35b34801561044d57600080fd5b5061046c600480360381019080803590602001909291905050506114ec565b005b34801561047a57600080fd5b506104b9600480360381019080803573ffffffffffffffffffffffffffffffffffffffff169060200190929190803590602001909291905050506115a6565b604051808581526020018481526020018381526020018260038111156104db57fe5b60ff16815260200194505050505060405180910390f35b3480156104fe57600080fd5b5061053d600480360381019080803573ffffffffffffffffffffffffffffffffffffffff169060200190929190803590602001909291905050506115ff565b60405180868152602001858152602001848152602001838152602001821515151581526020019550505050505060405180910390f35b34801561057f57600080fd5b5061058861184e565b604051808273ffffffffffffffffffffffffffffffffffffffff1673ffffffffffffffffffffffffffffffffffffffff16815260200191505060405180910390f35b3480156105d657600080fd5b506105df611874565b604051808215151515815260200191505060405180910390f35b34801561060557600080fd5b5061063a600480360381019080803573ffffffffffffffffffffffffffffffffffffffff1690602001909291905050506118cc565b6040518082815260200191505060405180910390f35b34801561065c57600080fd5b50610665611915565b6040518082815260200191505060405180910390f35b34801561068757600080fd5b506106c6600480360381019080803573ffffffffffffffffffffffffffffffffffffffff1690602001909291908035906020019092919050505061191c565b604051808581526020018481526020018381526020018260038111156106e857fe5b60ff16815260200194505050505060405180910390f35b34801561070b57600080fd5b5061072a60048036038101908080359060200190929190505050611975565b604051808273ffffffffffffffffffffffffffffffffffffffff1673ffffffffffffffffffffffffffffffffffffffff16815260200191505060405180910390f35b34801561077857600080fd5b506107b7600480360381019080803573ffffffffffffffffffffffffffffffffffffffff169060200190929190803590602001909291905050506119b3565b005b3480156107c557600080fd5b506107fa600480360381019080803573ffffffffffffffffffffffffffffffffffffffff169060200190929190505050611bf4565b6040518082815260200191505060405180910390f35b34801561081c57600080fd5b50610851600480360381019080803573ffffffffffffffffffffffffffffffffffffffff169060200190929190505050611c0c565b6040518082815260200191505060405180910390f35b34801561087357600080fd5b5061087c611c24565b6040518082815260200191505060405180910390f35b34801561089e57600080fd5b506108a7611c2a565b005b3480156108b557600080fd5b506108ea600480360381019080803573ffffffffffffffffffffffffffffffffffffffff169060200190929190505050611ebe565b6040518082815260200191505060405180910390f35b34801561090c57600080fd5b50610957600480360381019080803573ffffffffffffffffffffffffffffffffffffffff16906020019092919080351515906020019092919080359060200190929190505050611f0a565b005b610961612116565b005b60008090505b600660008373ffffffffffffffffffffffffffffffffffffffff1673ffffffffffffffffffffffffffffffffffffffff16815260200190815260200160002080549050811015610fda57600060038111156109c057fe5b600660008473ffffffffffffffffffffffffffffffffffffffff1673ffffffffffffffffffffffffffffffffffffffff16815260200190815260200160002082815481101515610a0c57fe5b906000526020600020906004020160030160009054906101000a900460ff166003811115610a3657fe5b148015610a9f575042600660008473ffffffffffffffffffffffffffffffffffffffff1673ffffffffffffffffffffffffffffffffffffffff16815260200190815260200160002082815481101515610a8b57fe5b906000526020600020906004020160010154105b15610cc0576001600660008473ffffffffffffffffffffffffffffffffffffffff1673ffffffffffffffffffffffffffffffffffffffff16815260200190815260200160002082815481101515610af257fe5b906000526020600020906004020160030160006101000a81548160ff02191690836003811115610b1e57fe5b0217905550610bd2600660008473ffffffffffffffffffffffffffffffffffffffff1673ffffffffffffffffffffffffffffffffffffffff16815260200190815260200160002082815481101515610b7257fe5b906000526020600020906004020160020154600760008573ffffffffffffffffffffffffffffffffffffffff1673ffffffffffffffffffffffffffffffffffffffff168152602001908152602001600020546121bc90919063ffffffff16565b600760008473ffffffffffffffffffffffffffffffffffffffff1673ffffffffffffffffffffffffffffffffffffffff16815260200190815260200160002081905550600660008373ffffffffffffffffffffffffffffffffffffffff1673ffffffffffffffffffffffffffffffffffffffff16815260200190815260200160002081815481101515610c6157fe5b906000526020600020906004020160020154600860008473ffffffffffffffffffffffffffffffffffffffff1673ffffffffffffffffffffffffffffffffffffffff168152602001908152602001600020600082825401925050819055505b60006003811115610ccd57fe5b600560008473ffffffffffffffffffffffffffffffffffffffff1673ffffffffffffffffffffffffffffffffffffffff16815260200190815260200160002082815481101515610d1957fe5b906000526020600020906004020160030160009054906101000a900460ff166003811115610d4357fe5b148015610dac575042600560008473ffffffffffffffffffffffffffffffffffffffff1673ffffffffffffffffffffffffffffffffffffffff16815260200190815260200160002082815481101515610d9857fe5b906000526020600020906004020160010154105b15610fcd576001600560008473ffffffffffffffffffffffffffffffffffffffff1673ffffffffffffffffffffffffffffffffffffffff16815260200190815260200160002082815481101515610dff57fe5b906000526020600020906004020160030160006101000a81548160ff02191690836003811115610e2b57fe5b0217905550610edf600560008473ffffffffffffffffffffffffffffffffffffffff1673ffffffffffffffffffffffffffffffffffffffff16815260200190815260200160002082815481101515610e7f57fe5b906000526020600020906004020160020154600760008573ffffffffffffffffffffffffffffffffffffffff1673ffffffffffffffffffffffffffffffffffffffff168152602001908152602001600020546121bc90919063ffffffff16565b600760008473ffffffffffffffffffffffffffffffffffffffff1673ffffffffffffffffffffffffffffffffffffffff16815260200190815260200160002081905550600560008373ffffffffffffffffffffffffffffffffffffffff1673ffffffffffffffffffffffffffffffffffffffff16815260200190815260200160002081815481101515610f6e57fe5b906000526020600020906004020160020154600860008473ffffffffffffffffffffffffffffffffffffffff1673ffffffffffffffffffffffffffffffffffffffff168152602001908152602001600020600082825401925050819055505b8080600101915050610969565b5050565b60096020528060005260406000206000915090505481565b600080600080600080600080600080600560008d73ffffffffffffffffffffffffffffffffffffffff1673ffffffffffffffffffffffffffffffffffffffff168152602001908152602001600020805490508b10151561105557600080fd5b600560008d73ffffffffffffffffffffffffffffffffffffffff1673ffffffffffffffffffffffffffffffffffffffff1681526020019081526020016000208b8154811015156110a157fe5b9060005260206000209060040201600001549450600560008d73ffffffffffffffffffffffffffffffffffffffff1673ffffffffffffffffffffffffffffffffffffffff1681526020019081526020016000208b81548110151561110157fe5b9060005260206000209060040201600101549350600560008d73ffffffffffffffffffffffffffffffffffffffff1673ffffffffffffffffffffffffffffffffffffffff1681526020019081526020016000208b81548110151561116157fe5b9060005260206000209060040201600201549250600560008d73ffffffffffffffffffffffffffffffffffffffff1673ffffffffffffffffffffffffffffffffffffffff1681526020019081526020016000208b8154811015156111c157fe5b906000526020600020906004020160030160009054906101000a900460ff169150600090508484848460038111156111f557fe5b849950995099509950995050505050509295509295909350565b600260019054906101000a900473ffffffffffffffffffffffffffffffffffffffff1673ffffffffffffffffffffffffffffffffffffffff163373ffffffffffffffffffffffffffffffffffffffff1614151561126b57600080fd5b80600260016101000a81548173ffffffffffffffffffffffffffffffffffffffff021916908373ffffffffffffffffffffffffffffffffffffffff16021790555050565b60015481565b6000600960008373ffffffffffffffffffffffffffffffffffffffff1673ffffffffffffffffffffffffffffffffffffffff168152602001908152602001600020549050919050565b600260019054906101000a900473ffffffffffffffffffffffffffffffffffffffff1673ffffffffffffffffffffffffffffffffffffffff163373ffffffffffffffffffffffffffffffffffffffff1614151561135a57600080fd5b600260009054906101000a900460ff1615151561137657600080fd5b600154811115151561138757600080fd5b6001600260006101000a81548160ff0219169083151502179055506113b7816001546121bc90919063ffffffff16565b600181905550600260019054906101000a900473ffffffffffffffffffffffffffffffffffffffff1673ffffffffffffffffffffffffffffffffffffffff166108fc829081150290604051600060405180830381858888f19350505050158015611425573d6000803e3d6000fd5b507fc67a6e2c9e13b320d5ce7e24743ea93ba9261320310966dd6240569493690eff816040518082815260200191505060405180910390a16000600260006101000a81548160ff02191690831515021790555050565b60046020528060005260406000206000915054906101000a900460ff1681565b6000600860008373ffffffffffffffffffffffffffffffffffffffff1673ffffffffffffffffffffffffffffffffffffffff168152602001908152602001600020549050919050565b6301e1338081565b600260019054906101000a900473ffffffffffffffffffffffffffffffffffffffff1673ffffffffffffffffffffffffffffffffffffffff163373ffffffffffffffffffffffffffffffffffffffff1614151561154857600080fd5b8060001115801561155a575060648111155b151561156557600080fd5b806000819055507f2f30ac359ed0e20f9b98a846d1572189822c7b4ec013d704e0783115e434db27816040518082815260200191505060405180910390a150565b6005602052816000526040600020818154811015156115c157fe5b9060005260206000209060040201600091509150508060000154908060010154908060020154908060030160009054906101000a900460ff16905084565b600080600080600080600080600080600660008d73ffffffffffffffffffffffffffffffffffffffff1673ffffffffffffffffffffffffffffffffffffffff168152602001908152602001600020805490508b10151561165e57600080fd5b60009050600660008d73ffffffffffffffffffffffffffffffffffffffff1673ffffffffffffffffffffffffffffffffffffffff1681526020019081526020016000208b8154811015156116ae57fe5b9060005260206000209060040201600001549450600660008d73ffffffffffffffffffffffffffffffffffffffff1673ffffffffffffffffffffffffffffffffffffffff1681526020019081526020016000208b81548110151561170e57fe5b9060005260206000209060040201600101549350600660008d73ffffffffffffffffffffffffffffffffffffffff1673ffffffffffffffffffffffffffffffffffffffff1681526020019081526020016000208b81548110151561176e57fe5b9060005260206000209060040201600201549250600660008d73ffffffffffffffffffffffffffffffffffffffff1673ffffffffffffffffffffffffffffffffffffffff1681526020019081526020016000208b8154811015156117ce57fe5b906000526020600020906004020160030160009054906101000a900460ff1691506000831115611825576000600381111561180557fe5b82600381111561181157fe5b14801561182257504262ed4e008601115b90505b84848484600381111561183457fe5b849950995099509950995050505050509295509295909350565b600260019054906101000a900473ffffffffffffffffffffffffffffffffffffffff1681565b6000600260019054906101000a900473ffffffffffffffffffffffffffffffffffffffff1673ffffffffffffffffffffffffffffffffffffffff163373ffffffffffffffffffffffffffffffffffffffff1614905090565b6000600760008373ffffffffffffffffffffffffffffffffffffffff1673ffffffffffffffffffffffffffffffffffffffff168152602001908152602001600020549050919050565b62ed4e0081565b60066020528160005260406000208181548110151561193757fe5b9060005260206000209060040201600091509150508060000154908060010154908060020154908060030160009054906101000a900460ff16905084565b60038181548110151561198457fe5b906000526020600020016000915054906101000a900473ffffffffffffffffffffffffffffffffffffffff1681565b600080600260019054906101000a900473ffffffffffffffffffffffffffffffffffffffff1673ffffffffffffffffffffffffffffffffffffffff163373ffffffffffffffffffffffffffffffffffffffff16141515611a1257600080fd5b6001548311151515611a2357600080fd5b600460008573ffffffffffffffffffffffffffffffffffffffff1673ffffffffffffffffffffffffffffffffffffffff16815260200190815260200160002060009054906101000a900460ff161515611a8057611a7f846121d5565b5b611aa86064611a9a6000548661236290919063ffffffff16565b61239590919063ffffffff16565b9150611abd82846121bc90919063ffffffff16565b9050611ac984836123b0565b611ad384826124a8565b611ae8836001546121bc90919063ffffffff16565b600181905550611b4083600760008773ffffffffffffffffffffffffffffffffffffffff1673ffffffffffffffffffffffffffffffffffffffff168152602001908152602001600020546125a090919063ffffffff16565b600760008673ffffffffffffffffffffffffffffffffffffffff1673ffffffffffffffffffffffffffffffffffffffff168152602001908152602001600020819055507f0af5b4bb4bde1ba8d1310c81bc038775802dd1fc8610862258145f44632f08aa8484604051808373ffffffffffffffffffffffffffffffffffffffff1673ffffffffffffffffffffffffffffffffffffffff1681526020018281526020019250505060405180910390a150505050565b60076020528060005260406000206000915090505481565b60086020528060005260406000206000915090505481565b60005481565b6000600460003373ffffffffffffffffffffffffffffffffffffffff1673ffffffffffffffffffffffffffffffffffffffff16815260200190815260200160002060009054906101000a900460ff161515611c8457600080fd5b600860003373ffffffffffffffffffffffffffffffffffffffff1673ffffffffffffffffffffffffffffffffffffffff168152602001908152602001600020549050600081111515611cd557600080fd5b600260009054906101000a900460ff16151515611cf157600080fd5b6001600260006101000a81548160ff021916908315150217905550611d5e81600960003373ffffffffffffffffffffffffffffffffffffffff1673ffffffffffffffffffffffffffffffffffffffff168152602001908152602001600020546125a090919063ffffffff16565b600960003373ffffffffffffffffffffffffffffffffffffffff1673ffffffffffffffffffffffffffffffffffffffff168152602001908152602001600020819055506000600860003373ffffffffffffffffffffffffffffffffffffffff1673ffffffffffffffffffffffffffffffffffffffff16815260200190815260200160002081905550611dee6125be565b3373ffffffffffffffffffffffffffffffffffffffff166108fc829081150290604051600060405180830381858888f19350505050158015611e34573d6000803e3d6000fd5b506000600260006101000a81548160ff0219169083151502179055507f8141602dfea6211bce1de52d5b4ea2acbcee367345f53fd43dcb1380245b07ef3382604051808373ffffffffffffffffffffffffffffffffffffffff1673ffffffffffffffffffffffffffffffffffffffff1681526020018281526020019250505060405180910390a150565b6000600560008373ffffffffffffffffffffffffffffffffffffffff1673ffffffffffffffffffffffffffffffffffffffff168152602001908152602001600020805490509050919050565b600080600260019054906101000a900473ffffffffffffffffffffffffffffffffffffffff1673ffffffffffffffffffffffffffffffffffffffff163373ffffffffffffffffffffffffffffffffffffffff16141515611f6957600080fd5b600460008673ffffffffffffffffffffffffffffffffffffffff1673ffffffffffffffffffffffffffffffffffffffff16815260200190815260200160002060009054906101000a900460ff161515611fc157600080fd5b60009150611fce85610963565b831561204257826000111580156120265750600660008673ffffffffffffffffffffffffffffffffffffffff1673ffffffffffffffffffffffffffffffffffffffff1681526020019081526020016000208054905083105b151561203157600080fd5b61203b8584612836565b91506120bd565b600090505b600660008673ffffffffffffffffffffffffffffffffffffffff1673ffffffffffffffffffffffffffffffffffffffff168152602001908152602001600020805490508110156120bc576120ad61209e8683612836565b836125a090919063ffffffff16565b91508080600101915050612047565b5b6120d2826001546125a090919063ffffffff16565b6001819055507f66666578c836dc01e1a47b3552eae6199e273c425f03e253aa358f69fc187cbe826040518082815260200191505060405180910390a15050505050565b600260009054906101000a900460ff1615151561213257600080fd5b6001600260006101000a81548160ff021916908315150217905550612162346001546125a090919063ffffffff16565b6001819055507ff00085b2990817babd1586c95bf38c55ad05f237b6751cbe08b8a45b7a852e21346040518082815260200191505060405180910390a16000600260006101000a81548160ff021916908315150217905550565b60008282111515156121ca57fe5b818303905092915050565b600460008273ffffffffffffffffffffffffffffffffffffffff1673ffffffffffffffffffffffffffffffffffffffff16815260200190815260200160002060009054906101000a900460ff1615151561222e57600080fd5b60038190806001815401808255809150509060018203906000526020600020016000909192909190916101000a81548173ffffffffffffffffffffffffffffffffffffffff021916908373ffffffffffffffffffffffffffffffffffffffff160217905550506001600460008373ffffffffffffffffffffffffffffffffffffffff1673ffffffffffffffffffffffffffffffffffffffff16815260200190815260200160002060006101000a81548160ff0219169083151502179055507fcb0a32863f19fa75ac0ffa8c4857aca955881c7dfdbd41dca2fa7895aada674881600160038054905003604051808373ffffffffffffffffffffffffffffffffffffffff1673ffffffffffffffffffffffffffffffffffffffff1681526020018281526020019250505060405180910390a150565b60008082840290506000841480612383575082848281151561238057fe5b04145b151561238b57fe5b8091505092915050565b60008082848115156123a357fe5b0490508091505092915050565b6123b8612ab7565b6080604051908101604052804281526020016301e1338042018152602001838152602001600060038111156123e957fe5b8152509050600560008473ffffffffffffffffffffffffffffffffffffffff1673ffffffffffffffffffffffffffffffffffffffff168152602001908152602001600020819080600181540180825580915050906001820390600052602060002090600402016000909192909190915060008201518160000155602082015181600101556040820151816002015560608201518160030160006101000a81548160ff0219169083600381111561249b57fe5b0217905550505050505050565b6124b0612ab7565b6080604051908101604052804281526020016301e1338042018152602001838152602001600060038111156124e157fe5b8152509050600660008473ffffffffffffffffffffffffffffffffffffffff1673ffffffffffffffffffffffffffffffffffffffff168152602001908152602001600020819080600181540180825580915050906001820390600052602060002090600402016000909192909190915060008201518160000155602082015181600101556040820151816002015560608201518160030160006101000a81548160ff0219169083600381111561259357fe5b0217905550505050505050565b60008082840190508381101515156125b457fe5b8091505092915050565b600080339150600090505b600660008373ffffffffffffffffffffffffffffffffffffffff1673ffffffffffffffffffffffffffffffffffffffff16815260200190815260200160002080549050811015612832576001600381111561262057fe5b600660008473ffffffffffffffffffffffffffffffffffffffff1673ffffffffffffffffffffffffffffffffffffffff1681526020019081526020016000208281548110151561266c57fe5b906000526020600020906004020160030160009054906101000a900460ff16600381111561269657fe5b141561271c576002600660008473ffffffffffffffffffffffffffffffffffffffff1673ffffffffffffffffffffffffffffffffffffffff168152602001908152602001600020828154811015156126ea57fe5b906000526020600020906004020160030160006101000a81548160ff0219169083600381111561271657fe5b02179055505b6001600381111561272957fe5b600560008473ffffffffffffffffffffffffffffffffffffffff1673ffffffffffffffffffffffffffffffffffffffff1681526020019081526020016000208281548110151561277557fe5b906000526020600020906004020160030160009054906101000a900460ff16600381111561279f57fe5b1415612825576002600560008473ffffffffffffffffffffffffffffffffffffffff1673ffffffffffffffffffffffffffffffffffffffff168152602001908152602001600020828154811015156127f357fe5b906000526020600020906004020160030160006101000a81548160ff0219169083600381111561281f57fe5b02179055505b80806001019150506125c9565b5050565b6000806000600381111561284657fe5b600660008673ffffffffffffffffffffffffffffffffffffffff1673ffffffffffffffffffffffffffffffffffffffff1681526020019081526020016000208481548110151561289257fe5b906000526020600020906004020160030160009054906101000a900460ff1660038111156128bc57fe5b14801561292a57504262ed4e00600660008773ffffffffffffffffffffffffffffffffffffffff1673ffffffffffffffffffffffffffffffffffffffff1681526020019081526020016000208581548110151561291557fe5b90600052602060002090600402016000015401115b15612aab57600660008573ffffffffffffffffffffffffffffffffffffffff1673ffffffffffffffffffffffffffffffffffffffff1681526020019081526020016000208381548110151561297b57fe5b90600052602060002090600402016002015490506003600660008673ffffffffffffffffffffffffffffffffffffffff1673ffffffffffffffffffffffffffffffffffffffff168152602001908152602001600020848154811015156129dd57fe5b906000526020600020906004020160030160006101000a81548160ff02191690836003811115612a0957fe5b0217905550612a6081600760008773ffffffffffffffffffffffffffffffffffffffff1673ffffffffffffffffffffffffffffffffffffffff168152602001908152602001600020546121bc90919063ffffffff16565b600760008673ffffffffffffffffffffffffffffffffffffffff1673ffffffffffffffffffffffffffffffffffffffff16815260200190815260200160002081905550809150612ab0565b600091505b5092915050565b60806040519081016040528060008152602001600081526020016000815260200160006003811115612ae557fe5b815250905600a165627a7a7230582065fb0e4e5270796f646ce3f3a08235566fed4ad7b04a449df882ed4c4939ece00029",
  "source": "pragma solidity ^0.4.23;\r\n\r\nimport './SafeMath.sol';\r\n\r\ncontract NextyBonus {\r\n    using SafeMath for uint256;\r\n    \r\n    uint256 public constant BONUS_REMOVEALBE_DURATION= 180*24*60*60; // 180 days in second\r\n    uint256 public constant LOCK_DURATION= 365*24*60*60; // 365 days in second\r\n    \r\n    uint256 public FIXED_PERCENT; //not constant\r\n    uint256 public totalAmount= 0;\r\n    \r\n    bool reEntrancyMutex = false;\r\n    \r\n    enum StatusType {\r\n        Locked,\r\n        Unlocked,\r\n        Withdrawn,\r\n        Removed     //Bonus amount only\r\n    }\r\n\r\n    struct LockAtribute {\r\n        uint256 startTime;\r\n        uint256 endTime;\r\n        uint256 value;\r\n        StatusType lockStatus;\r\n    }\r\n    \r\n    address public owner;\r\n    \r\n    address[] public member;\r\n    \r\n    mapping(address => bool) public whiteList;\r\n    \r\n    mapping(address => LockAtribute[]) public fixedAmount;\r\n    mapping(address => LockAtribute[]) public bonusAmount;\r\n    mapping(address => uint256) public lockedAmount;\r\n    mapping(address => uint256) public unlockedAmount;\r\n    mapping(address => uint256) public withdrawnAmount;\r\n    \r\n    //Modifiers\r\n\r\n    modifier onlyOwner() {\r\n        require(msg.sender == owner);\r\n        _;\r\n    }\r\n    \r\n    modifier onlyMember() {\r\n        require(whiteList[msg.sender]);\r\n        _;\r\n    }\r\n    \r\n    //Owners Events\r\n\r\n    event ChangePercentSuccess(uint256 _percent);\r\n    event AddMemberSuccess(address _address, uint256 _sorter);\r\n    event CreatedSuccess(address _address, uint256 _amount);\r\n    event RemovedSuccess(uint256 _amount);\r\n    event OwnerWithdrawSuccess(uint256 _amount);\r\n    event OwnerDepositSuccess(uint256 _amount);\r\n\r\n    //Members Events\r\n    \r\n    event MemberWithdrawSuccess(address _address, uint256 _amount);\r\n    \r\n    //Owner's Functions\r\n\r\n    constructor (uint256 _percent) public{ \r\n        owner = msg.sender;\r\n        setFixedPercent(_percent);\r\n        addMember(msg.sender); // owner at 1st place in the member array\r\n    }\r\n\r\n    function setOwner(address _owner) public onlyOwner {\r\n        owner = _owner;\r\n    }\r\n\r\n    function deposit() public payable {\r\n        require (!reEntrancyMutex);\r\n        reEntrancyMutex = true; \r\n        totalAmount = totalAmount.add(msg.value);\r\n        emit OwnerDepositSuccess(msg.value);\r\n        reEntrancyMutex = false; \r\n    }\r\n    \r\n    function setFixedPercent(uint256 _percent) public onlyOwner {\r\n        require((0 <= _percent) && (_percent <= 100));\r\n        FIXED_PERCENT = _percent;\r\n        emit ChangePercentSuccess(_percent);\r\n    }\r\n    \r\n    function ownerWithdraw(uint256 _amount) public onlyOwner payable {\r\n        require(!reEntrancyMutex);\r\n        require(_amount <= totalAmount);\r\n        reEntrancyMutex = true;\r\n        totalAmount = totalAmount.sub(_amount);\r\n        owner.transfer(_amount);\r\n        emit OwnerWithdrawSuccess(_amount);\r\n        reEntrancyMutex = false;\r\n    }\r\n    \r\n    function addMember(address _address) private {\r\n        require(!whiteList[_address]);\r\n        member.push(_address);\r\n        whiteList[_address] = true;\r\n        emit AddMemberSuccess(_address, member.length-1);\r\n    }\r\n    \r\n    function createFixedAmount(address _address, uint256 _fixedAmount) private {\r\n        \r\n        LockAtribute memory _fixed = LockAtribute({\r\n            startTime: now,\r\n            endTime: now + LOCK_DURATION,\r\n            value: _fixedAmount,\r\n            lockStatus: StatusType.Locked\r\n        });\r\n        \r\n        fixedAmount[_address].push(_fixed);\r\n    }\r\n    \r\n    function createBonusAmount(address _address, uint256 _bonusAmount) private {\r\n        \r\n        LockAtribute memory _bonus = LockAtribute({\r\n            startTime: now,\r\n            endTime: now + LOCK_DURATION,\r\n            value: _bonusAmount,\r\n            lockStatus: StatusType.Locked\r\n        });\r\n        \r\n        bonusAmount[_address].push(_bonus);\r\n    }\r\n    \r\n    function createLockedAmount(address _address, uint256 _lockedAmount) public onlyOwner {\r\n        require(_lockedAmount <= totalAmount);\r\n\r\n        if (!whiteList[_address]) addMember(_address);\r\n\r\n        uint256 _fixedAmount = _lockedAmount.mul(FIXED_PERCENT).div(100);\r\n        uint256 _bonusAmount = _lockedAmount.sub(_fixedAmount);\r\n        \r\n        createFixedAmount(_address, _fixedAmount);\r\n        createBonusAmount(_address, _bonusAmount);\r\n        \r\n        totalAmount = totalAmount.sub(_lockedAmount);\r\n        lockedAmount[_address] = lockedAmount[_address].add(_lockedAmount);\r\n        emit CreatedSuccess(_address, _lockedAmount);\r\n    }\r\n    \r\n    function updateStatus(address _address) public {\r\n        for (uint256 i = 0; i < bonusAmount[_address].length; i++) {\r\n            if ((bonusAmount[_address][i].lockStatus == StatusType.Locked) && \r\n                (bonusAmount[_address][i].endTime < now)) {\r\n\r\n                bonusAmount[_address][i].lockStatus = StatusType.Unlocked;\r\n                lockedAmount[_address] = lockedAmount[_address].sub(bonusAmount[_address][i].value);\r\n                unlockedAmount[_address] += bonusAmount[_address][i].value;\r\n            }\r\n            \r\n            if ((fixedAmount[_address][i].lockStatus == StatusType.Locked) && \r\n                (fixedAmount[_address][i].endTime < now)) {\r\n\r\n                fixedAmount[_address][i].lockStatus = StatusType.Unlocked;\r\n                lockedAmount[_address] = lockedAmount[_address].sub(fixedAmount[_address][i].value);\r\n                unlockedAmount[_address] += fixedAmount[_address][i].value;\r\n            }\r\n        }\r\n    }\r\n    \r\n    function removeSpecificBonusAmount(address _address, uint256 _id) private returns(uint256) {\r\n        //if still removeable, remove and add amount into totalAmount    \r\n        if ((bonusAmount[_address][_id].lockStatus == StatusType.Locked) && \r\n            (bonusAmount[_address][_id].startTime + BONUS_REMOVEALBE_DURATION > now)) {\r\n\r\n            uint256 value = bonusAmount[_address][_id].value;\r\n            bonusAmount[_address][_id].lockStatus = StatusType.Removed;\r\n            lockedAmount[_address] = lockedAmount[_address].sub(value);\r\n            return value;\r\n        }\r\n        return 0;\r\n    }\r\n    \r\n    function removeBonusAmount(address _address, bool _isSpecific, uint256 _id) public onlyOwner {\r\n        require(whiteList[_address]);\r\n        uint256 removedAmount = 0;\r\n        updateStatus(_address);\r\n        \r\n        if (_isSpecific) {\r\n            require((0 <= _id) && (_id <  bonusAmount[_address].length));\r\n            removedAmount = removeSpecificBonusAmount(_address, _id);\r\n        } else {\r\n            // remove all bonusAmount => search all bonusAmount sent to this _address\r\n            for (uint256 i = 0; i< bonusAmount[_address].length; i++) {\r\n                removedAmount = removedAmount.add(removeSpecificBonusAmount(_address, i));\r\n            }\r\n        }\r\n\r\n        totalAmount = totalAmount.add(removedAmount);\r\n        emit RemovedSuccess(removedAmount);\r\n    }\r\n    \r\n    //Members Functions\r\n    \r\n    function setUnlockedToWithdrawn() private {\r\n        address _address = msg.sender;\r\n        for (uint256 i = 0; i < bonusAmount[_address].length; i++) {\r\n            //if Unlocked\r\n            if (bonusAmount[_address][i].lockStatus == StatusType.Unlocked) {\r\n                bonusAmount[_address][i].lockStatus = StatusType.Withdrawn;\r\n            }\r\n            \r\n            if (fixedAmount[_address][i].lockStatus == StatusType.Unlocked) {\r\n                fixedAmount[_address][i].lockStatus = StatusType.Withdrawn;\r\n            }\r\n        }\r\n    }\r\n    \r\n    function memberWithdraw() onlyMember public {\r\n        uint256 amount = unlockedAmount[msg.sender]; // Withdraw amount\r\n        require(amount > 0);  \r\n        require(!reEntrancyMutex);\r\n        reEntrancyMutex = true;\r\n        \r\n        withdrawnAmount[msg.sender] = withdrawnAmount[msg.sender].add(amount);\r\n        unlockedAmount[msg.sender] = 0;\r\n        setUnlockedToWithdrawn();\r\n        msg.sender.transfer(amount);\r\n\r\n        reEntrancyMutex = false; \r\n        emit MemberWithdrawSuccess(msg.sender, amount);\r\n    }\r\n    \r\n    //Public Functions\r\n\r\n    function getLockedAmount(address _address) public view returns(uint256) {\r\n        return lockedAmount[_address];\r\n    }\r\n    \r\n    function getUnlockedAmount(address _address) public view returns(uint256) {\r\n        return unlockedAmount[_address];\r\n    }\r\n    \r\n    function getWithdrawnAmount(address _address) public view returns(uint256) {\r\n        return withdrawnAmount[_address];\r\n    }\r\n    \r\n    function getFixedHistory(address _address, uint256 _id) public view returns(uint256, uint256, uint256, uint256, bool){\r\n        require(_id < fixedAmount[_address].length);\r\n        \r\n        uint256  startTime;\r\n        uint256 endTime;\r\n        uint256  value;\r\n        StatusType  lockStatus;\r\n        bool removeable;\r\n        \r\n        startTime = fixedAmount[_address][_id].startTime;\r\n        endTime = fixedAmount[_address][_id].endTime;\r\n        value = fixedAmount[_address][_id].value;\r\n        lockStatus = fixedAmount[_address][_id].lockStatus;\r\n        removeable = false;\r\n        \r\n        return (startTime, endTime, value, uint256(lockStatus), removeable);\r\n    }\r\n    \r\n    function getBonusHistory(address _address, uint256 _id) public view returns(uint256, uint256, uint256, uint256, bool){\r\n        require(_id < bonusAmount[_address].length);\r\n        uint256  startTime;\r\n        uint256 endTime;\r\n        uint256  value;\r\n        StatusType  lockStatus;\r\n        bool removeable = false;\r\n        \r\n        startTime = bonusAmount[_address][_id].startTime;\r\n        endTime = bonusAmount[_address][_id].endTime;\r\n        value = bonusAmount[_address][_id].value;\r\n        lockStatus = bonusAmount[_address][_id].lockStatus;\r\n        if (value > 0)\r\n        removeable = ((lockStatus == StatusType.Locked) && (startTime + BONUS_REMOVEALBE_DURATION > now));\r\n        \r\n        return (startTime, endTime, value, uint256(lockStatus), removeable);\r\n    }\r\n\r\n    function getHistoryLength(address _address) public view returns(uint256){\r\n        return fixedAmount[_address].length;\r\n    }\r\n\r\n    function isOwner() public view returns(bool) {\r\n        return (msg.sender == owner);\r\n    }\r\n    \r\n}",
  "sourcePath": "C:\\Users\\bestb\\Desktop\\Dapps\\nexty\\NextyBonus\\contracts\\NextyBonus.sol",
  "compiler": {
    "name": "solc",
    "version": "0.4.24+commit.e67f0147.Emscripten.clang"
  },
  "schemaVersion": "2.0.1",
  "updatedAt": "2018-10-20T05:18:20.233Z"
}