{
  "contractName": "NextyBonus",
  "abi": [
    {
      "constant": true,
      "inputs": [
        {
          "name": "",
          "type": "address"
        }
      ],
      "name": "withdrawnAmount",
      "outputs": [
        {
          "name": "",
          "type": "uint256"
        }
      ],
      "payable": false,
      "stateMutability": "view",
      "type": "function"
    },
    {
      "constant": true,
      "inputs": [],
      "name": "totalAmount",
      "outputs": [
        {
          "name": "",
          "type": "uint256"
        }
      ],
      "payable": false,
      "stateMutability": "view",
      "type": "function"
    },
    {
      "constant": true,
      "inputs": [
        {
          "name": "",
          "type": "address"
        }
      ],
      "name": "whiteList",
      "outputs": [
        {
          "name": "",
          "type": "bool"
        }
      ],
      "payable": false,
      "stateMutability": "view",
      "type": "function"
    },
    {
      "constant": true,
      "inputs": [],
      "name": "LOCK_DURATION",
      "outputs": [
        {
          "name": "",
          "type": "uint256"
        }
      ],
      "payable": false,
      "stateMutability": "view",
      "type": "function"
    },
    {
      "constant": true,
      "inputs": [
        {
          "name": "",
          "type": "address"
        },
        {
          "name": "",
          "type": "uint256"
        }
      ],
      "name": "fixedAmount",
      "outputs": [
        {
          "name": "time",
          "type": "uint256"
        },
        {
          "name": "endTime",
          "type": "uint256"
        },
        {
          "name": "value",
          "type": "uint256"
        },
        {
          "name": "lockStatus",
          "type": "uint8"
        }
      ],
      "payable": false,
      "stateMutability": "view",
      "type": "function"
    },
    {
      "constant": true,
      "inputs": [],
      "name": "owner",
      "outputs": [
        {
          "name": "",
          "type": "address"
        }
      ],
      "payable": false,
      "stateMutability": "view",
      "type": "function"
    },
    {
      "constant": true,
      "inputs": [],
      "name": "BONUS_REMOVEALBE_DURATION",
      "outputs": [
        {
          "name": "",
          "type": "uint256"
        }
      ],
      "payable": false,
      "stateMutability": "view",
      "type": "function"
    },
    {
      "constant": true,
      "inputs": [
        {
          "name": "",
          "type": "address"
        },
        {
          "name": "",
          "type": "uint256"
        }
      ],
      "name": "bonusAmount",
      "outputs": [
        {
          "name": "time",
          "type": "uint256"
        },
        {
          "name": "endTime",
          "type": "uint256"
        },
        {
          "name": "value",
          "type": "uint256"
        },
        {
          "name": "lockStatus",
          "type": "uint8"
        }
      ],
      "payable": false,
      "stateMutability": "view",
      "type": "function"
    },
    {
      "constant": true,
      "inputs": [
        {
          "name": "",
          "type": "uint256"
        }
      ],
      "name": "member",
      "outputs": [
        {
          "name": "",
          "type": "address"
        }
      ],
      "payable": false,
      "stateMutability": "view",
      "type": "function"
    },
    {
      "constant": true,
      "inputs": [
        {
          "name": "",
          "type": "address"
        }
      ],
      "name": "lockedAmount",
      "outputs": [
        {
          "name": "",
          "type": "uint256"
        }
      ],
      "payable": false,
      "stateMutability": "view",
      "type": "function"
    },
    {
      "constant": true,
      "inputs": [
        {
          "name": "",
          "type": "address"
        }
      ],
      "name": "unlockedAmount",
      "outputs": [
        {
          "name": "",
          "type": "uint256"
        }
      ],
      "payable": false,
      "stateMutability": "view",
      "type": "function"
    },
    {
      "constant": true,
      "inputs": [],
      "name": "FIXED_PERCENT",
      "outputs": [
        {
          "name": "",
          "type": "uint256"
        }
      ],
      "payable": false,
      "stateMutability": "view",
      "type": "function"
    },
    {
      "inputs": [
        {
          "name": "_percent",
          "type": "uint256"
        }
      ],
      "payable": false,
      "stateMutability": "nonpayable",
      "type": "constructor"
    },
    {
      "anonymous": false,
      "inputs": [
        {
          "indexed": false,
          "name": "_percent",
          "type": "uint256"
        }
      ],
      "name": "ChangePercentSuccess",
      "type": "event"
    },
    {
      "anonymous": false,
      "inputs": [
        {
          "indexed": false,
          "name": "_address",
          "type": "address"
        },
        {
          "indexed": false,
          "name": "_sorter",
          "type": "uint256"
        }
      ],
      "name": "AddMemberSuccess",
      "type": "event"
    },
    {
      "anonymous": false,
      "inputs": [
        {
          "indexed": false,
          "name": "_address",
          "type": "address"
        },
        {
          "indexed": false,
          "name": "_amount",
          "type": "uint256"
        }
      ],
      "name": "CreatedSuccess",
      "type": "event"
    },
    {
      "anonymous": false,
      "inputs": [
        {
          "indexed": false,
          "name": "_amount",
          "type": "uint256"
        }
      ],
      "name": "RemovedSuccess",
      "type": "event"
    },
    {
      "anonymous": false,
      "inputs": [
        {
          "indexed": false,
          "name": "_amount",
          "type": "uint256"
        }
      ],
      "name": "OwnerWithdrawSuccess",
      "type": "event"
    },
    {
      "anonymous": false,
      "inputs": [
        {
          "indexed": false,
          "name": "_amount",
          "type": "uint256"
        }
      ],
      "name": "OwnerDepositSuccess",
      "type": "event"
    },
    {
      "anonymous": false,
      "inputs": [
        {
          "indexed": false,
          "name": "_address",
          "type": "address"
        },
        {
          "indexed": false,
          "name": "_amount",
          "type": "uint256"
        }
      ],
      "name": "MemberWithdrawSuccess",
      "type": "event"
    },
    {
      "constant": false,
      "inputs": [],
      "name": "deposit",
      "outputs": [],
      "payable": true,
      "stateMutability": "payable",
      "type": "function"
    },
    {
      "constant": false,
      "inputs": [
        {
          "name": "_percent",
          "type": "uint256"
        }
      ],
      "name": "setFixedPercent",
      "outputs": [],
      "payable": false,
      "stateMutability": "nonpayable",
      "type": "function"
    },
    {
      "constant": false,
      "inputs": [
        {
          "name": "_amount",
          "type": "uint256"
        }
      ],
      "name": "ownerWithdraw",
      "outputs": [],
      "payable": true,
      "stateMutability": "payable",
      "type": "function"
    },
    {
      "constant": false,
      "inputs": [
        {
          "name": "_address",
          "type": "address"
        },
        {
          "name": "_amount",
          "type": "uint256"
        },
        {
          "name": "_fixedPercent",
          "type": "uint256"
        }
      ],
      "name": "createLockedAmount",
      "outputs": [],
      "payable": false,
      "stateMutability": "nonpayable",
      "type": "function"
    },
    {
      "constant": false,
      "inputs": [
        {
          "name": "_address",
          "type": "address"
        }
      ],
      "name": "updateStatus",
      "outputs": [],
      "payable": false,
      "stateMutability": "nonpayable",
      "type": "function"
    },
    {
      "constant": false,
      "inputs": [
        {
          "name": "_address",
          "type": "address"
        },
        {
          "name": "_isSpecific",
          "type": "bool"
        },
        {
          "name": "_amountId",
          "type": "uint256"
        }
      ],
      "name": "removeBonusAmount",
      "outputs": [],
      "payable": false,
      "stateMutability": "nonpayable",
      "type": "function"
    },
    {
      "constant": false,
      "inputs": [],
      "name": "memberWithdraw",
      "outputs": [],
      "payable": false,
      "stateMutability": "nonpayable",
      "type": "function"
    },
    {
      "constant": true,
      "inputs": [
        {
          "name": "_address",
          "type": "address"
        }
      ],
      "name": "getLockedAmount",
      "outputs": [
        {
          "name": "",
          "type": "uint256"
        }
      ],
      "payable": false,
      "stateMutability": "view",
      "type": "function"
    },
    {
      "constant": true,
      "inputs": [
        {
          "name": "_address",
          "type": "address"
        }
      ],
      "name": "getUnlockedAmount",
      "outputs": [
        {
          "name": "",
          "type": "uint256"
        }
      ],
      "payable": false,
      "stateMutability": "view",
      "type": "function"
    },
    {
      "constant": true,
      "inputs": [
        {
          "name": "_address",
          "type": "address"
        }
      ],
      "name": "getWithdrawnAmount",
      "outputs": [
        {
          "name": "",
          "type": "uint256"
        }
      ],
      "payable": false,
      "stateMutability": "view",
      "type": "function"
    },
    {
      "constant": true,
      "inputs": [
        {
          "name": "_address",
          "type": "address"
        },
        {
          "name": "i",
          "type": "uint256"
        }
      ],
      "name": "getFixedHistory",
      "outputs": [
        {
          "name": "",
          "type": "uint256"
        },
        {
          "name": "",
          "type": "uint256"
        },
        {
          "name": "",
          "type": "uint256"
        },
        {
          "name": "",
          "type": "uint256"
        },
        {
          "name": "",
          "type": "bool"
        }
      ],
      "payable": false,
      "stateMutability": "view",
      "type": "function"
    },
    {
      "constant": true,
      "inputs": [
        {
          "name": "_address",
          "type": "address"
        },
        {
          "name": "i",
          "type": "uint256"
        }
      ],
      "name": "getBonusHistory",
      "outputs": [
        {
          "name": "",
          "type": "uint256"
        },
        {
          "name": "",
          "type": "uint256"
        },
        {
          "name": "",
          "type": "uint256"
        },
        {
          "name": "",
          "type": "uint256"
        },
        {
          "name": "",
          "type": "bool"
        }
      ],
      "payable": false,
      "stateMutability": "view",
      "type": "function"
    },
    {
      "constant": true,
      "inputs": [
        {
          "name": "_address",
          "type": "address"
        }
      ],
      "name": "getHistoryLength",
      "outputs": [
        {
          "name": "",
          "type": "uint256"
        }
      ],
      "payable": false,
      "stateMutability": "view",
      "type": "function"
    },
    {
      "constant": true,
      "inputs": [],
      "name": "isOwner",
      "outputs": [
        {
          "name": "",
          "type": "bool"
        }
      ],
      "payable": false,
      "stateMutability": "view",
      "type": "function"
    }
  ],
  "bytecode": "0x608060405260006001556000600260006101000a81548160ff0219169083151502179055503480156200003157600080fd5b5060405160208062002d6f8339810180604052810190808051906020019092919050505033600260016101000a81548173ffffffffffffffffffffffffffffffffffffffff021916908373ffffffffffffffffffffffffffffffffffffffff160217905550620000b081620000d1640100000000026401000000009004565b620000ca336200018e640100000000026401000000009004565b506200031c565b600260019054906101000a900473ffffffffffffffffffffffffffffffffffffffff1673ffffffffffffffffffffffffffffffffffffffff163373ffffffffffffffffffffffffffffffffffffffff161415156200012e57600080fd5b8060001115801562000141575060648111155b15156200014d57600080fd5b806000819055507f2f30ac359ed0e20f9b98a846d1572189822c7b4ec013d704e0783115e434db27816040518082815260200191505060405180910390a150565b600460008273ffffffffffffffffffffffffffffffffffffffff1673ffffffffffffffffffffffffffffffffffffffff16815260200190815260200160002060009054906101000a900460ff16151515620001e857600080fd5b60038190806001815401808255809150509060018203906000526020600020016000909192909190916101000a81548173ffffffffffffffffffffffffffffffffffffffff021916908373ffffffffffffffffffffffffffffffffffffffff160217905550506001600460008373ffffffffffffffffffffffffffffffffffffffff1673ffffffffffffffffffffffffffffffffffffffff16815260200190815260200160002060006101000a81548160ff0219169083151502179055507fcb0a32863f19fa75ac0ffa8c4857aca955881c7dfdbd41dca2fa7895aada674881600160038054905003604051808373ffffffffffffffffffffffffffffffffffffffff1673ffffffffffffffffffffffffffffffffffffffff1681526020018281526020019250505060405180910390a150565b612a43806200032c6000396000f300608060405260043610610154576000357c0100000000000000000000000000000000000000000000000000000000900463ffffffff16806301162b931461015957806310b201391461019c5780631127d700146101f35780631a39d8ef146102745780632d70715d1461029f57806333f707d1146102f6578063372c12b114610316578063420d4a0214610371578063485d3834146103c8578063491d00d6146103f357806357698b8614610420578063781e3e57146104a45780638da5cb5b146105255780638f32d59b1461057c578063929ec537146105ab578063943b15e314610602578063944953de1461062d578063956d113b146106b1578063995e41331461071e578063a153e70814610775578063a8988ce2146107cc578063a9cc67ab14610823578063ac6947111461084e578063b14e52e814610865578063b913394b146108bc578063d0e30db014610915575b600080fd5b34801561016557600080fd5b5061019a600480360381019080803573ffffffffffffffffffffffffffffffffffffffff16906020019092919050505061091f565b005b3480156101a857600080fd5b506101dd600480360381019080803573ffffffffffffffffffffffffffffffffffffffff169060200190929190505050610f9a565b6040518082815260200191505060405180910390f35b3480156101ff57600080fd5b5061023e600480360381019080803573ffffffffffffffffffffffffffffffffffffffff16906020019092919080359060200190929190505050610fb2565b60405180868152602001858152602001848152602001838152602001821515151581526020019550505050505060405180910390f35b34801561028057600080fd5b506102896111cb565b6040518082815260200191505060405180910390f35b3480156102ab57600080fd5b506102e0600480360381019080803573ffffffffffffffffffffffffffffffffffffffff1690602001909291905050506111d1565b6040518082815260200191505060405180910390f35b6103146004803603810190808035906020019092919050505061121a565b005b34801561032257600080fd5b50610357600480360381019080803573ffffffffffffffffffffffffffffffffffffffff169060200190929190505050611397565b604051808215151515815260200191505060405180910390f35b34801561037d57600080fd5b506103b2600480360381019080803573ffffffffffffffffffffffffffffffffffffffff1690602001909291905050506113b7565b6040518082815260200191505060405180910390f35b3480156103d457600080fd5b506103dd611400565b6040518082815260200191505060405180910390f35b3480156103ff57600080fd5b5061041e60048036038101908080359060200190929190505050611406565b005b34801561042c57600080fd5b5061046b600480360381019080803573ffffffffffffffffffffffffffffffffffffffff169060200190929190803590602001909291905050506114c0565b6040518085815260200184815260200183815260200182600381111561048d57fe5b60ff16815260200194505050505060405180910390f35b3480156104b057600080fd5b506104ef600480360381019080803573ffffffffffffffffffffffffffffffffffffffff16906020019092919080359060200190929190505050611519565b60405180868152602001858152602001848152602001838152602001821515151581526020019550505050505060405180910390f35b34801561053157600080fd5b5061053a611759565b604051808273ffffffffffffffffffffffffffffffffffffffff1673ffffffffffffffffffffffffffffffffffffffff16815260200191505060405180910390f35b34801561058857600080fd5b5061059161177f565b604051808215151515815260200191505060405180910390f35b3480156105b757600080fd5b506105ec600480360381019080803573ffffffffffffffffffffffffffffffffffffffff1690602001909291905050506117d7565b6040518082815260200191505060405180910390f35b34801561060e57600080fd5b50610617611820565b6040518082815260200191505060405180910390f35b34801561063957600080fd5b50610678600480360381019080803573ffffffffffffffffffffffffffffffffffffffff16906020019092919080359060200190929190505050611826565b6040518085815260200184815260200183815260200182600381111561069a57fe5b60ff16815260200194505050505060405180910390f35b3480156106bd57600080fd5b506106dc6004803603810190808035906020019092919050505061187f565b604051808273ffffffffffffffffffffffffffffffffffffffff1673ffffffffffffffffffffffffffffffffffffffff16815260200191505060405180910390f35b34801561072a57600080fd5b50610773600480360381019080803573ffffffffffffffffffffffffffffffffffffffff16906020019092919080359060200190929190803590602001909291905050506118bd565b005b34801561078157600080fd5b506107b6600480360381019080803573ffffffffffffffffffffffffffffffffffffffff169060200190929190505050611b14565b6040518082815260200191505060405180910390f35b3480156107d857600080fd5b5061080d600480360381019080803573ffffffffffffffffffffffffffffffffffffffff169060200190929190505050611b2c565b6040518082815260200191505060405180910390f35b34801561082f57600080fd5b50610838611b44565b6040518082815260200191505060405180910390f35b34801561085a57600080fd5b50610863611b4a565b005b34801561087157600080fd5b506108a6600480360381019080803573ffffffffffffffffffffffffffffffffffffffff169060200190929190505050611de3565b6040518082815260200191505060405180910390f35b3480156108c857600080fd5b50610913600480360381019080803573ffffffffffffffffffffffffffffffffffffffff16906020019092919080351515906020019092919080359060200190929190505050611e2f565b005b61091d61203b565b005b60008090505b600660008373ffffffffffffffffffffffffffffffffffffffff1673ffffffffffffffffffffffffffffffffffffffff16815260200190815260200160002080549050811015610f96576000600381111561097c57fe5b600660008473ffffffffffffffffffffffffffffffffffffffff1673ffffffffffffffffffffffffffffffffffffffff168152602001908152602001600020828154811015156109c857fe5b906000526020600020906004020160030160009054906101000a900460ff1660038111156109f257fe5b148015610a5b575042600660008473ffffffffffffffffffffffffffffffffffffffff1673ffffffffffffffffffffffffffffffffffffffff16815260200190815260200160002082815481101515610a4757fe5b906000526020600020906004020160010154105b15610c7c576001600660008473ffffffffffffffffffffffffffffffffffffffff1673ffffffffffffffffffffffffffffffffffffffff16815260200190815260200160002082815481101515610aae57fe5b906000526020600020906004020160030160006101000a81548160ff02191690836003811115610ada57fe5b0217905550610b8e600660008473ffffffffffffffffffffffffffffffffffffffff1673ffffffffffffffffffffffffffffffffffffffff16815260200190815260200160002082815481101515610b2e57fe5b906000526020600020906004020160020154600760008573ffffffffffffffffffffffffffffffffffffffff1673ffffffffffffffffffffffffffffffffffffffff168152602001908152602001600020546120e190919063ffffffff16565b600760008473ffffffffffffffffffffffffffffffffffffffff1673ffffffffffffffffffffffffffffffffffffffff16815260200190815260200160002081905550600660008373ffffffffffffffffffffffffffffffffffffffff1673ffffffffffffffffffffffffffffffffffffffff16815260200190815260200160002081815481101515610c1d57fe5b906000526020600020906004020160020154600860008473ffffffffffffffffffffffffffffffffffffffff1673ffffffffffffffffffffffffffffffffffffffff168152602001908152602001600020600082825401925050819055505b60006003811115610c8957fe5b600560008473ffffffffffffffffffffffffffffffffffffffff1673ffffffffffffffffffffffffffffffffffffffff16815260200190815260200160002082815481101515610cd557fe5b906000526020600020906004020160030160009054906101000a900460ff166003811115610cff57fe5b148015610d68575042600560008473ffffffffffffffffffffffffffffffffffffffff1673ffffffffffffffffffffffffffffffffffffffff16815260200190815260200160002082815481101515610d5457fe5b906000526020600020906004020160010154105b15610f89576001600560008473ffffffffffffffffffffffffffffffffffffffff1673ffffffffffffffffffffffffffffffffffffffff16815260200190815260200160002082815481101515610dbb57fe5b906000526020600020906004020160030160006101000a81548160ff02191690836003811115610de757fe5b0217905550610e9b600560008473ffffffffffffffffffffffffffffffffffffffff1673ffffffffffffffffffffffffffffffffffffffff16815260200190815260200160002082815481101515610e3b57fe5b906000526020600020906004020160020154600760008573ffffffffffffffffffffffffffffffffffffffff1673ffffffffffffffffffffffffffffffffffffffff168152602001908152602001600020546120e190919063ffffffff16565b600760008473ffffffffffffffffffffffffffffffffffffffff1673ffffffffffffffffffffffffffffffffffffffff16815260200190815260200160002081905550600560008373ffffffffffffffffffffffffffffffffffffffff1673ffffffffffffffffffffffffffffffffffffffff16815260200190815260200160002081815481101515610f2a57fe5b906000526020600020906004020160020154600860008473ffffffffffffffffffffffffffffffffffffffff1673ffffffffffffffffffffffffffffffffffffffff168152602001908152602001600020600082825401925050819055505b8080600101915050610925565b5050565b60096020528060005260406000206000915090505481565b600080600080600080600080600080600560008d73ffffffffffffffffffffffffffffffffffffffff1673ffffffffffffffffffffffffffffffffffffffff168152602001908152602001600020805490508b10151561101157600080fd5b600560008d73ffffffffffffffffffffffffffffffffffffffff1673ffffffffffffffffffffffffffffffffffffffff1681526020019081526020016000208b81548110151561105d57fe5b9060005260206000209060040201600001549450600560008d73ffffffffffffffffffffffffffffffffffffffff1673ffffffffffffffffffffffffffffffffffffffff1681526020019081526020016000208b8154811015156110bd57fe5b9060005260206000209060040201600101549350600560008d73ffffffffffffffffffffffffffffffffffffffff1673ffffffffffffffffffffffffffffffffffffffff1681526020019081526020016000208b81548110151561111d57fe5b9060005260206000209060040201600201549250600560008d73ffffffffffffffffffffffffffffffffffffffff1673ffffffffffffffffffffffffffffffffffffffff1681526020019081526020016000208b81548110151561117d57fe5b906000526020600020906004020160030160009054906101000a900460ff169150600090508484848460038111156111b157fe5b849950995099509950995050505050509295509295909350565b60015481565b6000600960008373ffffffffffffffffffffffffffffffffffffffff1673ffffffffffffffffffffffffffffffffffffffff168152602001908152602001600020549050919050565b600260019054906101000a900473ffffffffffffffffffffffffffffffffffffffff1673ffffffffffffffffffffffffffffffffffffffff163373ffffffffffffffffffffffffffffffffffffffff1614151561127657600080fd5b600260009054906101000a900460ff1615151561129257600080fd5b60015481111515156112a357600080fd5b6001600260006101000a81548160ff0219169083151502179055506112d3816001546120e190919063ffffffff16565b600181905550600260019054906101000a900473ffffffffffffffffffffffffffffffffffffffff1673ffffffffffffffffffffffffffffffffffffffff166108fc829081150290604051600060405180830381858888f19350505050158015611341573d6000803e3d6000fd5b507fc67a6e2c9e13b320d5ce7e24743ea93ba9261320310966dd6240569493690eff816040518082815260200191505060405180910390a16000600260006101000a81548160ff02191690831515021790555050565b60046020528060005260406000206000915054906101000a900460ff1681565b6000600860008373ffffffffffffffffffffffffffffffffffffffff1673ffffffffffffffffffffffffffffffffffffffff168152602001908152602001600020549050919050565b61025881565b600260019054906101000a900473ffffffffffffffffffffffffffffffffffffffff1673ffffffffffffffffffffffffffffffffffffffff163373ffffffffffffffffffffffffffffffffffffffff1614151561146257600080fd5b80600011158015611474575060648111155b151561147f57600080fd5b806000819055507f2f30ac359ed0e20f9b98a846d1572189822c7b4ec013d704e0783115e434db27816040518082815260200191505060405180910390a150565b6005602052816000526040600020818154811015156114db57fe5b9060005260206000209060040201600091509150508060000154908060010154908060020154908060030160009054906101000a900460ff16905084565b600080600080600080600080600080600660008d73ffffffffffffffffffffffffffffffffffffffff1673ffffffffffffffffffffffffffffffffffffffff168152602001908152602001600020805490508b10151561157857600080fd5b600660008d73ffffffffffffffffffffffffffffffffffffffff1673ffffffffffffffffffffffffffffffffffffffff1681526020019081526020016000208b8154811015156115c457fe5b9060005260206000209060040201600001549450600660008d73ffffffffffffffffffffffffffffffffffffffff1673ffffffffffffffffffffffffffffffffffffffff1681526020019081526020016000208b81548110151561162457fe5b9060005260206000209060040201600101549350600660008d73ffffffffffffffffffffffffffffffffffffffff1673ffffffffffffffffffffffffffffffffffffffff1681526020019081526020016000208b81548110151561168457fe5b9060005260206000209060040201600201549250600660008d73ffffffffffffffffffffffffffffffffffffffff1673ffffffffffffffffffffffffffffffffffffffff1681526020019081526020016000208b8154811015156116e457fe5b906000526020600020906004020160030160009054906101000a900460ff1691506000600381111561171257fe5b82600381111561171e57fe5b14801561172e57504261012c8601115b905084848484600381111561173f57fe5b849950995099509950995050505050509295509295909350565b600260019054906101000a900473ffffffffffffffffffffffffffffffffffffffff1681565b6000600260019054906101000a900473ffffffffffffffffffffffffffffffffffffffff1673ffffffffffffffffffffffffffffffffffffffff163373ffffffffffffffffffffffffffffffffffffffff1614905090565b6000600760008373ffffffffffffffffffffffffffffffffffffffff1673ffffffffffffffffffffffffffffffffffffffff168152602001908152602001600020549050919050565b61012c81565b60066020528160005260406000208181548110151561184157fe5b9060005260206000209060040201600091509150508060000154908060010154908060020154908060030160009054906101000a900460ff16905084565b60038181548110151561188e57fe5b906000526020600020016000915054906101000a900473ffffffffffffffffffffffffffffffffffffffff1681565b600080600260019054906101000a900473ffffffffffffffffffffffffffffffffffffffff1673ffffffffffffffffffffffffffffffffffffffff163373ffffffffffffffffffffffffffffffffffffffff1614151561191c57600080fd5b600054831415156119315761193083611406565b5b600154841115151561194257600080fd5b600460008673ffffffffffffffffffffffffffffffffffffffff1673ffffffffffffffffffffffffffffffffffffffff16815260200190815260200160002060009054906101000a900460ff16151561199f5761199e856120fa565b5b6119c760646119b96000548761228790919063ffffffff16565b6122ba90919063ffffffff16565b91506119dc82856120e190919063ffffffff16565b90506119e885836122d5565b6119f285826123d1565b611a07846001546120e190919063ffffffff16565b600181905550611a5f84600760008873ffffffffffffffffffffffffffffffffffffffff1673ffffffffffffffffffffffffffffffffffffffff168152602001908152602001600020546124cd90919063ffffffff16565b600760008773ffffffffffffffffffffffffffffffffffffffff1673ffffffffffffffffffffffffffffffffffffffff168152602001908152602001600020819055507f0af5b4bb4bde1ba8d1310c81bc038775802dd1fc8610862258145f44632f08aa8585604051808373ffffffffffffffffffffffffffffffffffffffff1673ffffffffffffffffffffffffffffffffffffffff1681526020018281526020019250505060405180910390a15050505050565b60076020528060005260406000206000915090505481565b60086020528060005260406000206000915090505481565b60005481565b600080600460003373ffffffffffffffffffffffffffffffffffffffff1673ffffffffffffffffffffffffffffffffffffffff16815260200190815260200160002060009054906101000a900460ff161515611ba557600080fd5b600260009054906101000a900460ff16151515611bc157600080fd5b339150600860008373ffffffffffffffffffffffffffffffffffffffff1673ffffffffffffffffffffffffffffffffffffffff168152602001908152602001600020549050600081111515611c1557600080fd5b6001600260006101000a81548160ff021916908315150217905550611c8281600960008573ffffffffffffffffffffffffffffffffffffffff1673ffffffffffffffffffffffffffffffffffffffff168152602001908152602001600020546124cd90919063ffffffff16565b600960008473ffffffffffffffffffffffffffffffffffffffff1673ffffffffffffffffffffffffffffffffffffffff168152602001908152602001600020819055506000600860008473ffffffffffffffffffffffffffffffffffffffff1673ffffffffffffffffffffffffffffffffffffffff16815260200190815260200160002081905550611d126124eb565b8173ffffffffffffffffffffffffffffffffffffffff166108fc829081150290604051600060405180830381858888f19350505050158015611d58573d6000803e3d6000fd5b506000600260006101000a81548160ff0219169083151502179055507f8141602dfea6211bce1de52d5b4ea2acbcee367345f53fd43dcb1380245b07ef8282604051808373ffffffffffffffffffffffffffffffffffffffff1673ffffffffffffffffffffffffffffffffffffffff1681526020018281526020019250505060405180910390a15050565b6000600560008373ffffffffffffffffffffffffffffffffffffffff1673ffffffffffffffffffffffffffffffffffffffff168152602001908152602001600020805490509050919050565b600080600260019054906101000a900473ffffffffffffffffffffffffffffffffffffffff1673ffffffffffffffffffffffffffffffffffffffff163373ffffffffffffffffffffffffffffffffffffffff16141515611e8e57600080fd5b600460008673ffffffffffffffffffffffffffffffffffffffff1673ffffffffffffffffffffffffffffffffffffffff16815260200190815260200160002060009054906101000a900460ff161515611ee657600080fd5b60009150611ef38561091f565b8315611f675782600011158015611f4b5750600660008673ffffffffffffffffffffffffffffffffffffffff1673ffffffffffffffffffffffffffffffffffffffff1681526020019081526020016000208054905083105b1515611f5657600080fd5b611f608584612763565b9150611fe2565b600090505b600660008673ffffffffffffffffffffffffffffffffffffffff1673ffffffffffffffffffffffffffffffffffffffff16815260200190815260200160002080549050811015611fe157611fd2611fc38683612763565b836124cd90919063ffffffff16565b91508080600101915050611f6c565b5b611ff7826001546124cd90919063ffffffff16565b6001819055507f66666578c836dc01e1a47b3552eae6199e273c425f03e253aa358f69fc187cbe826040518082815260200191505060405180910390a15050505050565b600260009054906101000a900460ff1615151561205757600080fd5b6001600260006101000a81548160ff021916908315150217905550612087346001546124cd90919063ffffffff16565b6001819055507ff00085b2990817babd1586c95bf38c55ad05f237b6751cbe08b8a45b7a852e21346040518082815260200191505060405180910390a16000600260006101000a81548160ff021916908315150217905550565b60008282111515156120ef57fe5b818303905092915050565b600460008273ffffffffffffffffffffffffffffffffffffffff1673ffffffffffffffffffffffffffffffffffffffff16815260200190815260200160002060009054906101000a900460ff1615151561215357600080fd5b60038190806001815401808255809150509060018203906000526020600020016000909192909190916101000a81548173ffffffffffffffffffffffffffffffffffffffff021916908373ffffffffffffffffffffffffffffffffffffffff160217905550506001600460008373ffffffffffffffffffffffffffffffffffffffff1673ffffffffffffffffffffffffffffffffffffffff16815260200190815260200160002060006101000a81548160ff0219169083151502179055507fcb0a32863f19fa75ac0ffa8c4857aca955881c7dfdbd41dca2fa7895aada674881600160038054905003604051808373ffffffffffffffffffffffffffffffffffffffff1673ffffffffffffffffffffffffffffffffffffffff1681526020018281526020019250505060405180910390a150565b600080828402905060008414806122a857508284828115156122a557fe5b04145b15156122b057fe5b8091505092915050565b60008082848115156122c857fe5b0490508091505092915050565b60006122df6129e3565b610258915060806040519081016040528042815260200183420181526020018481526020016000600381111561231157fe5b8152509050600560008573ffffffffffffffffffffffffffffffffffffffff1673ffffffffffffffffffffffffffffffffffffffff168152602001908152602001600020819080600181540180825580915050906001820390600052602060002090600402016000909192909190915060008201518160000155602082015181600101556040820151816002015560608201518160030160006101000a81548160ff021916908360038111156123c357fe5b021790555050505050505050565b60006123db6129e3565b610258915060806040519081016040528042815260200183420181526020018481526020016000600381111561240d57fe5b8152509050600660008573ffffffffffffffffffffffffffffffffffffffff1673ffffffffffffffffffffffffffffffffffffffff168152602001908152602001600020819080600181540180825580915050906001820390600052602060002090600402016000909192909190915060008201518160000155602082015181600101556040820151816002015560608201518160030160006101000a81548160ff021916908360038111156124bf57fe5b021790555050505050505050565b60008082840190508381101515156124e157fe5b8091505092915050565b600080339150600090505b600660008373ffffffffffffffffffffffffffffffffffffffff1673ffffffffffffffffffffffffffffffffffffffff1681526020019081526020016000208054905081101561275f576001600381111561254d57fe5b600660008473ffffffffffffffffffffffffffffffffffffffff1673ffffffffffffffffffffffffffffffffffffffff1681526020019081526020016000208281548110151561259957fe5b906000526020600020906004020160030160009054906101000a900460ff1660038111156125c357fe5b1415612649576002600660008473ffffffffffffffffffffffffffffffffffffffff1673ffffffffffffffffffffffffffffffffffffffff1681526020019081526020016000208281548110151561261757fe5b906000526020600020906004020160030160006101000a81548160ff0219169083600381111561264357fe5b02179055505b6001600381111561265657fe5b600560008473ffffffffffffffffffffffffffffffffffffffff1673ffffffffffffffffffffffffffffffffffffffff168152602001908152602001600020828154811015156126a257fe5b906000526020600020906004020160030160009054906101000a900460ff1660038111156126cc57fe5b1415612752576002600560008473ffffffffffffffffffffffffffffffffffffffff1673ffffffffffffffffffffffffffffffffffffffff1681526020019081526020016000208281548110151561272057fe5b906000526020600020906004020160030160006101000a81548160ff0219169083600381111561274c57fe5b02179055505b80806001019150506124f6565b5050565b6000806000600381111561277357fe5b600660008673ffffffffffffffffffffffffffffffffffffffff1673ffffffffffffffffffffffffffffffffffffffff168152602001908152602001600020848154811015156127bf57fe5b906000526020600020906004020160030160009054906101000a900460ff1660038111156127e957fe5b14801561285657504261012c600660008773ffffffffffffffffffffffffffffffffffffffff1673ffffffffffffffffffffffffffffffffffffffff1681526020019081526020016000208581548110151561284157fe5b90600052602060002090600402016000015401115b156129d757600660008573ffffffffffffffffffffffffffffffffffffffff1673ffffffffffffffffffffffffffffffffffffffff168152602001908152602001600020838154811015156128a757fe5b90600052602060002090600402016002015490506003600660008673ffffffffffffffffffffffffffffffffffffffff1673ffffffffffffffffffffffffffffffffffffffff1681526020019081526020016000208481548110151561290957fe5b906000526020600020906004020160030160006101000a81548160ff0219169083600381111561293557fe5b021790555061298c81600760008773ffffffffffffffffffffffffffffffffffffffff1673ffffffffffffffffffffffffffffffffffffffff168152602001908152602001600020546120e190919063ffffffff16565b600760008673ffffffffffffffffffffffffffffffffffffffff1673ffffffffffffffffffffffffffffffffffffffff168152602001908152602001600020819055508091506129dc565b600091505b5092915050565b60806040519081016040528060008152602001600081526020016000815260200160006003811115612a1157fe5b815250905600a165627a7a723058207fd7ff698c6c238c0ca6adb3a9490b8047c997a3deed9d153250779a405e040b0029",
  "source": "pragma solidity ^0.4.23;\r\n\r\nimport './SafeMath.sol';\r\n\r\ncontract NextyBonus {\r\n    using SafeMath for uint256;\r\n    \r\n    //uint256 public constant BONUS_REMOVEALBE_DURATION= 180*24*60*60; // 180 days in second\r\n    //uint256 public constant LOCK_DURATION= 365*24*60*60; // 365 days in second\r\n    uint256 public constant BONUS_REMOVEALBE_DURATION= 5*60; // 180 days in second\r\n    uint256 public constant LOCK_DURATION= 10*60; // 365 days in second\r\n    \r\n    uint256 public FIXED_PERCENT; //not constant\r\n    uint256 public totalAmount= 0;\r\n    \r\n    bool reEntrancyMutex = false;\r\n    \r\n    enum StatusType {\r\n        Locked,\r\n        Unlocked,\r\n        Withdrawn,\r\n        Removed     //Bonus amount only\r\n    }\r\n\r\n    struct LockAtribute {\r\n        uint256 time;\r\n        uint256 endTime;\r\n        uint256 value;\r\n        StatusType lockStatus;\r\n    }\r\n    \r\n    address public owner;\r\n    \r\n    address[] public member;\r\n    \r\n    mapping(address => bool) public whiteList;\r\n    \r\n    mapping(address => LockAtribute[]) public fixedAmount;\r\n    mapping(address => LockAtribute[]) public bonusAmount;\r\n    mapping(address => uint256) public lockedAmount;\r\n    mapping(address => uint256) public unlockedAmount;\r\n    mapping(address => uint256) public withdrawnAmount;\r\n    \r\n    //Modifiers\r\n\r\n    modifier onlyOwner() {\r\n        require(msg.sender == owner);\r\n        _;\r\n    }\r\n    \r\n    modifier onlyMember() {\r\n        require(whiteList[msg.sender]);\r\n        _;\r\n    }\r\n    \r\n    //Owners Events\r\n\r\n    event ChangePercentSuccess(uint256 _percent);\r\n    event AddMemberSuccess(address _address, uint256 _sorter);\r\n    event CreatedSuccess(address _address, uint256 _amount);\r\n    event RemovedSuccess(uint256 _amount);\r\n    event OwnerWithdrawSuccess(uint256 _amount);\r\n    event OwnerDepositSuccess(uint256 _amount);\r\n\r\n    //Members Events\r\n    \r\n    event MemberWithdrawSuccess(address _address, uint256 _amount);\r\n    \r\n    //Owner's Functions\r\n\r\n    constructor (uint256 _percent) public{ \r\n        owner= msg.sender;\r\n        setFixedPercent(_percent);\r\n        addMember(msg.sender); // owner at 1st place in the member array\r\n    }\r\n\r\n    function deposit() public payable {\r\n        require(!reEntrancyMutex);\r\n        reEntrancyMutex= true; \r\n        totalAmount= totalAmount.add(msg.value);\r\n        emit OwnerDepositSuccess(msg.value);\r\n        reEntrancyMutex= false; \r\n    }\r\n    \r\n    function setFixedPercent(uint256 _percent) onlyOwner public {\r\n        require((0 <= _percent) && (_percent <= 100));\r\n        FIXED_PERCENT= _percent;\r\n        emit ChangePercentSuccess(_percent);\r\n    }\r\n    \r\n    function ownerWithdraw(uint256 _amount) onlyOwner payable public {\r\n        require(!reEntrancyMutex);\r\n        require(_amount <= totalAmount);\r\n        reEntrancyMutex= true;\r\n        totalAmount= totalAmount.sub(_amount);\r\n        owner.transfer(_amount);\r\n        emit OwnerWithdrawSuccess(_amount);\r\n        reEntrancyMutex= false;\r\n    }\r\n    \r\n    function addMember(address _address) private {\r\n        require(!whiteList[_address]);\r\n        member.push(_address);\r\n        whiteList[_address]= true;\r\n        emit AddMemberSuccess(_address, member.length-1);\r\n    }\r\n    \r\n    function createFixedAmount(address _address, uint256 _amount) private {\r\n        uint256 lockDuration= LOCK_DURATION; //in second\r\n        \r\n        LockAtribute memory newAmount = LockAtribute({\r\n            time: now,\r\n            endTime: now + lockDuration,\r\n            value: _amount,\r\n            lockStatus: StatusType.Locked\r\n        });\r\n        \r\n        fixedAmount[_address].push(newAmount);\r\n    }\r\n    \r\n    function createBonusAmount(address _address, uint256 _amount) private {\r\n        uint256 lockDuration= LOCK_DURATION; //in second\r\n        \r\n        LockAtribute memory newAmount = LockAtribute({\r\n            time: now,\r\n            endTime: now + lockDuration,\r\n            value: _amount,\r\n            lockStatus: StatusType.Locked\r\n        });\r\n        \r\n        bonusAmount[_address].push(newAmount);\r\n    }\r\n    \r\n    function createLockedAmount(address _address, uint256 _amount, uint256 _fixedPercent) onlyOwner public {\r\n        if (_fixedPercent != FIXED_PERCENT) setFixedPercent(_fixedPercent);\r\n        require(_amount <= totalAmount);\r\n\r\n        if (!whiteList[_address]) addMember(_address);\r\n\r\n        uint256 newFixedAmount= _amount.mul(FIXED_PERCENT).div(100);\r\n        uint256 newBonusAmount= _amount.sub(newFixedAmount);\r\n        \r\n        createFixedAmount(_address, newFixedAmount);\r\n        createBonusAmount(_address, newBonusAmount);\r\n        \r\n        totalAmount= totalAmount.sub(_amount);\r\n        lockedAmount[_address]= lockedAmount[_address].add(_amount);\r\n        emit CreatedSuccess(_address, _amount);\r\n    }\r\n    \r\n    function updateStatus(address _address) public {\r\n        for (uint256 i= 0; i< bonusAmount[_address].length; i++) {\r\n            if ((bonusAmount[_address][i].lockStatus == StatusType.Locked) && \r\n            (bonusAmount[_address][i].endTime < now)){\r\n                bonusAmount[_address][i].lockStatus= StatusType.Unlocked;\r\n                lockedAmount[_address]= lockedAmount[_address].sub(bonusAmount[_address][i].value);\r\n                unlockedAmount[_address]+= bonusAmount[_address][i].value;\r\n            }\r\n            \r\n            if ((fixedAmount[_address][i].lockStatus == StatusType.Locked) && \r\n            (fixedAmount[_address][i].endTime < now)){\r\n                fixedAmount[_address][i].lockStatus= StatusType.Unlocked;\r\n                lockedAmount[_address]=lockedAmount[_address].sub(fixedAmount[_address][i].value);\r\n                unlockedAmount[_address]+= fixedAmount[_address][i].value;\r\n            }\r\n        }\r\n    }\r\n    \r\n    function removeSpecificBonusAmount(address _address, uint256 _amountId) private returns(uint256) {\r\n        //if still removeable, remove and add amount into totalAmount    \r\n        if ((bonusAmount[_address][_amountId].lockStatus == StatusType.Locked) && (bonusAmount[_address][_amountId].time + BONUS_REMOVEALBE_DURATION > now)) {\r\n            uint256 value= bonusAmount[_address][_amountId].value;\r\n            bonusAmount[_address][_amountId].lockStatus= StatusType.Removed;\r\n            lockedAmount[_address]= lockedAmount[_address].sub(value);\r\n            return value;\r\n        }\r\n        return 0;\r\n    }\r\n    \r\n    function removeBonusAmount(address _address, bool _isSpecific, uint256 _amountId) onlyOwner public {\r\n        require(whiteList[_address]);\r\n        uint256 removedAmount= 0;\r\n        updateStatus(_address);\r\n        \r\n        if (_isSpecific) {\r\n            require((0 <= _amountId) && (_amountId <  bonusAmount[_address].length));\r\n            removedAmount= removeSpecificBonusAmount(_address, _amountId);\r\n        } else {\r\n            // remove all bonusAmount => search all bonusAmount sent to this _address\r\n            for (uint256 i= 0; i< bonusAmount[_address].length; i++) {\r\n                removedAmount= removedAmount.add(removeSpecificBonusAmount(_address, i));\r\n            }\r\n        }\r\n\r\n        totalAmount= totalAmount.add(removedAmount);\r\n        emit RemovedSuccess(removedAmount);\r\n    }\r\n    \r\n    //Members Functions\r\n    \r\n    function setUnlockedToWithdrawn() private {\r\n        address _address= msg.sender;\r\n        for (uint256 i= 0; i< bonusAmount[_address].length; i++) {\r\n            //if Unlocked\r\n            if (bonusAmount[_address][i].lockStatus == StatusType.Unlocked) {\r\n                bonusAmount[_address][i].lockStatus= StatusType.Withdrawn;\r\n            }\r\n            \r\n            if (fixedAmount[_address][i].lockStatus == StatusType.Unlocked) {\r\n                fixedAmount[_address][i].lockStatus= StatusType.Withdrawn;\r\n            }\r\n        }\r\n    }\r\n    \r\n    function memberWithdraw() onlyMember public {\r\n        require(!reEntrancyMutex);\r\n\r\n        address _address= msg.sender;\r\n        uint256 amount= unlockedAmount[_address]; // Withdraw amount\r\n        require(amount > 0);  \r\n\r\n        reEntrancyMutex= true;\r\n        \r\n        withdrawnAmount[_address]= withdrawnAmount[_address].add(amount);\r\n        unlockedAmount[_address]= 0;\r\n        setUnlockedToWithdrawn();\r\n        _address.transfer(amount);\r\n\r\n        reEntrancyMutex= false; \r\n        emit MemberWithdrawSuccess(_address, amount);\r\n    }\r\n    \r\n    //Public Functions\r\n\r\n    function getLockedAmount(address _address) public view returns(uint256) {\r\n        //updateStatus(_address);\r\n        return lockedAmount[_address];\r\n    }\r\n    \r\n    function getUnlockedAmount(address _address) public view returns(uint256) {\r\n        //updateStatus(_address);\r\n        return unlockedAmount[_address];\r\n    }\r\n    \r\n    function getWithdrawnAmount(address _address) public view returns(uint256) {\r\n        return withdrawnAmount[_address];\r\n    }\r\n    \r\n    function getFixedHistory(address _address, uint256 i) public view returns(uint256, uint256, uint256, uint256, bool){\r\n        require(i < fixedAmount[_address].length);\r\n        \r\n        uint256  time;\r\n        uint256 endTime;\r\n        uint256  value;\r\n        StatusType  lockStatus;\r\n        bool removeable;\r\n        \r\n        time= fixedAmount[_address][i].time;\r\n        endTime= fixedAmount[_address][i].endTime;\r\n        value= fixedAmount[_address][i].value;\r\n        lockStatus= fixedAmount[_address][i].lockStatus;\r\n        removeable= false;\r\n        \r\n        return (time, endTime, value, uint256(lockStatus), removeable);\r\n    }\r\n    \r\n    function getBonusHistory(address _address, uint256 i) public view returns(uint256, uint256, uint256, uint256, bool){\r\n        require(i < bonusAmount[_address].length);\r\n        uint256  time;\r\n        uint256 endTime;\r\n        uint256  value;\r\n        StatusType  lockStatus;\r\n        bool removeable;\r\n        \r\n        time= bonusAmount[_address][i].time;\r\n        endTime= bonusAmount[_address][i].endTime;\r\n        value= bonusAmount[_address][i].value;\r\n        lockStatus= bonusAmount[_address][i].lockStatus;\r\n        removeable= ((lockStatus == StatusType.Locked) && (time + BONUS_REMOVEALBE_DURATION > now));\r\n        \r\n        return (time, endTime, value, uint256(lockStatus), removeable);\r\n    }\r\n\r\n    function getHistoryLength(address _address) public view returns(uint256){\r\n        return fixedAmount[_address].length;\r\n    }\r\n\r\n    function isOwner() public view returns(bool) {\r\n        return (msg.sender == owner);\r\n    }\r\n    \r\n}",
  "sourcePath": "C:\\Users\\bestb\\Desktop\\nodejs\\NextyBonus\\contracts\\NextyBonus.sol",
  "compiler": {
    "name": "solc",
    "version": "0.4.24+commit.e67f0147.Emscripten.clang"
  },
  "schemaVersion": "2.0.1",
  "updatedAt": "2018-08-03T03:33:38.096Z"
}