{
  "contractName": "NextyBonus",
  "abi": [
    {
      "constant": true,
      "inputs": [
        {
          "name": "",
          "type": "address"
        }
      ],
      "name": "withdrawnAmount",
      "outputs": [
        {
          "name": "",
          "type": "uint256"
        }
      ],
      "payable": false,
      "stateMutability": "view",
      "type": "function"
    },
    {
      "constant": true,
      "inputs": [],
      "name": "totalAmount",
      "outputs": [
        {
          "name": "",
          "type": "uint256"
        }
      ],
      "payable": false,
      "stateMutability": "view",
      "type": "function"
    },
    {
      "constant": true,
      "inputs": [
        {
          "name": "",
          "type": "address"
        }
      ],
      "name": "whiteList",
      "outputs": [
        {
          "name": "",
          "type": "bool"
        }
      ],
      "payable": false,
      "stateMutability": "view",
      "type": "function"
    },
    {
      "constant": true,
      "inputs": [],
      "name": "LOCK_DURATION",
      "outputs": [
        {
          "name": "",
          "type": "uint256"
        }
      ],
      "payable": false,
      "stateMutability": "view",
      "type": "function"
    },
    {
      "constant": true,
      "inputs": [
        {
          "name": "",
          "type": "address"
        },
        {
          "name": "",
          "type": "uint256"
        }
      ],
      "name": "fixedAmount",
      "outputs": [
        {
          "name": "time",
          "type": "uint256"
        },
        {
          "name": "endTime",
          "type": "uint256"
        },
        {
          "name": "value",
          "type": "uint256"
        },
        {
          "name": "lockStatus",
          "type": "uint8"
        }
      ],
      "payable": false,
      "stateMutability": "view",
      "type": "function"
    },
    {
      "constant": true,
      "inputs": [],
      "name": "owner",
      "outputs": [
        {
          "name": "",
          "type": "address"
        }
      ],
      "payable": false,
      "stateMutability": "view",
      "type": "function"
    },
    {
      "constant": true,
      "inputs": [],
      "name": "BONUS_REMOVEALBE_DURATION",
      "outputs": [
        {
          "name": "",
          "type": "uint256"
        }
      ],
      "payable": false,
      "stateMutability": "view",
      "type": "function"
    },
    {
      "constant": true,
      "inputs": [
        {
          "name": "",
          "type": "address"
        },
        {
          "name": "",
          "type": "uint256"
        }
      ],
      "name": "bonusAmount",
      "outputs": [
        {
          "name": "time",
          "type": "uint256"
        },
        {
          "name": "endTime",
          "type": "uint256"
        },
        {
          "name": "value",
          "type": "uint256"
        },
        {
          "name": "lockStatus",
          "type": "uint8"
        }
      ],
      "payable": false,
      "stateMutability": "view",
      "type": "function"
    },
    {
      "constant": true,
      "inputs": [
        {
          "name": "",
          "type": "uint256"
        }
      ],
      "name": "member",
      "outputs": [
        {
          "name": "",
          "type": "address"
        }
      ],
      "payable": false,
      "stateMutability": "view",
      "type": "function"
    },
    {
      "constant": true,
      "inputs": [
        {
          "name": "",
          "type": "address"
        }
      ],
      "name": "lockedAmount",
      "outputs": [
        {
          "name": "",
          "type": "uint256"
        }
      ],
      "payable": false,
      "stateMutability": "view",
      "type": "function"
    },
    {
      "constant": true,
      "inputs": [
        {
          "name": "",
          "type": "address"
        }
      ],
      "name": "unlockedAmount",
      "outputs": [
        {
          "name": "",
          "type": "uint256"
        }
      ],
      "payable": false,
      "stateMutability": "view",
      "type": "function"
    },
    {
      "constant": true,
      "inputs": [],
      "name": "FIXED_PERCENT",
      "outputs": [
        {
          "name": "",
          "type": "uint256"
        }
      ],
      "payable": false,
      "stateMutability": "view",
      "type": "function"
    },
    {
      "inputs": [
        {
          "name": "_percent",
          "type": "uint256"
        }
      ],
      "payable": false,
      "stateMutability": "nonpayable",
      "type": "constructor"
    },
    {
      "payable": true,
      "stateMutability": "payable",
      "type": "fallback"
    },
    {
      "anonymous": false,
      "inputs": [
        {
          "indexed": false,
          "name": "_percent",
          "type": "uint256"
        }
      ],
      "name": "ChangePercentSuccess",
      "type": "event"
    },
    {
      "anonymous": false,
      "inputs": [
        {
          "indexed": false,
          "name": "_address",
          "type": "address"
        },
        {
          "indexed": false,
          "name": "_sorter",
          "type": "uint256"
        }
      ],
      "name": "AddMemberSuccess",
      "type": "event"
    },
    {
      "anonymous": false,
      "inputs": [
        {
          "indexed": false,
          "name": "_address",
          "type": "address"
        },
        {
          "indexed": false,
          "name": "_amount",
          "type": "uint256"
        }
      ],
      "name": "CreatedSuccess",
      "type": "event"
    },
    {
      "anonymous": false,
      "inputs": [
        {
          "indexed": false,
          "name": "_amount",
          "type": "uint256"
        }
      ],
      "name": "RemovedSuccess",
      "type": "event"
    },
    {
      "anonymous": false,
      "inputs": [
        {
          "indexed": false,
          "name": "_amount",
          "type": "uint256"
        }
      ],
      "name": "OwnerWithdrawSuccess",
      "type": "event"
    },
    {
      "anonymous": false,
      "inputs": [
        {
          "indexed": false,
          "name": "_amount",
          "type": "uint256"
        }
      ],
      "name": "OwnerDepositSuccess",
      "type": "event"
    },
    {
      "anonymous": false,
      "inputs": [
        {
          "indexed": false,
          "name": "_address",
          "type": "address"
        },
        {
          "indexed": false,
          "name": "_amount",
          "type": "uint256"
        }
      ],
      "name": "MemberWithdrawSuccess",
      "type": "event"
    },
    {
      "constant": false,
      "inputs": [],
      "name": "deposit",
      "outputs": [],
      "payable": true,
      "stateMutability": "payable",
      "type": "function"
    },
    {
      "constant": false,
      "inputs": [
        {
          "name": "_percent",
          "type": "uint256"
        }
      ],
      "name": "setFixedPercent",
      "outputs": [],
      "payable": false,
      "stateMutability": "nonpayable",
      "type": "function"
    },
    {
      "constant": false,
      "inputs": [
        {
          "name": "_amount",
          "type": "uint256"
        }
      ],
      "name": "ownerWithdraw",
      "outputs": [],
      "payable": false,
      "stateMutability": "nonpayable",
      "type": "function"
    },
    {
      "constant": false,
      "inputs": [
        {
          "name": "_address",
          "type": "address"
        },
        {
          "name": "_amount",
          "type": "uint256"
        },
        {
          "name": "_fixedPercent",
          "type": "uint256"
        }
      ],
      "name": "createLockedAmount",
      "outputs": [],
      "payable": false,
      "stateMutability": "nonpayable",
      "type": "function"
    },
    {
      "constant": false,
      "inputs": [
        {
          "name": "_address",
          "type": "address"
        }
      ],
      "name": "updateStatus",
      "outputs": [],
      "payable": false,
      "stateMutability": "nonpayable",
      "type": "function"
    },
    {
      "constant": false,
      "inputs": [
        {
          "name": "_address",
          "type": "address"
        },
        {
          "name": "_isSpecific",
          "type": "bool"
        },
        {
          "name": "_amountId",
          "type": "uint256"
        }
      ],
      "name": "removeBonusAmount",
      "outputs": [],
      "payable": false,
      "stateMutability": "nonpayable",
      "type": "function"
    },
    {
      "constant": false,
      "inputs": [],
      "name": "memberWithdraw",
      "outputs": [],
      "payable": false,
      "stateMutability": "nonpayable",
      "type": "function"
    },
    {
      "constant": true,
      "inputs": [
        {
          "name": "_address",
          "type": "address"
        }
      ],
      "name": "getLockedAmount",
      "outputs": [
        {
          "name": "",
          "type": "uint256"
        }
      ],
      "payable": false,
      "stateMutability": "view",
      "type": "function"
    },
    {
      "constant": true,
      "inputs": [
        {
          "name": "_address",
          "type": "address"
        }
      ],
      "name": "getUnlockedAmount",
      "outputs": [
        {
          "name": "",
          "type": "uint256"
        }
      ],
      "payable": false,
      "stateMutability": "view",
      "type": "function"
    },
    {
      "constant": true,
      "inputs": [
        {
          "name": "_address",
          "type": "address"
        }
      ],
      "name": "getWithdrawnAmount",
      "outputs": [
        {
          "name": "",
          "type": "uint256"
        }
      ],
      "payable": false,
      "stateMutability": "view",
      "type": "function"
    },
    {
      "constant": true,
      "inputs": [
        {
          "name": "_address",
          "type": "address"
        },
        {
          "name": "i",
          "type": "uint256"
        }
      ],
      "name": "getFixedHistory",
      "outputs": [
        {
          "name": "",
          "type": "uint256"
        },
        {
          "name": "",
          "type": "uint256"
        },
        {
          "name": "",
          "type": "uint256"
        },
        {
          "name": "",
          "type": "uint256"
        },
        {
          "name": "",
          "type": "bool"
        }
      ],
      "payable": false,
      "stateMutability": "view",
      "type": "function"
    },
    {
      "constant": true,
      "inputs": [
        {
          "name": "_address",
          "type": "address"
        },
        {
          "name": "i",
          "type": "uint256"
        }
      ],
      "name": "getBonusHistory",
      "outputs": [
        {
          "name": "",
          "type": "uint256"
        },
        {
          "name": "",
          "type": "uint256"
        },
        {
          "name": "",
          "type": "uint256"
        },
        {
          "name": "",
          "type": "uint256"
        },
        {
          "name": "",
          "type": "bool"
        }
      ],
      "payable": false,
      "stateMutability": "view",
      "type": "function"
    },
    {
      "constant": true,
      "inputs": [
        {
          "name": "_address",
          "type": "address"
        }
      ],
      "name": "getHistoryLength",
      "outputs": [
        {
          "name": "",
          "type": "uint256"
        }
      ],
      "payable": false,
      "stateMutability": "view",
      "type": "function"
    },
    {
      "constant": true,
      "inputs": [],
      "name": "isOwner",
      "outputs": [
        {
          "name": "",
          "type": "bool"
        }
      ],
      "payable": false,
      "stateMutability": "view",
      "type": "function"
    }
  ],
  "bytecode": "0x608060405260006001556000600260006101000a81548160ff0219169083151502179055503480156200003157600080fd5b5060405160208062002ca28339810180604052810190808051906020019092919050505033600260016101000a81548173ffffffffffffffffffffffffffffffffffffffff021916908373ffffffffffffffffffffffffffffffffffffffff160217905550620000b081620000d1640100000000026401000000009004565b620000ca336200018e640100000000026401000000009004565b506200031c565b600260019054906101000a900473ffffffffffffffffffffffffffffffffffffffff1673ffffffffffffffffffffffffffffffffffffffff163373ffffffffffffffffffffffffffffffffffffffff161415156200012e57600080fd5b8060001115801562000141575060648111155b15156200014d57600080fd5b806000819055507f2f30ac359ed0e20f9b98a846d1572189822c7b4ec013d704e0783115e434db27816040518082815260200191505060405180910390a150565b600460008273ffffffffffffffffffffffffffffffffffffffff1673ffffffffffffffffffffffffffffffffffffffff16815260200190815260200160002060009054906101000a900460ff16151515620001e857600080fd5b60038190806001815401808255809150509060018203906000526020600020016000909192909190916101000a81548173ffffffffffffffffffffffffffffffffffffffff021916908373ffffffffffffffffffffffffffffffffffffffff160217905550506001600460008373ffffffffffffffffffffffffffffffffffffffff1673ffffffffffffffffffffffffffffffffffffffff16815260200190815260200160002060006101000a81548160ff0219169083151502179055507fcb0a32863f19fa75ac0ffa8c4857aca955881c7dfdbd41dca2fa7895aada674881600160038054905003604051808373ffffffffffffffffffffffffffffffffffffffff1673ffffffffffffffffffffffffffffffffffffffff1681526020018281526020019250505060405180910390a150565b612976806200032c6000396000f300608060405260043610610154576000357c0100000000000000000000000000000000000000000000000000000000900463ffffffff16806301162b93146101c357806310b20139146102065780631127d7001461025d5780631a39d8ef146102de5780632d70715d1461030957806333f707d114610360578063372c12b11461038d578063420d4a02146103e8578063485d38341461043f578063491d00d61461046a57806357698b8614610497578063781e3e571461051b5780638da5cb5b1461059c5780638f32d59b146105f3578063929ec53714610622578063943b15e314610679578063944953de146106a4578063956d113b14610728578063995e413314610795578063a153e708146107ec578063a8988ce214610843578063a9cc67ab1461089a578063ac694711146108c5578063b14e52e8146108dc578063b913394b14610933578063d0e30db01461098c575b600260009054906101000a900460ff1615151561017057600080fd5b6001600260006101000a81548160ff0219169083151502179055506101a03460015461099690919063ffffffff16565b6001819055506000600260006101000a81548160ff021916908315150217905550005b3480156101cf57600080fd5b50610204600480360381019080803573ffffffffffffffffffffffffffffffffffffffff1690602001909291905050506109b4565b005b34801561021257600080fd5b50610247600480360381019080803573ffffffffffffffffffffffffffffffffffffffff169060200190929190505050610f9f565b6040518082815260200191505060405180910390f35b34801561026957600080fd5b506102a8600480360381019080803573ffffffffffffffffffffffffffffffffffffffff16906020019092919080359060200190929190505050610fb7565b60405180868152602001858152602001848152602001838152602001821515151581526020019550505050505060405180910390f35b3480156102ea57600080fd5b506102f36111d0565b6040518082815260200191505060405180910390f35b34801561031557600080fd5b5061034a600480360381019080803573ffffffffffffffffffffffffffffffffffffffff1690602001909291905050506111d6565b6040518082815260200191505060405180910390f35b34801561036c57600080fd5b5061038b6004803603810190808035906020019092919050505061121f565b005b34801561039957600080fd5b506103ce600480360381019080803573ffffffffffffffffffffffffffffffffffffffff16906020019092919050505061139c565b604051808215151515815260200191505060405180910390f35b3480156103f457600080fd5b50610429600480360381019080803573ffffffffffffffffffffffffffffffffffffffff1690602001909291905050506113bc565b6040518082815260200191505060405180910390f35b34801561044b57600080fd5b50610454611405565b6040518082815260200191505060405180910390f35b34801561047657600080fd5b506104956004803603810190808035906020019092919050505061140a565b005b3480156104a357600080fd5b506104e2600480360381019080803573ffffffffffffffffffffffffffffffffffffffff169060200190929190803590602001909291905050506114c4565b6040518085815260200184815260200183815260200182600381111561050457fe5b60ff16815260200194505050505060405180910390f35b34801561052757600080fd5b50610566600480360381019080803573ffffffffffffffffffffffffffffffffffffffff1690602001909291908035906020019092919050505061151d565b60405180868152602001858152602001848152602001838152602001821515151581526020019550505050505060405180910390f35b3480156105a857600080fd5b506105b161173a565b604051808273ffffffffffffffffffffffffffffffffffffffff1673ffffffffffffffffffffffffffffffffffffffff16815260200191505060405180910390f35b3480156105ff57600080fd5b50610608611760565b604051808215151515815260200191505060405180910390f35b34801561062e57600080fd5b50610663600480360381019080803573ffffffffffffffffffffffffffffffffffffffff1690602001909291905050506117b8565b6040518082815260200191505060405180910390f35b34801561068557600080fd5b5061068e611801565b6040518082815260200191505060405180910390f35b3480156106b057600080fd5b506106ef600480360381019080803573ffffffffffffffffffffffffffffffffffffffff16906020019092919080359060200190929190505050611806565b6040518085815260200184815260200183815260200182600381111561071157fe5b60ff16815260200194505050505060405180910390f35b34801561073457600080fd5b506107536004803603810190808035906020019092919050505061185f565b604051808273ffffffffffffffffffffffffffffffffffffffff1673ffffffffffffffffffffffffffffffffffffffff16815260200191505060405180910390f35b3480156107a157600080fd5b506107ea600480360381019080803573ffffffffffffffffffffffffffffffffffffffff169060200190929190803590602001909291908035906020019092919050505061189d565b005b3480156107f857600080fd5b5061082d600480360381019080803573ffffffffffffffffffffffffffffffffffffffff169060200190929190505050611af4565b6040518082815260200191505060405180910390f35b34801561084f57600080fd5b50610884600480360381019080803573ffffffffffffffffffffffffffffffffffffffff169060200190929190505050611b0c565b6040518082815260200191505060405180910390f35b3480156108a657600080fd5b506108af611b24565b6040518082815260200191505060405180910390f35b3480156108d157600080fd5b506108da611b2a565b005b3480156108e857600080fd5b5061091d600480360381019080803573ffffffffffffffffffffffffffffffffffffffff169060200190929190505050611dc3565b6040518082815260200191505060405180910390f35b34801561093f57600080fd5b5061098a600480360381019080803573ffffffffffffffffffffffffffffffffffffffff16906020019092919080351515906020019092919080359060200190929190505050611e0f565b005b61099461201b565b005b60008082840190508381101515156109aa57fe5b8091505092915050565b60008090505b600660008373ffffffffffffffffffffffffffffffffffffffff1673ffffffffffffffffffffffffffffffffffffffff16815260200190815260200160002080549050811015610f9b5760006003811115610a1157fe5b600660008473ffffffffffffffffffffffffffffffffffffffff1673ffffffffffffffffffffffffffffffffffffffff16815260200190815260200160002082815481101515610a5d57fe5b906000526020600020906004020160030160009054906101000a900460ff166003811115610a8757fe5b148015610af0575042600660008473ffffffffffffffffffffffffffffffffffffffff1673ffffffffffffffffffffffffffffffffffffffff16815260200190815260200160002082815481101515610adc57fe5b906000526020600020906004020160010154105b15610cc9576001600660008473ffffffffffffffffffffffffffffffffffffffff1673ffffffffffffffffffffffffffffffffffffffff16815260200190815260200160002082815481101515610b4357fe5b906000526020600020906004020160030160006101000a81548160ff02191690836003811115610b6f57fe5b0217905550600660008373ffffffffffffffffffffffffffffffffffffffff1673ffffffffffffffffffffffffffffffffffffffff16815260200190815260200160002081815481101515610bc057fe5b906000526020600020906004020160020154600760008473ffffffffffffffffffffffffffffffffffffffff1673ffffffffffffffffffffffffffffffffffffffff16815260200190815260200160002060008282540392505081905550600660008373ffffffffffffffffffffffffffffffffffffffff1673ffffffffffffffffffffffffffffffffffffffff16815260200190815260200160002081815481101515610c6a57fe5b906000526020600020906004020160020154600860008473ffffffffffffffffffffffffffffffffffffffff1673ffffffffffffffffffffffffffffffffffffffff168152602001908152602001600020600082825401925050819055505b60006003811115610cd657fe5b600560008473ffffffffffffffffffffffffffffffffffffffff1673ffffffffffffffffffffffffffffffffffffffff16815260200190815260200160002082815481101515610d2257fe5b906000526020600020906004020160030160009054906101000a900460ff166003811115610d4c57fe5b148015610db5575042600560008473ffffffffffffffffffffffffffffffffffffffff1673ffffffffffffffffffffffffffffffffffffffff16815260200190815260200160002082815481101515610da157fe5b906000526020600020906004020160010154105b15610f8e576001600560008473ffffffffffffffffffffffffffffffffffffffff1673ffffffffffffffffffffffffffffffffffffffff16815260200190815260200160002082815481101515610e0857fe5b906000526020600020906004020160030160006101000a81548160ff02191690836003811115610e3457fe5b0217905550600560008373ffffffffffffffffffffffffffffffffffffffff1673ffffffffffffffffffffffffffffffffffffffff16815260200190815260200160002081815481101515610e8557fe5b906000526020600020906004020160020154600760008473ffffffffffffffffffffffffffffffffffffffff1673ffffffffffffffffffffffffffffffffffffffff16815260200190815260200160002060008282540392505081905550600560008373ffffffffffffffffffffffffffffffffffffffff1673ffffffffffffffffffffffffffffffffffffffff16815260200190815260200160002081815481101515610f2f57fe5b906000526020600020906004020160020154600860008473ffffffffffffffffffffffffffffffffffffffff1673ffffffffffffffffffffffffffffffffffffffff168152602001908152602001600020600082825401925050819055505b80806001019150506109ba565b5050565b60096020528060005260406000206000915090505481565b600080600080600080600080600080600560008d73ffffffffffffffffffffffffffffffffffffffff1673ffffffffffffffffffffffffffffffffffffffff168152602001908152602001600020805490508b10151561101657600080fd5b600560008d73ffffffffffffffffffffffffffffffffffffffff1673ffffffffffffffffffffffffffffffffffffffff1681526020019081526020016000208b81548110151561106257fe5b9060005260206000209060040201600001549450600560008d73ffffffffffffffffffffffffffffffffffffffff1673ffffffffffffffffffffffffffffffffffffffff1681526020019081526020016000208b8154811015156110c257fe5b9060005260206000209060040201600101549350600560008d73ffffffffffffffffffffffffffffffffffffffff1673ffffffffffffffffffffffffffffffffffffffff1681526020019081526020016000208b81548110151561112257fe5b9060005260206000209060040201600201549250600560008d73ffffffffffffffffffffffffffffffffffffffff1673ffffffffffffffffffffffffffffffffffffffff1681526020019081526020016000208b81548110151561118257fe5b906000526020600020906004020160030160009054906101000a900460ff169150600090508484848460038111156111b657fe5b849950995099509950995050505050509295509295909350565b60015481565b6000600960008373ffffffffffffffffffffffffffffffffffffffff1673ffffffffffffffffffffffffffffffffffffffff168152602001908152602001600020549050919050565b600260019054906101000a900473ffffffffffffffffffffffffffffffffffffffff1673ffffffffffffffffffffffffffffffffffffffff163373ffffffffffffffffffffffffffffffffffffffff1614151561127b57600080fd5b600260009054906101000a900460ff1615151561129757600080fd5b60015481111515156112a857600080fd5b6001600260006101000a81548160ff0219169083151502179055506112d8816001546120c190919063ffffffff16565b600181905550600260019054906101000a900473ffffffffffffffffffffffffffffffffffffffff1673ffffffffffffffffffffffffffffffffffffffff166108fc829081150290604051600060405180830381858888f19350505050158015611346573d6000803e3d6000fd5b506000600260006101000a81548160ff0219169083151502179055507fc67a6e2c9e13b320d5ce7e24743ea93ba9261320310966dd6240569493690eff816040518082815260200191505060405180910390a150565b60046020528060005260406000206000915054906101000a900460ff1681565b6000600860008373ffffffffffffffffffffffffffffffffffffffff1673ffffffffffffffffffffffffffffffffffffffff168152602001908152602001600020549050919050565b601e81565b600260019054906101000a900473ffffffffffffffffffffffffffffffffffffffff1673ffffffffffffffffffffffffffffffffffffffff163373ffffffffffffffffffffffffffffffffffffffff1614151561146657600080fd5b80600011158015611478575060648111155b151561148357600080fd5b806000819055507f2f30ac359ed0e20f9b98a846d1572189822c7b4ec013d704e0783115e434db27816040518082815260200191505060405180910390a150565b6005602052816000526040600020818154811015156114df57fe5b9060005260206000209060040201600091509150508060000154908060010154908060020154908060030160009054906101000a900460ff16905084565b600080600080600080600080600080600660008d73ffffffffffffffffffffffffffffffffffffffff1673ffffffffffffffffffffffffffffffffffffffff168152602001908152602001600020805490508b10151561157c57600080fd5b600660008d73ffffffffffffffffffffffffffffffffffffffff1673ffffffffffffffffffffffffffffffffffffffff1681526020019081526020016000208b8154811015156115c857fe5b9060005260206000209060040201600001549450600660008d73ffffffffffffffffffffffffffffffffffffffff1673ffffffffffffffffffffffffffffffffffffffff1681526020019081526020016000208b81548110151561162857fe5b9060005260206000209060040201600101549350600660008d73ffffffffffffffffffffffffffffffffffffffff1673ffffffffffffffffffffffffffffffffffffffff1681526020019081526020016000208b81548110151561168857fe5b9060005260206000209060040201600201549250600660008d73ffffffffffffffffffffffffffffffffffffffff1673ffffffffffffffffffffffffffffffffffffffff1681526020019081526020016000208b8154811015156116e857fe5b906000526020600020906004020160030160009054906101000a900460ff16915042600f860111905084848484600381111561172057fe5b849950995099509950995050505050509295509295909350565b600260019054906101000a900473ffffffffffffffffffffffffffffffffffffffff1681565b6000600260019054906101000a900473ffffffffffffffffffffffffffffffffffffffff1673ffffffffffffffffffffffffffffffffffffffff163373ffffffffffffffffffffffffffffffffffffffff1614905090565b6000600760008373ffffffffffffffffffffffffffffffffffffffff1673ffffffffffffffffffffffffffffffffffffffff168152602001908152602001600020549050919050565b600f81565b60066020528160005260406000208181548110151561182157fe5b9060005260206000209060040201600091509150508060000154908060010154908060020154908060030160009054906101000a900460ff16905084565b60038181548110151561186e57fe5b906000526020600020016000915054906101000a900473ffffffffffffffffffffffffffffffffffffffff1681565b600080600260019054906101000a900473ffffffffffffffffffffffffffffffffffffffff1673ffffffffffffffffffffffffffffffffffffffff163373ffffffffffffffffffffffffffffffffffffffff161415156118fc57600080fd5b60005483141515611911576119108361140a565b5b600154841115151561192257600080fd5b600460008673ffffffffffffffffffffffffffffffffffffffff1673ffffffffffffffffffffffffffffffffffffffff16815260200190815260200160002060009054906101000a900460ff16151561197f5761197e856120da565b5b6119a760646119996000548761226790919063ffffffff16565b61229a90919063ffffffff16565b91506119bc82856120c190919063ffffffff16565b90506119c885836122b5565b6119d285826123b0565b6119e7846001546120c190919063ffffffff16565b600181905550611a3f84600760008873ffffffffffffffffffffffffffffffffffffffff1673ffffffffffffffffffffffffffffffffffffffff1681526020019081526020016000205461099690919063ffffffff16565b600760008773ffffffffffffffffffffffffffffffffffffffff1673ffffffffffffffffffffffffffffffffffffffff168152602001908152602001600020819055507f0af5b4bb4bde1ba8d1310c81bc038775802dd1fc8610862258145f44632f08aa8585604051808373ffffffffffffffffffffffffffffffffffffffff1673ffffffffffffffffffffffffffffffffffffffff1681526020018281526020019250505060405180910390a15050505050565b60076020528060005260406000206000915090505481565b60086020528060005260406000206000915090505481565b60005481565b600080600460003373ffffffffffffffffffffffffffffffffffffffff1673ffffffffffffffffffffffffffffffffffffffff16815260200190815260200160002060009054906101000a900460ff161515611b8557600080fd5b600260009054906101000a900460ff16151515611ba157600080fd5b339150600860008373ffffffffffffffffffffffffffffffffffffffff1673ffffffffffffffffffffffffffffffffffffffff168152602001908152602001600020549050600081111515611bf557600080fd5b6001600260006101000a81548160ff021916908315150217905550611c6281600960008573ffffffffffffffffffffffffffffffffffffffff1673ffffffffffffffffffffffffffffffffffffffff1681526020019081526020016000205461099690919063ffffffff16565b600960008473ffffffffffffffffffffffffffffffffffffffff1673ffffffffffffffffffffffffffffffffffffffff168152602001908152602001600020819055506000600860008473ffffffffffffffffffffffffffffffffffffffff1673ffffffffffffffffffffffffffffffffffffffff16815260200190815260200160002081905550611cf26124ab565b8173ffffffffffffffffffffffffffffffffffffffff166108fc829081150290604051600060405180830381858888f19350505050158015611d38573d6000803e3d6000fd5b506000600260006101000a81548160ff0219169083151502179055507f8141602dfea6211bce1de52d5b4ea2acbcee367345f53fd43dcb1380245b07ef8282604051808373ffffffffffffffffffffffffffffffffffffffff1673ffffffffffffffffffffffffffffffffffffffff1681526020018281526020019250505060405180910390a15050565b6000600560008373ffffffffffffffffffffffffffffffffffffffff1673ffffffffffffffffffffffffffffffffffffffff168152602001908152602001600020805490509050919050565b600080600260019054906101000a900473ffffffffffffffffffffffffffffffffffffffff1673ffffffffffffffffffffffffffffffffffffffff163373ffffffffffffffffffffffffffffffffffffffff16141515611e6e57600080fd5b600460008673ffffffffffffffffffffffffffffffffffffffff1673ffffffffffffffffffffffffffffffffffffffff16815260200190815260200160002060009054906101000a900460ff161515611ec657600080fd5b60009150611ed3856109b4565b8315611f475782600011158015611f2b5750600660008673ffffffffffffffffffffffffffffffffffffffff1673ffffffffffffffffffffffffffffffffffffffff1681526020019081526020016000208054905083105b1515611f3657600080fd5b611f408584612723565b9150611fc2565b600090505b600660008673ffffffffffffffffffffffffffffffffffffffff1673ffffffffffffffffffffffffffffffffffffffff16815260200190815260200160002080549050811015611fc157611fb2611fa38683612723565b8361099690919063ffffffff16565b91508080600101915050611f4c565b5b611fd78260015461099690919063ffffffff16565b6001819055507f66666578c836dc01e1a47b3552eae6199e273c425f03e253aa358f69fc187cbe826040518082815260200191505060405180910390a15050505050565b600260009054906101000a900460ff1615151561203757600080fd5b6001600260006101000a81548160ff0219169083151502179055506120673460015461099690919063ffffffff16565b6001819055506000600260006101000a81548160ff0219169083151502179055507ff00085b2990817babd1586c95bf38c55ad05f237b6751cbe08b8a45b7a852e21346040518082815260200191505060405180910390a1565b60008282111515156120cf57fe5b818303905092915050565b600460008273ffffffffffffffffffffffffffffffffffffffff1673ffffffffffffffffffffffffffffffffffffffff16815260200190815260200160002060009054906101000a900460ff1615151561213357600080fd5b60038190806001815401808255809150509060018203906000526020600020016000909192909190916101000a81548173ffffffffffffffffffffffffffffffffffffffff021916908373ffffffffffffffffffffffffffffffffffffffff160217905550506001600460008373ffffffffffffffffffffffffffffffffffffffff1673ffffffffffffffffffffffffffffffffffffffff16815260200190815260200160002060006101000a81548160ff0219169083151502179055507fcb0a32863f19fa75ac0ffa8c4857aca955881c7dfdbd41dca2fa7895aada674881600160038054905003604051808373ffffffffffffffffffffffffffffffffffffffff1673ffffffffffffffffffffffffffffffffffffffff1681526020018281526020019250505060405180910390a150565b60008082840290506000841480612288575082848281151561228557fe5b04145b151561229057fe5b8091505092915050565b60008082848115156122a857fe5b0490508091505092915050565b60006122bf612916565b601e91506080604051908101604052804281526020018342018152602001848152602001600060038111156122f057fe5b8152509050600560008573ffffffffffffffffffffffffffffffffffffffff1673ffffffffffffffffffffffffffffffffffffffff168152602001908152602001600020819080600181540180825580915050906001820390600052602060002090600402016000909192909190915060008201518160000155602082015181600101556040820151816002015560608201518160030160006101000a81548160ff021916908360038111156123a257fe5b021790555050505050505050565b60006123ba612916565b601e91506080604051908101604052804281526020018342018152602001848152602001600060038111156123eb57fe5b8152509050600660008573ffffffffffffffffffffffffffffffffffffffff1673ffffffffffffffffffffffffffffffffffffffff168152602001908152602001600020819080600181540180825580915050906001820390600052602060002090600402016000909192909190915060008201518160000155602082015181600101556040820151816002015560608201518160030160006101000a81548160ff0219169083600381111561249d57fe5b021790555050505050505050565b600080339150600090505b600660008373ffffffffffffffffffffffffffffffffffffffff1673ffffffffffffffffffffffffffffffffffffffff1681526020019081526020016000208054905081101561271f576001600381111561250d57fe5b600660008473ffffffffffffffffffffffffffffffffffffffff1673ffffffffffffffffffffffffffffffffffffffff1681526020019081526020016000208281548110151561255957fe5b906000526020600020906004020160030160009054906101000a900460ff16600381111561258357fe5b1415612609576002600660008473ffffffffffffffffffffffffffffffffffffffff1673ffffffffffffffffffffffffffffffffffffffff168152602001908152602001600020828154811015156125d757fe5b906000526020600020906004020160030160006101000a81548160ff0219169083600381111561260357fe5b02179055505b6001600381111561261657fe5b600560008473ffffffffffffffffffffffffffffffffffffffff1673ffffffffffffffffffffffffffffffffffffffff1681526020019081526020016000208281548110151561266257fe5b906000526020600020906004020160030160009054906101000a900460ff16600381111561268c57fe5b1415612712576002600560008473ffffffffffffffffffffffffffffffffffffffff1673ffffffffffffffffffffffffffffffffffffffff168152602001908152602001600020828154811015156126e057fe5b906000526020600020906004020160030160006101000a81548160ff0219169083600381111561270c57fe5b02179055505b80806001019150506124b6565b5050565b60008042600f600660008773ffffffffffffffffffffffffffffffffffffffff1673ffffffffffffffffffffffffffffffffffffffff1681526020019081526020016000208581548110151561277557fe5b90600052602060002090600402016000015401111561290a57600660008573ffffffffffffffffffffffffffffffffffffffff1673ffffffffffffffffffffffffffffffffffffffff168152602001908152602001600020838154811015156127da57fe5b90600052602060002090600402016002015490506003600660008673ffffffffffffffffffffffffffffffffffffffff1673ffffffffffffffffffffffffffffffffffffffff1681526020019081526020016000208481548110151561283c57fe5b906000526020600020906004020160030160006101000a81548160ff0219169083600381111561286857fe5b02179055506128bf81600760008773ffffffffffffffffffffffffffffffffffffffff1673ffffffffffffffffffffffffffffffffffffffff168152602001908152602001600020546120c190919063ffffffff16565b600760008673ffffffffffffffffffffffffffffffffffffffff1673ffffffffffffffffffffffffffffffffffffffff1681526020019081526020016000208190555080915061290f565b600091505b5092915050565b6080604051908101604052806000815260200160008152602001600081526020016000600381111561294457fe5b815250905600a165627a7a72305820c57a25b184ee914a313a4b6f346249543d77ff70f132c4b7c38dd6dfe828e7cb0029",
  "source": "pragma solidity ^0.4.23;\r\n\r\nimport './SafeMath.sol';\r\n\r\ncontract NextyBonus {\r\n    using SafeMath for uint256;\r\n    \r\n    //uint256 public constant BONUS_REMOVEALBE_DURATION= 180*24*60*60; // 180 days in second\r\n    //uint256 public constant LOCK_DURATION= 365*24*60*60; // 365 days in second\r\n    uint256 public constant BONUS_REMOVEALBE_DURATION= 15; // 180 days in second\r\n    uint256 public constant LOCK_DURATION= 30; // 365 days in second\r\n    \r\n    uint256 public FIXED_PERCENT; //not constant\r\n    uint256 public totalAmount= 0;\r\n    \r\n    bool reEntrancyMutex = false;\r\n    \r\n    enum StatusType {\r\n        Locked,\r\n        Unlocked,\r\n        Withdrawn,\r\n        Removed     //Bonus amount only\r\n    }\r\n\r\n    struct LockAtribute {\r\n        uint256 time;\r\n        uint256 endTime;\r\n        uint256 value;\r\n        StatusType lockStatus;\r\n    }\r\n    \r\n    address public owner;\r\n    \r\n    address[] public member;\r\n    \r\n    mapping(address => bool) public whiteList;\r\n    \r\n    mapping(address => LockAtribute[]) public fixedAmount;\r\n    mapping(address => LockAtribute[]) public bonusAmount;\r\n    mapping(address => uint256) public lockedAmount;\r\n    mapping(address => uint256) public unlockedAmount;\r\n    mapping(address => uint256) public withdrawnAmount;\r\n    \r\n    //Modifiers\r\n\r\n    modifier onlyOwner() {\r\n        require(msg.sender == owner);\r\n        _;\r\n    }\r\n    \r\n    modifier onlyMember() {\r\n        require(whiteList[msg.sender]);\r\n        _;\r\n    }\r\n    \r\n    //Owners Events\r\n\r\n    event ChangePercentSuccess(uint256 _percent);\r\n    event AddMemberSuccess(address _address, uint256 _sorter);\r\n    event CreatedSuccess(address _address, uint256 _amount);\r\n    event RemovedSuccess(uint256 _amount);\r\n    event OwnerWithdrawSuccess(uint256 _amount);\r\n    event OwnerDepositSuccess(uint256 _amount);\r\n\r\n    //Members Events\r\n    \r\n    event MemberWithdrawSuccess(address _address, uint256 _amount);\r\n    \r\n    //Owner's Functions\r\n\r\n    constructor (uint256 _percent) public{ \r\n        owner= msg.sender;\r\n        setFixedPercent(_percent);\r\n        addMember(msg.sender); // owner at 1st place in the member array\r\n    }\r\n    \r\n    function () public payable {\r\n        require(!reEntrancyMutex);\r\n        reEntrancyMutex = true; \r\n        totalAmount= totalAmount.add(msg.value);\r\n        reEntrancyMutex = false; \r\n    }\r\n\r\n    function deposit() public payable {\r\n        require(!reEntrancyMutex);\r\n        reEntrancyMutex = true; \r\n        totalAmount= totalAmount.add(msg.value);\r\n        reEntrancyMutex = false; \r\n        emit OwnerDepositSuccess(msg.value);\r\n    }\r\n    \r\n    function setFixedPercent(uint256 _percent) onlyOwner public {\r\n        require((0 <= _percent) && (_percent <= 100));\r\n        FIXED_PERCENT= _percent;\r\n        emit ChangePercentSuccess(_percent);\r\n    }\r\n    \r\n    function ownerWithdraw(uint256 _amount) onlyOwner public {\r\n        require(!reEntrancyMutex);\r\n        require(_amount <= totalAmount);\r\n        reEntrancyMutex = true;\r\n        totalAmount= totalAmount.sub(_amount);\r\n        owner.transfer(_amount);\r\n        reEntrancyMutex = false;\r\n        emit OwnerWithdrawSuccess(_amount);\r\n    }\r\n    \r\n    function addMember(address _address) private {\r\n        require(!whiteList[_address]);\r\n        member.push(_address);\r\n        whiteList[_address]= true;\r\n        emit AddMemberSuccess(_address, member.length-1);\r\n    }\r\n    \r\n    function createFixedAmount(address _address, uint256 _amount) private {\r\n        uint256 lockDuration= LOCK_DURATION; //in second\r\n        \r\n        LockAtribute memory newAmount = LockAtribute({\r\n            time: now,\r\n            endTime: now + lockDuration,\r\n            value: _amount,\r\n            lockStatus: StatusType.Locked\r\n        });\r\n        \r\n        fixedAmount[_address].push(newAmount);\r\n    }\r\n    \r\n    function createBonusAmount(address _address, uint256 _amount) private {\r\n        uint256 lockDuration= LOCK_DURATION; //in second\r\n        \r\n        LockAtribute memory newAmount = LockAtribute({\r\n            time: now,\r\n            endTime: now + lockDuration,\r\n            value: _amount,\r\n            lockStatus: StatusType.Locked\r\n        });\r\n        \r\n        bonusAmount[_address].push(newAmount);\r\n    }\r\n    \r\n    function createLockedAmount(address _address, uint256 _amount, uint256 _fixedPercent) onlyOwner public {\r\n        if (_fixedPercent != FIXED_PERCENT) setFixedPercent(_fixedPercent);\r\n        require(_amount <= totalAmount);\r\n        //require(whiteList[_address]);\r\n        if (!whiteList[_address]) addMember(_address);\r\n\r\n        uint256 newFixedAmount= _amount.mul(FIXED_PERCENT).div(100);\r\n        uint256 newBonusAmount= _amount.sub(newFixedAmount);\r\n        \r\n        createFixedAmount(_address, newFixedAmount);\r\n        createBonusAmount(_address, newBonusAmount);\r\n        \r\n        totalAmount= totalAmount.sub(_amount);\r\n        lockedAmount[_address]= lockedAmount[_address].add(_amount);\r\n        emit CreatedSuccess(_address, _amount);\r\n    }\r\n    \r\n    function updateStatus(address _address) public {\r\n        for (uint256 i= 0; i< bonusAmount[_address].length; i++) {\r\n            if ((bonusAmount[_address][i].lockStatus == StatusType.Locked) && \r\n            (bonusAmount[_address][i].endTime < now)){\r\n                bonusAmount[_address][i].lockStatus= StatusType.Unlocked;\r\n                lockedAmount[_address]-= bonusAmount[_address][i].value;\r\n                unlockedAmount[_address]+= bonusAmount[_address][i].value;\r\n            }\r\n            \r\n            if ((fixedAmount[_address][i].lockStatus == StatusType.Locked) && \r\n            (fixedAmount[_address][i].endTime < now)){\r\n                fixedAmount[_address][i].lockStatus= StatusType.Unlocked;\r\n                lockedAmount[_address]-= fixedAmount[_address][i].value;\r\n                unlockedAmount[_address]+= fixedAmount[_address][i].value;\r\n            }\r\n        }\r\n    }\r\n    \r\n    function removeSpecificBonusAmount(address _address, uint256 _amountId) private returns(uint256) {\r\n        //if still removeable, remove and add amount into totalAmount    \r\n        if (bonusAmount[_address][_amountId].time + BONUS_REMOVEALBE_DURATION > now) {\r\n            uint256 value=bonusAmount[_address][_amountId].value;\r\n            bonusAmount[_address][_amountId].lockStatus= StatusType.Removed;\r\n            lockedAmount[_address]= lockedAmount[_address].sub(value);\r\n            return value;\r\n        }\r\n        return 0;\r\n    }\r\n    \r\n    function removeBonusAmount(address _address, bool _isSpecific, uint256 _amountId) onlyOwner public {\r\n        require(whiteList[_address]);\r\n        uint256 removedAmount= 0;\r\n        updateStatus(_address);\r\n        \r\n        if (_isSpecific) {\r\n            require((0 <= _amountId) && (_amountId <  bonusAmount[_address].length));\r\n            removedAmount= removeSpecificBonusAmount(_address, _amountId);\r\n        } else {\r\n            // remove all bonusAmount => search all bonusAmount sent to this _address\r\n            for (uint256 i= 0; i< bonusAmount[_address].length; i++) {\r\n                removedAmount= removedAmount.add(removeSpecificBonusAmount(_address, i));\r\n            }\r\n        }\r\n\r\n        totalAmount= totalAmount.add(removedAmount);\r\n        emit RemovedSuccess(removedAmount);\r\n    }\r\n    \r\n    //Members Functions\r\n    \r\n    function setUnlockedToWithdrawn() private {\r\n        address _address= msg.sender;\r\n        for (uint256 i= 0; i< bonusAmount[_address].length; i++) {\r\n            //if Unlocked\r\n            if (bonusAmount[_address][i].lockStatus == StatusType.Unlocked) {\r\n                bonusAmount[_address][i].lockStatus= StatusType.Withdrawn;\r\n            }\r\n            \r\n            if (fixedAmount[_address][i].lockStatus == StatusType.Unlocked) {\r\n                fixedAmount[_address][i].lockStatus= StatusType.Withdrawn;\r\n            }\r\n        }\r\n    }\r\n    \r\n    function memberWithdraw() onlyMember public {\r\n        require(!reEntrancyMutex);\r\n\r\n        address _address=msg.sender;\r\n        uint256 amount= unlockedAmount[_address]; // Withdraw amount\r\n        require(amount > 0);  \r\n\r\n        reEntrancyMutex = true;\r\n        \r\n        withdrawnAmount[_address]= withdrawnAmount[_address].add(amount);\r\n        unlockedAmount[_address]= 0;\r\n        setUnlockedToWithdrawn();\r\n        _address.transfer(amount);\r\n\r\n        reEntrancyMutex = false; \r\n        emit MemberWithdrawSuccess(_address, amount);\r\n    }\r\n    \r\n    //Public Functions\r\n\r\n    function getLockedAmount(address _address) public view returns(uint256) {\r\n        //updateStatus(_address);\r\n        return lockedAmount[_address];\r\n    }\r\n    \r\n    function getUnlockedAmount(address _address) public view returns(uint256) {\r\n        //updateStatus(_address);\r\n        return unlockedAmount[_address];\r\n    }\r\n    \r\n    function getWithdrawnAmount(address _address) public view returns(uint256) {\r\n        return withdrawnAmount[_address];\r\n    }\r\n    \r\n    function getFixedHistory(address _address, uint256 i) public view returns(uint256, uint256, uint256, uint256, bool){\r\n        require(i < fixedAmount[_address].length);\r\n        uint256  time;\r\n        uint256 endTime;\r\n        uint256  value;\r\n        StatusType  lockStatus;\r\n        bool removeable;\r\n        \r\n        time= fixedAmount[_address][i].time;\r\n        endTime= fixedAmount[_address][i].endTime;\r\n        value= fixedAmount[_address][i].value;\r\n        lockStatus= fixedAmount[_address][i].lockStatus;\r\n        removeable= false;\r\n        \r\n        return (time, endTime, value, uint256(lockStatus), removeable);\r\n    }\r\n    \r\n    function getBonusHistory(address _address, uint256 i) public view returns(uint256, uint256, uint256, uint256, bool){\r\n        require(i < bonusAmount[_address].length);\r\n        uint256  time;\r\n        uint256 endTime;\r\n        uint256  value;\r\n        StatusType  lockStatus;\r\n        bool removeable;\r\n        \r\n        time= bonusAmount[_address][i].time;\r\n        endTime= bonusAmount[_address][i].endTime;\r\n        value= bonusAmount[_address][i].value;\r\n        lockStatus= bonusAmount[_address][i].lockStatus;\r\n        removeable= (time + BONUS_REMOVEALBE_DURATION > now);\r\n        \r\n        return (time, endTime, value, uint256(lockStatus), removeable);\r\n    }\r\n\r\n    function getHistoryLength(address _address) public view returns(uint256){\r\n        return fixedAmount[_address].length;\r\n    }\r\n\r\n    function isOwner() public view returns(bool) {\r\n        return (msg.sender == owner);\r\n    }\r\n    \r\n}",
  "sourcePath": "C:\\Users\\bestb\\Desktop\\nodejs\\NextyBonus\\contracts\\NextyBonus.sol",
  "compiler": {
    "name": "solc",
    "version": "0.4.24+commit.e67f0147.Emscripten.clang"
  },
  "schemaVersion": "2.0.1",
  "updatedAt": "2018-08-01T02:18:44.630Z"
}