{
  "contractName": "NextyBonus",
  "abi": [
    {
      "constant": true,
      "inputs": [
        {
          "name": "",
          "type": "address"
        }
      ],
      "name": "withdrawnAmount",
      "outputs": [
        {
          "name": "",
          "type": "uint256"
        }
      ],
      "payable": false,
      "stateMutability": "view",
      "type": "function"
    },
    {
      "constant": true,
      "inputs": [],
      "name": "totalAmount",
      "outputs": [
        {
          "name": "",
          "type": "uint256"
        }
      ],
      "payable": false,
      "stateMutability": "view",
      "type": "function"
    },
    {
      "constant": true,
      "inputs": [
        {
          "name": "",
          "type": "address"
        }
      ],
      "name": "whiteList",
      "outputs": [
        {
          "name": "",
          "type": "bool"
        }
      ],
      "payable": false,
      "stateMutability": "view",
      "type": "function"
    },
    {
      "constant": true,
      "inputs": [],
      "name": "LOCK_DURATION",
      "outputs": [
        {
          "name": "",
          "type": "uint256"
        }
      ],
      "payable": false,
      "stateMutability": "view",
      "type": "function"
    },
    {
      "constant": true,
      "inputs": [
        {
          "name": "",
          "type": "address"
        },
        {
          "name": "",
          "type": "uint256"
        }
      ],
      "name": "fixedAmount",
      "outputs": [
        {
          "name": "startTime",
          "type": "uint256"
        },
        {
          "name": "endTime",
          "type": "uint256"
        },
        {
          "name": "value",
          "type": "uint256"
        },
        {
          "name": "lockStatus",
          "type": "uint8"
        }
      ],
      "payable": false,
      "stateMutability": "view",
      "type": "function"
    },
    {
      "constant": true,
      "inputs": [],
      "name": "owner",
      "outputs": [
        {
          "name": "",
          "type": "address"
        }
      ],
      "payable": false,
      "stateMutability": "view",
      "type": "function"
    },
    {
      "constant": true,
      "inputs": [],
      "name": "BONUS_REMOVEALBE_DURATION",
      "outputs": [
        {
          "name": "",
          "type": "uint256"
        }
      ],
      "payable": false,
      "stateMutability": "view",
      "type": "function"
    },
    {
      "constant": true,
      "inputs": [
        {
          "name": "",
          "type": "address"
        },
        {
          "name": "",
          "type": "uint256"
        }
      ],
      "name": "bonusAmount",
      "outputs": [
        {
          "name": "startTime",
          "type": "uint256"
        },
        {
          "name": "endTime",
          "type": "uint256"
        },
        {
          "name": "value",
          "type": "uint256"
        },
        {
          "name": "lockStatus",
          "type": "uint8"
        }
      ],
      "payable": false,
      "stateMutability": "view",
      "type": "function"
    },
    {
      "constant": true,
      "inputs": [
        {
          "name": "",
          "type": "uint256"
        }
      ],
      "name": "member",
      "outputs": [
        {
          "name": "",
          "type": "address"
        }
      ],
      "payable": false,
      "stateMutability": "view",
      "type": "function"
    },
    {
      "constant": true,
      "inputs": [
        {
          "name": "",
          "type": "address"
        }
      ],
      "name": "lockedAmount",
      "outputs": [
        {
          "name": "",
          "type": "uint256"
        }
      ],
      "payable": false,
      "stateMutability": "view",
      "type": "function"
    },
    {
      "constant": true,
      "inputs": [
        {
          "name": "",
          "type": "address"
        }
      ],
      "name": "unlockedAmount",
      "outputs": [
        {
          "name": "",
          "type": "uint256"
        }
      ],
      "payable": false,
      "stateMutability": "view",
      "type": "function"
    },
    {
      "constant": true,
      "inputs": [],
      "name": "FIXED_PERCENT",
      "outputs": [
        {
          "name": "",
          "type": "uint256"
        }
      ],
      "payable": false,
      "stateMutability": "view",
      "type": "function"
    },
    {
      "inputs": [
        {
          "name": "_percent",
          "type": "uint256"
        }
      ],
      "payable": false,
      "stateMutability": "nonpayable",
      "type": "constructor"
    },
    {
      "anonymous": false,
      "inputs": [
        {
          "indexed": false,
          "name": "_percent",
          "type": "uint256"
        }
      ],
      "name": "ChangePercentSuccess",
      "type": "event"
    },
    {
      "anonymous": false,
      "inputs": [
        {
          "indexed": false,
          "name": "_address",
          "type": "address"
        },
        {
          "indexed": false,
          "name": "_sorter",
          "type": "uint256"
        }
      ],
      "name": "AddMemberSuccess",
      "type": "event"
    },
    {
      "anonymous": false,
      "inputs": [
        {
          "indexed": false,
          "name": "_address",
          "type": "address"
        },
        {
          "indexed": false,
          "name": "_amount",
          "type": "uint256"
        }
      ],
      "name": "CreatedSuccess",
      "type": "event"
    },
    {
      "anonymous": false,
      "inputs": [
        {
          "indexed": false,
          "name": "_amount",
          "type": "uint256"
        }
      ],
      "name": "RemovedSuccess",
      "type": "event"
    },
    {
      "anonymous": false,
      "inputs": [
        {
          "indexed": false,
          "name": "_amount",
          "type": "uint256"
        }
      ],
      "name": "OwnerWithdrawSuccess",
      "type": "event"
    },
    {
      "anonymous": false,
      "inputs": [
        {
          "indexed": false,
          "name": "_amount",
          "type": "uint256"
        }
      ],
      "name": "OwnerDepositSuccess",
      "type": "event"
    },
    {
      "anonymous": false,
      "inputs": [
        {
          "indexed": false,
          "name": "_address",
          "type": "address"
        },
        {
          "indexed": false,
          "name": "_amount",
          "type": "uint256"
        }
      ],
      "name": "MemberWithdrawSuccess",
      "type": "event"
    },
    {
      "constant": false,
      "inputs": [],
      "name": "deposit",
      "outputs": [],
      "payable": true,
      "stateMutability": "payable",
      "type": "function"
    },
    {
      "constant": false,
      "inputs": [
        {
          "name": "_percent",
          "type": "uint256"
        }
      ],
      "name": "setFixedPercent",
      "outputs": [],
      "payable": false,
      "stateMutability": "nonpayable",
      "type": "function"
    },
    {
      "constant": false,
      "inputs": [
        {
          "name": "_amount",
          "type": "uint256"
        }
      ],
      "name": "ownerWithdraw",
      "outputs": [],
      "payable": true,
      "stateMutability": "payable",
      "type": "function"
    },
    {
      "constant": false,
      "inputs": [
        {
          "name": "_address",
          "type": "address"
        },
        {
          "name": "_lockedAmount",
          "type": "uint256"
        }
      ],
      "name": "createLockedAmount",
      "outputs": [],
      "payable": false,
      "stateMutability": "nonpayable",
      "type": "function"
    },
    {
      "constant": false,
      "inputs": [
        {
          "name": "_address",
          "type": "address"
        }
      ],
      "name": "updateStatus",
      "outputs": [],
      "payable": false,
      "stateMutability": "nonpayable",
      "type": "function"
    },
    {
      "constant": false,
      "inputs": [
        {
          "name": "_address",
          "type": "address"
        },
        {
          "name": "_isSpecific",
          "type": "bool"
        },
        {
          "name": "_id",
          "type": "uint256"
        }
      ],
      "name": "removeBonusAmount",
      "outputs": [],
      "payable": false,
      "stateMutability": "nonpayable",
      "type": "function"
    },
    {
      "constant": false,
      "inputs": [],
      "name": "memberWithdraw",
      "outputs": [],
      "payable": false,
      "stateMutability": "nonpayable",
      "type": "function"
    },
    {
      "constant": true,
      "inputs": [
        {
          "name": "_address",
          "type": "address"
        }
      ],
      "name": "getLockedAmount",
      "outputs": [
        {
          "name": "",
          "type": "uint256"
        }
      ],
      "payable": false,
      "stateMutability": "view",
      "type": "function"
    },
    {
      "constant": true,
      "inputs": [
        {
          "name": "_address",
          "type": "address"
        }
      ],
      "name": "getUnlockedAmount",
      "outputs": [
        {
          "name": "",
          "type": "uint256"
        }
      ],
      "payable": false,
      "stateMutability": "view",
      "type": "function"
    },
    {
      "constant": true,
      "inputs": [
        {
          "name": "_address",
          "type": "address"
        }
      ],
      "name": "getWithdrawnAmount",
      "outputs": [
        {
          "name": "",
          "type": "uint256"
        }
      ],
      "payable": false,
      "stateMutability": "view",
      "type": "function"
    },
    {
      "constant": true,
      "inputs": [
        {
          "name": "_address",
          "type": "address"
        },
        {
          "name": "_id",
          "type": "uint256"
        }
      ],
      "name": "getFixedHistory",
      "outputs": [
        {
          "name": "",
          "type": "uint256"
        },
        {
          "name": "",
          "type": "uint256"
        },
        {
          "name": "",
          "type": "uint256"
        },
        {
          "name": "",
          "type": "uint256"
        },
        {
          "name": "",
          "type": "bool"
        }
      ],
      "payable": false,
      "stateMutability": "view",
      "type": "function"
    },
    {
      "constant": true,
      "inputs": [
        {
          "name": "_address",
          "type": "address"
        },
        {
          "name": "_id",
          "type": "uint256"
        }
      ],
      "name": "getBonusHistory",
      "outputs": [
        {
          "name": "",
          "type": "uint256"
        },
        {
          "name": "",
          "type": "uint256"
        },
        {
          "name": "",
          "type": "uint256"
        },
        {
          "name": "",
          "type": "uint256"
        },
        {
          "name": "",
          "type": "bool"
        }
      ],
      "payable": false,
      "stateMutability": "view",
      "type": "function"
    },
    {
      "constant": true,
      "inputs": [
        {
          "name": "_address",
          "type": "address"
        }
      ],
      "name": "getHistoryLength",
      "outputs": [
        {
          "name": "",
          "type": "uint256"
        }
      ],
      "payable": false,
      "stateMutability": "view",
      "type": "function"
    },
    {
      "constant": true,
      "inputs": [],
      "name": "isOwner",
      "outputs": [
        {
          "name": "",
          "type": "bool"
        }
      ],
      "payable": false,
      "stateMutability": "view",
      "type": "function"
    }
  ],
  "bytecode": "0x608060405260006001556000600260006101000a81548160ff0219169083151502179055503480156200003157600080fd5b5060405160208062002d4c8339810180604052810190808051906020019092919050505033600260016101000a81548173ffffffffffffffffffffffffffffffffffffffff021916908373ffffffffffffffffffffffffffffffffffffffff160217905550620000b081620000d1640100000000026401000000009004565b620000ca336200018e640100000000026401000000009004565b506200031c565b600260019054906101000a900473ffffffffffffffffffffffffffffffffffffffff1673ffffffffffffffffffffffffffffffffffffffff163373ffffffffffffffffffffffffffffffffffffffff161415156200012e57600080fd5b8060001115801562000141575060648111155b15156200014d57600080fd5b806000819055507f2f30ac359ed0e20f9b98a846d1572189822c7b4ec013d704e0783115e434db27816040518082815260200191505060405180910390a150565b600460008273ffffffffffffffffffffffffffffffffffffffff1673ffffffffffffffffffffffffffffffffffffffff16815260200190815260200160002060009054906101000a900460ff16151515620001e857600080fd5b60038190806001815401808255809150509060018203906000526020600020016000909192909190916101000a81548173ffffffffffffffffffffffffffffffffffffffff021916908373ffffffffffffffffffffffffffffffffffffffff160217905550506001600460008373ffffffffffffffffffffffffffffffffffffffff1673ffffffffffffffffffffffffffffffffffffffff16815260200190815260200160002060006101000a81548160ff0219169083151502179055507fcb0a32863f19fa75ac0ffa8c4857aca955881c7dfdbd41dca2fa7895aada674881600160038054905003604051808373ffffffffffffffffffffffffffffffffffffffff1673ffffffffffffffffffffffffffffffffffffffff1681526020018281526020019250505060405180910390a150565b612a20806200032c6000396000f300608060405260043610610154576000357c0100000000000000000000000000000000000000000000000000000000900463ffffffff16806301162b931461015957806310b201391461019c5780631127d700146101f35780631a39d8ef146102745780632d70715d1461029f57806333f707d1146102f6578063372c12b114610316578063420d4a0214610371578063485d3834146103c8578063491d00d6146103f357806357698b8614610420578063781e3e57146104a45780638da5cb5b146105255780638f32d59b1461057c578063929ec537146105ab578063943b15e314610602578063944953de1461062d578063956d113b146106b15780639a0606d01461071e578063a153e7081461076b578063a8988ce2146107c2578063a9cc67ab14610819578063ac69471114610844578063b14e52e81461085b578063b913394b146108b2578063d0e30db01461090b575b600080fd5b34801561016557600080fd5b5061019a600480360381019080803573ffffffffffffffffffffffffffffffffffffffff169060200190929190505050610915565b005b3480156101a857600080fd5b506101dd600480360381019080803573ffffffffffffffffffffffffffffffffffffffff169060200190929190505050610f90565b6040518082815260200191505060405180910390f35b3480156101ff57600080fd5b5061023e600480360381019080803573ffffffffffffffffffffffffffffffffffffffff16906020019092919080359060200190929190505050610fa8565b60405180868152602001858152602001848152602001838152602001821515151581526020019550505050505060405180910390f35b34801561028057600080fd5b506102896111c1565b6040518082815260200191505060405180910390f35b3480156102ab57600080fd5b506102e0600480360381019080803573ffffffffffffffffffffffffffffffffffffffff1690602001909291905050506111c7565b6040518082815260200191505060405180910390f35b61031460048036038101908080359060200190929190505050611210565b005b34801561032257600080fd5b50610357600480360381019080803573ffffffffffffffffffffffffffffffffffffffff16906020019092919050505061138d565b604051808215151515815260200191505060405180910390f35b34801561037d57600080fd5b506103b2600480360381019080803573ffffffffffffffffffffffffffffffffffffffff1690602001909291905050506113ad565b6040518082815260200191505060405180910390f35b3480156103d457600080fd5b506103dd6113f6565b6040518082815260200191505060405180910390f35b3480156103ff57600080fd5b5061041e600480360381019080803590602001909291905050506113fc565b005b34801561042c57600080fd5b5061046b600480360381019080803573ffffffffffffffffffffffffffffffffffffffff169060200190929190803590602001909291905050506114b6565b6040518085815260200184815260200183815260200182600381111561048d57fe5b60ff16815260200194505050505060405180910390f35b3480156104b057600080fd5b506104ef600480360381019080803573ffffffffffffffffffffffffffffffffffffffff1690602001909291908035906020019092919050505061150f565b60405180868152602001858152602001848152602001838152602001821515151581526020019550505050505060405180910390f35b34801561053157600080fd5b5061053a61175d565b604051808273ffffffffffffffffffffffffffffffffffffffff1673ffffffffffffffffffffffffffffffffffffffff16815260200191505060405180910390f35b34801561058857600080fd5b50610591611783565b604051808215151515815260200191505060405180910390f35b3480156105b757600080fd5b506105ec600480360381019080803573ffffffffffffffffffffffffffffffffffffffff1690602001909291905050506117db565b6040518082815260200191505060405180910390f35b34801561060e57600080fd5b50610617611824565b6040518082815260200191505060405180910390f35b34801561063957600080fd5b50610678600480360381019080803573ffffffffffffffffffffffffffffffffffffffff1690602001909291908035906020019092919050505061182a565b6040518085815260200184815260200183815260200182600381111561069a57fe5b60ff16815260200194505050505060405180910390f35b3480156106bd57600080fd5b506106dc60048036038101908080359060200190929190505050611883565b604051808273ffffffffffffffffffffffffffffffffffffffff1673ffffffffffffffffffffffffffffffffffffffff16815260200191505060405180910390f35b34801561072a57600080fd5b50610769600480360381019080803573ffffffffffffffffffffffffffffffffffffffff169060200190929190803590602001909291905050506118c1565b005b34801561077757600080fd5b506107ac600480360381019080803573ffffffffffffffffffffffffffffffffffffffff169060200190929190505050611b02565b6040518082815260200191505060405180910390f35b3480156107ce57600080fd5b50610803600480360381019080803573ffffffffffffffffffffffffffffffffffffffff169060200190929190505050611b1a565b6040518082815260200191505060405180910390f35b34801561082557600080fd5b5061082e611b32565b6040518082815260200191505060405180910390f35b34801561085057600080fd5b50610859611b38565b005b34801561086757600080fd5b5061089c600480360381019080803573ffffffffffffffffffffffffffffffffffffffff169060200190929190505050611dcc565b6040518082815260200191505060405180910390f35b3480156108be57600080fd5b50610909600480360381019080803573ffffffffffffffffffffffffffffffffffffffff16906020019092919080351515906020019092919080359060200190929190505050611e18565b005b610913612024565b005b60008090505b600660008373ffffffffffffffffffffffffffffffffffffffff1673ffffffffffffffffffffffffffffffffffffffff16815260200190815260200160002080549050811015610f8c576000600381111561097257fe5b600660008473ffffffffffffffffffffffffffffffffffffffff1673ffffffffffffffffffffffffffffffffffffffff168152602001908152602001600020828154811015156109be57fe5b906000526020600020906004020160030160009054906101000a900460ff1660038111156109e857fe5b148015610a51575042600660008473ffffffffffffffffffffffffffffffffffffffff1673ffffffffffffffffffffffffffffffffffffffff16815260200190815260200160002082815481101515610a3d57fe5b906000526020600020906004020160010154105b15610c72576001600660008473ffffffffffffffffffffffffffffffffffffffff1673ffffffffffffffffffffffffffffffffffffffff16815260200190815260200160002082815481101515610aa457fe5b906000526020600020906004020160030160006101000a81548160ff02191690836003811115610ad057fe5b0217905550610b84600660008473ffffffffffffffffffffffffffffffffffffffff1673ffffffffffffffffffffffffffffffffffffffff16815260200190815260200160002082815481101515610b2457fe5b906000526020600020906004020160020154600760008573ffffffffffffffffffffffffffffffffffffffff1673ffffffffffffffffffffffffffffffffffffffff168152602001908152602001600020546120ca90919063ffffffff16565b600760008473ffffffffffffffffffffffffffffffffffffffff1673ffffffffffffffffffffffffffffffffffffffff16815260200190815260200160002081905550600660008373ffffffffffffffffffffffffffffffffffffffff1673ffffffffffffffffffffffffffffffffffffffff16815260200190815260200160002081815481101515610c1357fe5b906000526020600020906004020160020154600860008473ffffffffffffffffffffffffffffffffffffffff1673ffffffffffffffffffffffffffffffffffffffff168152602001908152602001600020600082825401925050819055505b60006003811115610c7f57fe5b600560008473ffffffffffffffffffffffffffffffffffffffff1673ffffffffffffffffffffffffffffffffffffffff16815260200190815260200160002082815481101515610ccb57fe5b906000526020600020906004020160030160009054906101000a900460ff166003811115610cf557fe5b148015610d5e575042600560008473ffffffffffffffffffffffffffffffffffffffff1673ffffffffffffffffffffffffffffffffffffffff16815260200190815260200160002082815481101515610d4a57fe5b906000526020600020906004020160010154105b15610f7f576001600560008473ffffffffffffffffffffffffffffffffffffffff1673ffffffffffffffffffffffffffffffffffffffff16815260200190815260200160002082815481101515610db157fe5b906000526020600020906004020160030160006101000a81548160ff02191690836003811115610ddd57fe5b0217905550610e91600560008473ffffffffffffffffffffffffffffffffffffffff1673ffffffffffffffffffffffffffffffffffffffff16815260200190815260200160002082815481101515610e3157fe5b906000526020600020906004020160020154600760008573ffffffffffffffffffffffffffffffffffffffff1673ffffffffffffffffffffffffffffffffffffffff168152602001908152602001600020546120ca90919063ffffffff16565b600760008473ffffffffffffffffffffffffffffffffffffffff1673ffffffffffffffffffffffffffffffffffffffff16815260200190815260200160002081905550600560008373ffffffffffffffffffffffffffffffffffffffff1673ffffffffffffffffffffffffffffffffffffffff16815260200190815260200160002081815481101515610f2057fe5b906000526020600020906004020160020154600860008473ffffffffffffffffffffffffffffffffffffffff1673ffffffffffffffffffffffffffffffffffffffff168152602001908152602001600020600082825401925050819055505b808060010191505061091b565b5050565b60096020528060005260406000206000915090505481565b600080600080600080600080600080600560008d73ffffffffffffffffffffffffffffffffffffffff1673ffffffffffffffffffffffffffffffffffffffff168152602001908152602001600020805490508b10151561100757600080fd5b600560008d73ffffffffffffffffffffffffffffffffffffffff1673ffffffffffffffffffffffffffffffffffffffff1681526020019081526020016000208b81548110151561105357fe5b9060005260206000209060040201600001549450600560008d73ffffffffffffffffffffffffffffffffffffffff1673ffffffffffffffffffffffffffffffffffffffff1681526020019081526020016000208b8154811015156110b357fe5b9060005260206000209060040201600101549350600560008d73ffffffffffffffffffffffffffffffffffffffff1673ffffffffffffffffffffffffffffffffffffffff1681526020019081526020016000208b81548110151561111357fe5b9060005260206000209060040201600201549250600560008d73ffffffffffffffffffffffffffffffffffffffff1673ffffffffffffffffffffffffffffffffffffffff1681526020019081526020016000208b81548110151561117357fe5b906000526020600020906004020160030160009054906101000a900460ff169150600090508484848460038111156111a757fe5b849950995099509950995050505050509295509295909350565b60015481565b6000600960008373ffffffffffffffffffffffffffffffffffffffff1673ffffffffffffffffffffffffffffffffffffffff168152602001908152602001600020549050919050565b600260019054906101000a900473ffffffffffffffffffffffffffffffffffffffff1673ffffffffffffffffffffffffffffffffffffffff163373ffffffffffffffffffffffffffffffffffffffff1614151561126c57600080fd5b600260009054906101000a900460ff1615151561128857600080fd5b600154811115151561129957600080fd5b6001600260006101000a81548160ff0219169083151502179055506112c9816001546120ca90919063ffffffff16565b600181905550600260019054906101000a900473ffffffffffffffffffffffffffffffffffffffff1673ffffffffffffffffffffffffffffffffffffffff166108fc829081150290604051600060405180830381858888f19350505050158015611337573d6000803e3d6000fd5b507fc67a6e2c9e13b320d5ce7e24743ea93ba9261320310966dd6240569493690eff816040518082815260200191505060405180910390a16000600260006101000a81548160ff02191690831515021790555050565b60046020528060005260406000206000915054906101000a900460ff1681565b6000600860008373ffffffffffffffffffffffffffffffffffffffff1673ffffffffffffffffffffffffffffffffffffffff168152602001908152602001600020549050919050565b61025881565b600260019054906101000a900473ffffffffffffffffffffffffffffffffffffffff1673ffffffffffffffffffffffffffffffffffffffff163373ffffffffffffffffffffffffffffffffffffffff1614151561145857600080fd5b8060001115801561146a575060648111155b151561147557600080fd5b806000819055507f2f30ac359ed0e20f9b98a846d1572189822c7b4ec013d704e0783115e434db27816040518082815260200191505060405180910390a150565b6005602052816000526040600020818154811015156114d157fe5b9060005260206000209060040201600091509150508060000154908060010154908060020154908060030160009054906101000a900460ff16905084565b600080600080600080600080600080600660008d73ffffffffffffffffffffffffffffffffffffffff1673ffffffffffffffffffffffffffffffffffffffff168152602001908152602001600020805490508b10151561156e57600080fd5b60009050600660008d73ffffffffffffffffffffffffffffffffffffffff1673ffffffffffffffffffffffffffffffffffffffff1681526020019081526020016000208b8154811015156115be57fe5b9060005260206000209060040201600001549450600660008d73ffffffffffffffffffffffffffffffffffffffff1673ffffffffffffffffffffffffffffffffffffffff1681526020019081526020016000208b81548110151561161e57fe5b9060005260206000209060040201600101549350600660008d73ffffffffffffffffffffffffffffffffffffffff1673ffffffffffffffffffffffffffffffffffffffff1681526020019081526020016000208b81548110151561167e57fe5b9060005260206000209060040201600201549250600660008d73ffffffffffffffffffffffffffffffffffffffff1673ffffffffffffffffffffffffffffffffffffffff1681526020019081526020016000208b8154811015156116de57fe5b906000526020600020906004020160030160009054906101000a900460ff1691506000831115611734576000600381111561171557fe5b82600381111561172157fe5b14801561173157504261012c8601115b90505b84848484600381111561174357fe5b849950995099509950995050505050509295509295909350565b600260019054906101000a900473ffffffffffffffffffffffffffffffffffffffff1681565b6000600260019054906101000a900473ffffffffffffffffffffffffffffffffffffffff1673ffffffffffffffffffffffffffffffffffffffff163373ffffffffffffffffffffffffffffffffffffffff1614905090565b6000600760008373ffffffffffffffffffffffffffffffffffffffff1673ffffffffffffffffffffffffffffffffffffffff168152602001908152602001600020549050919050565b61012c81565b60066020528160005260406000208181548110151561184557fe5b9060005260206000209060040201600091509150508060000154908060010154908060020154908060030160009054906101000a900460ff16905084565b60038181548110151561189257fe5b906000526020600020016000915054906101000a900473ffffffffffffffffffffffffffffffffffffffff1681565b600080600260019054906101000a900473ffffffffffffffffffffffffffffffffffffffff1673ffffffffffffffffffffffffffffffffffffffff163373ffffffffffffffffffffffffffffffffffffffff1614151561192057600080fd5b600154831115151561193157600080fd5b600460008573ffffffffffffffffffffffffffffffffffffffff1673ffffffffffffffffffffffffffffffffffffffff16815260200190815260200160002060009054906101000a900460ff16151561198e5761198d846120e3565b5b6119b660646119a86000548661227090919063ffffffff16565b6122a390919063ffffffff16565b91506119cb82846120ca90919063ffffffff16565b90506119d784836122be565b6119e184826123b4565b6119f6836001546120ca90919063ffffffff16565b600181905550611a4e83600760008773ffffffffffffffffffffffffffffffffffffffff1673ffffffffffffffffffffffffffffffffffffffff168152602001908152602001600020546124aa90919063ffffffff16565b600760008673ffffffffffffffffffffffffffffffffffffffff1673ffffffffffffffffffffffffffffffffffffffff168152602001908152602001600020819055507f0af5b4bb4bde1ba8d1310c81bc038775802dd1fc8610862258145f44632f08aa8484604051808373ffffffffffffffffffffffffffffffffffffffff1673ffffffffffffffffffffffffffffffffffffffff1681526020018281526020019250505060405180910390a150505050565b60076020528060005260406000206000915090505481565b60086020528060005260406000206000915090505481565b60005481565b6000600460003373ffffffffffffffffffffffffffffffffffffffff1673ffffffffffffffffffffffffffffffffffffffff16815260200190815260200160002060009054906101000a900460ff161515611b9257600080fd5b600860003373ffffffffffffffffffffffffffffffffffffffff1673ffffffffffffffffffffffffffffffffffffffff168152602001908152602001600020549050600081111515611be357600080fd5b600260009054906101000a900460ff16151515611bff57600080fd5b6001600260006101000a81548160ff021916908315150217905550611c6c81600960003373ffffffffffffffffffffffffffffffffffffffff1673ffffffffffffffffffffffffffffffffffffffff168152602001908152602001600020546124aa90919063ffffffff16565b600960003373ffffffffffffffffffffffffffffffffffffffff1673ffffffffffffffffffffffffffffffffffffffff168152602001908152602001600020819055506000600860003373ffffffffffffffffffffffffffffffffffffffff1673ffffffffffffffffffffffffffffffffffffffff16815260200190815260200160002081905550611cfc6124c8565b3373ffffffffffffffffffffffffffffffffffffffff166108fc829081150290604051600060405180830381858888f19350505050158015611d42573d6000803e3d6000fd5b506000600260006101000a81548160ff0219169083151502179055507f8141602dfea6211bce1de52d5b4ea2acbcee367345f53fd43dcb1380245b07ef3382604051808373ffffffffffffffffffffffffffffffffffffffff1673ffffffffffffffffffffffffffffffffffffffff1681526020018281526020019250505060405180910390a150565b6000600560008373ffffffffffffffffffffffffffffffffffffffff1673ffffffffffffffffffffffffffffffffffffffff168152602001908152602001600020805490509050919050565b600080600260019054906101000a900473ffffffffffffffffffffffffffffffffffffffff1673ffffffffffffffffffffffffffffffffffffffff163373ffffffffffffffffffffffffffffffffffffffff16141515611e7757600080fd5b600460008673ffffffffffffffffffffffffffffffffffffffff1673ffffffffffffffffffffffffffffffffffffffff16815260200190815260200160002060009054906101000a900460ff161515611ecf57600080fd5b60009150611edc85610915565b8315611f505782600011158015611f345750600660008673ffffffffffffffffffffffffffffffffffffffff1673ffffffffffffffffffffffffffffffffffffffff1681526020019081526020016000208054905083105b1515611f3f57600080fd5b611f498584612740565b9150611fcb565b600090505b600660008673ffffffffffffffffffffffffffffffffffffffff1673ffffffffffffffffffffffffffffffffffffffff16815260200190815260200160002080549050811015611fca57611fbb611fac8683612740565b836124aa90919063ffffffff16565b91508080600101915050611f55565b5b611fe0826001546124aa90919063ffffffff16565b6001819055507f66666578c836dc01e1a47b3552eae6199e273c425f03e253aa358f69fc187cbe826040518082815260200191505060405180910390a15050505050565b600260009054906101000a900460ff1615151561204057600080fd5b6001600260006101000a81548160ff021916908315150217905550612070346001546124aa90919063ffffffff16565b6001819055507ff00085b2990817babd1586c95bf38c55ad05f237b6751cbe08b8a45b7a852e21346040518082815260200191505060405180910390a16000600260006101000a81548160ff021916908315150217905550565b60008282111515156120d857fe5b818303905092915050565b600460008273ffffffffffffffffffffffffffffffffffffffff1673ffffffffffffffffffffffffffffffffffffffff16815260200190815260200160002060009054906101000a900460ff1615151561213c57600080fd5b60038190806001815401808255809150509060018203906000526020600020016000909192909190916101000a81548173ffffffffffffffffffffffffffffffffffffffff021916908373ffffffffffffffffffffffffffffffffffffffff160217905550506001600460008373ffffffffffffffffffffffffffffffffffffffff1673ffffffffffffffffffffffffffffffffffffffff16815260200190815260200160002060006101000a81548160ff0219169083151502179055507fcb0a32863f19fa75ac0ffa8c4857aca955881c7dfdbd41dca2fa7895aada674881600160038054905003604051808373ffffffffffffffffffffffffffffffffffffffff1673ffffffffffffffffffffffffffffffffffffffff1681526020018281526020019250505060405180910390a150565b60008082840290506000841480612291575082848281151561228e57fe5b04145b151561229957fe5b8091505092915050565b60008082848115156122b157fe5b0490508091505092915050565b6122c66129c0565b60806040519081016040528042815260200161025842018152602001838152602001600060038111156122f557fe5b8152509050600560008473ffffffffffffffffffffffffffffffffffffffff1673ffffffffffffffffffffffffffffffffffffffff168152602001908152602001600020819080600181540180825580915050906001820390600052602060002090600402016000909192909190915060008201518160000155602082015181600101556040820151816002015560608201518160030160006101000a81548160ff021916908360038111156123a757fe5b0217905550505050505050565b6123bc6129c0565b60806040519081016040528042815260200161025842018152602001838152602001600060038111156123eb57fe5b8152509050600660008473ffffffffffffffffffffffffffffffffffffffff1673ffffffffffffffffffffffffffffffffffffffff168152602001908152602001600020819080600181540180825580915050906001820390600052602060002090600402016000909192909190915060008201518160000155602082015181600101556040820151816002015560608201518160030160006101000a81548160ff0219169083600381111561249d57fe5b0217905550505050505050565b60008082840190508381101515156124be57fe5b8091505092915050565b600080339150600090505b600660008373ffffffffffffffffffffffffffffffffffffffff1673ffffffffffffffffffffffffffffffffffffffff1681526020019081526020016000208054905081101561273c576001600381111561252a57fe5b600660008473ffffffffffffffffffffffffffffffffffffffff1673ffffffffffffffffffffffffffffffffffffffff1681526020019081526020016000208281548110151561257657fe5b906000526020600020906004020160030160009054906101000a900460ff1660038111156125a057fe5b1415612626576002600660008473ffffffffffffffffffffffffffffffffffffffff1673ffffffffffffffffffffffffffffffffffffffff168152602001908152602001600020828154811015156125f457fe5b906000526020600020906004020160030160006101000a81548160ff0219169083600381111561262057fe5b02179055505b6001600381111561263357fe5b600560008473ffffffffffffffffffffffffffffffffffffffff1673ffffffffffffffffffffffffffffffffffffffff1681526020019081526020016000208281548110151561267f57fe5b906000526020600020906004020160030160009054906101000a900460ff1660038111156126a957fe5b141561272f576002600560008473ffffffffffffffffffffffffffffffffffffffff1673ffffffffffffffffffffffffffffffffffffffff168152602001908152602001600020828154811015156126fd57fe5b906000526020600020906004020160030160006101000a81548160ff0219169083600381111561272957fe5b02179055505b80806001019150506124d3565b5050565b6000806000600381111561275057fe5b600660008673ffffffffffffffffffffffffffffffffffffffff1673ffffffffffffffffffffffffffffffffffffffff1681526020019081526020016000208481548110151561279c57fe5b906000526020600020906004020160030160009054906101000a900460ff1660038111156127c657fe5b14801561283357504261012c600660008773ffffffffffffffffffffffffffffffffffffffff1673ffffffffffffffffffffffffffffffffffffffff1681526020019081526020016000208581548110151561281e57fe5b90600052602060002090600402016000015401115b156129b457600660008573ffffffffffffffffffffffffffffffffffffffff1673ffffffffffffffffffffffffffffffffffffffff1681526020019081526020016000208381548110151561288457fe5b90600052602060002090600402016002015490506003600660008673ffffffffffffffffffffffffffffffffffffffff1673ffffffffffffffffffffffffffffffffffffffff168152602001908152602001600020848154811015156128e657fe5b906000526020600020906004020160030160006101000a81548160ff0219169083600381111561291257fe5b021790555061296981600760008773ffffffffffffffffffffffffffffffffffffffff1673ffffffffffffffffffffffffffffffffffffffff168152602001908152602001600020546120ca90919063ffffffff16565b600760008673ffffffffffffffffffffffffffffffffffffffff1673ffffffffffffffffffffffffffffffffffffffff168152602001908152602001600020819055508091506129b9565b600091505b5092915050565b608060405190810160405280600081526020016000815260200160008152602001600060038111156129ee57fe5b815250905600a165627a7a723058202bfa9fb2951c5112387956b59d88da03cd50cdf1e1ad1e9ffa93d74e7eed1a9c0029",
  "source": "pragma solidity ^0.4.23;\r\n\r\nimport './SafeMath.sol';\r\n\r\ncontract NextyBonus {\r\n    using SafeMath for uint256;\r\n    \r\n    //uint256 public constant BONUS_REMOVEALBE_DURATION= 180*24*60*60; // 180 days in second\r\n    //uint256 public constant LOCK_DURATION= 365*24*60*60; // 365 days in second\r\n    uint256 public constant BONUS_REMOVEALBE_DURATION= 5*60; // 180 days in second\r\n    uint256 public constant LOCK_DURATION= 10*60; // 365 days in second\r\n    \r\n    uint256 public FIXED_PERCENT; //not constant\r\n    uint256 public totalAmount= 0;\r\n    \r\n    bool reEntrancyMutex = false;\r\n    \r\n    enum StatusType {\r\n        Locked,\r\n        Unlocked,\r\n        Withdrawn,\r\n        Removed     //Bonus amount only\r\n    }\r\n\r\n    struct LockAtribute {\r\n        uint256 startTime;\r\n        uint256 endTime;\r\n        uint256 value;\r\n        StatusType lockStatus;\r\n    }\r\n    \r\n    address public owner;\r\n    \r\n    address[] public member;\r\n    \r\n    mapping(address => bool) public whiteList;\r\n    \r\n    mapping(address => LockAtribute[]) public fixedAmount;\r\n    mapping(address => LockAtribute[]) public bonusAmount;\r\n    mapping(address => uint256) public lockedAmount;\r\n    mapping(address => uint256) public unlockedAmount;\r\n    mapping(address => uint256) public withdrawnAmount;\r\n    \r\n    //Modifiers\r\n\r\n    modifier onlyOwner() {\r\n        require(msg.sender == owner);\r\n        _;\r\n    }\r\n    \r\n    modifier onlyMember() {\r\n        require(whiteList[msg.sender]);\r\n        _;\r\n    }\r\n    \r\n    //Owners Events\r\n\r\n    event ChangePercentSuccess(uint256 _percent);\r\n    event AddMemberSuccess(address _address, uint256 _sorter);\r\n    event CreatedSuccess(address _address, uint256 _amount);\r\n    event RemovedSuccess(uint256 _amount);\r\n    event OwnerWithdrawSuccess(uint256 _amount);\r\n    event OwnerDepositSuccess(uint256 _amount);\r\n\r\n    //Members Events\r\n    \r\n    event MemberWithdrawSuccess(address _address, uint256 _amount);\r\n    \r\n    //Owner's Functions\r\n\r\n    constructor (uint256 _percent) public{ \r\n        owner = msg.sender;\r\n        setFixedPercent(_percent);\r\n        addMember(msg.sender); // owner at 1st place in the member array\r\n    }\r\n\r\n    function deposit() public payable {\r\n        require (!reEntrancyMutex);\r\n        reEntrancyMutex = true; \r\n        totalAmount = totalAmount.add(msg.value);\r\n        emit OwnerDepositSuccess(msg.value);\r\n        reEntrancyMutex = false; \r\n    }\r\n    \r\n    function setFixedPercent(uint256 _percent) public onlyOwner {\r\n        require((0 <= _percent) && (_percent <= 100));\r\n        FIXED_PERCENT = _percent;\r\n        emit ChangePercentSuccess(_percent);\r\n    }\r\n    \r\n    function ownerWithdraw(uint256 _amount) public onlyOwner payable {\r\n        require(!reEntrancyMutex);\r\n        require(_amount <= totalAmount);\r\n        reEntrancyMutex = true;\r\n        totalAmount = totalAmount.sub(_amount);\r\n        owner.transfer(_amount);\r\n        emit OwnerWithdrawSuccess(_amount);\r\n        reEntrancyMutex = false;\r\n    }\r\n    \r\n    function addMember(address _address) private {\r\n        require(!whiteList[_address]);\r\n        member.push(_address);\r\n        whiteList[_address] = true;\r\n        emit AddMemberSuccess(_address, member.length-1);\r\n    }\r\n    \r\n    function createFixedAmount(address _address, uint256 _fixedAmount) private {\r\n        \r\n        LockAtribute memory _fixed = LockAtribute({\r\n            startTime: now,\r\n            endTime: now + LOCK_DURATION,\r\n            value: _fixedAmount,\r\n            lockStatus: StatusType.Locked\r\n        });\r\n        \r\n        fixedAmount[_address].push(_fixed);\r\n    }\r\n    \r\n    function createBonusAmount(address _address, uint256 _bonusAmount) private {\r\n        \r\n        LockAtribute memory _bonus = LockAtribute({\r\n            startTime: now,\r\n            endTime: now + LOCK_DURATION,\r\n            value: _bonusAmount,\r\n            lockStatus: StatusType.Locked\r\n        });\r\n        \r\n        bonusAmount[_address].push(_bonus);\r\n    }\r\n    \r\n    function createLockedAmount(address _address, uint256 _lockedAmount) public onlyOwner {\r\n        require(_lockedAmount <= totalAmount);\r\n\r\n        if (!whiteList[_address]) addMember(_address);\r\n\r\n        uint256 _fixedAmount = _lockedAmount.mul(FIXED_PERCENT).div(100);\r\n        uint256 _bonusAmount = _lockedAmount.sub(_fixedAmount);\r\n        \r\n        createFixedAmount(_address, _fixedAmount);\r\n        createBonusAmount(_address, _bonusAmount);\r\n        \r\n        totalAmount = totalAmount.sub(_lockedAmount);\r\n        lockedAmount[_address] = lockedAmount[_address].add(_lockedAmount);\r\n        emit CreatedSuccess(_address, _lockedAmount);\r\n    }\r\n    \r\n    function updateStatus(address _address) public {\r\n        for (uint256 i = 0; i < bonusAmount[_address].length; i++) {\r\n            if ((bonusAmount[_address][i].lockStatus == StatusType.Locked) && \r\n                (bonusAmount[_address][i].endTime < now)) {\r\n\r\n                bonusAmount[_address][i].lockStatus = StatusType.Unlocked;\r\n                lockedAmount[_address] = lockedAmount[_address].sub(bonusAmount[_address][i].value);\r\n                unlockedAmount[_address] += bonusAmount[_address][i].value;\r\n            }\r\n            \r\n            if ((fixedAmount[_address][i].lockStatus == StatusType.Locked) && \r\n                (fixedAmount[_address][i].endTime < now)) {\r\n\r\n                fixedAmount[_address][i].lockStatus = StatusType.Unlocked;\r\n                lockedAmount[_address] = lockedAmount[_address].sub(fixedAmount[_address][i].value);\r\n                unlockedAmount[_address] += fixedAmount[_address][i].value;\r\n            }\r\n        }\r\n    }\r\n    \r\n    function removeSpecificBonusAmount(address _address, uint256 _id) private returns(uint256) {\r\n        //if still removeable, remove and add amount into totalAmount    \r\n        if ((bonusAmount[_address][_id].lockStatus == StatusType.Locked) && \r\n            (bonusAmount[_address][_id].startTime + BONUS_REMOVEALBE_DURATION > now)) {\r\n\r\n            uint256 value = bonusAmount[_address][_id].value;\r\n            bonusAmount[_address][_id].lockStatus = StatusType.Removed;\r\n            lockedAmount[_address] = lockedAmount[_address].sub(value);\r\n            return value;\r\n        }\r\n        return 0;\r\n    }\r\n    \r\n    function removeBonusAmount(address _address, bool _isSpecific, uint256 _id) public onlyOwner {\r\n        require(whiteList[_address]);\r\n        uint256 removedAmount = 0;\r\n        updateStatus(_address);\r\n        \r\n        if (_isSpecific) {\r\n            require((0 <= _id) && (_id <  bonusAmount[_address].length));\r\n            removedAmount = removeSpecificBonusAmount(_address, _id);\r\n        } else {\r\n            // remove all bonusAmount => search all bonusAmount sent to this _address\r\n            for (uint256 i = 0; i< bonusAmount[_address].length; i++) {\r\n                removedAmount = removedAmount.add(removeSpecificBonusAmount(_address, i));\r\n            }\r\n        }\r\n\r\n        totalAmount = totalAmount.add(removedAmount);\r\n        emit RemovedSuccess(removedAmount);\r\n    }\r\n    \r\n    //Members Functions\r\n    \r\n    function setUnlockedToWithdrawn() private {\r\n        address _address = msg.sender;\r\n        for (uint256 i = 0; i < bonusAmount[_address].length; i++) {\r\n            //if Unlocked\r\n            if (bonusAmount[_address][i].lockStatus == StatusType.Unlocked) {\r\n                bonusAmount[_address][i].lockStatus = StatusType.Withdrawn;\r\n            }\r\n            \r\n            if (fixedAmount[_address][i].lockStatus == StatusType.Unlocked) {\r\n                fixedAmount[_address][i].lockStatus = StatusType.Withdrawn;\r\n            }\r\n        }\r\n    }\r\n    \r\n    function memberWithdraw() onlyMember public {\r\n        uint256 amount = unlockedAmount[msg.sender]; // Withdraw amount\r\n        require(amount > 0);  \r\n        require(!reEntrancyMutex);\r\n        reEntrancyMutex = true;\r\n        \r\n        withdrawnAmount[msg.sender] = withdrawnAmount[msg.sender].add(amount);\r\n        unlockedAmount[msg.sender] = 0;\r\n        setUnlockedToWithdrawn();\r\n        msg.sender.transfer(amount);\r\n\r\n        reEntrancyMutex = false; \r\n        emit MemberWithdrawSuccess(msg.sender, amount);\r\n    }\r\n    \r\n    //Public Functions\r\n\r\n    function getLockedAmount(address _address) public view returns(uint256) {\r\n        return lockedAmount[_address];\r\n    }\r\n    \r\n    function getUnlockedAmount(address _address) public view returns(uint256) {\r\n        return unlockedAmount[_address];\r\n    }\r\n    \r\n    function getWithdrawnAmount(address _address) public view returns(uint256) {\r\n        return withdrawnAmount[_address];\r\n    }\r\n    \r\n    function getFixedHistory(address _address, uint256 _id) public view returns(uint256, uint256, uint256, uint256, bool){\r\n        require(_id < fixedAmount[_address].length);\r\n        \r\n        uint256  startTime;\r\n        uint256 endTime;\r\n        uint256  value;\r\n        StatusType  lockStatus;\r\n        bool removeable;\r\n        \r\n        startTime = fixedAmount[_address][_id].startTime;\r\n        endTime = fixedAmount[_address][_id].endTime;\r\n        value = fixedAmount[_address][_id].value;\r\n        lockStatus = fixedAmount[_address][_id].lockStatus;\r\n        removeable = false;\r\n        \r\n        return (startTime, endTime, value, uint256(lockStatus), removeable);\r\n    }\r\n    \r\n    function getBonusHistory(address _address, uint256 _id) public view returns(uint256, uint256, uint256, uint256, bool){\r\n        require(_id < bonusAmount[_address].length);\r\n        uint256  startTime;\r\n        uint256 endTime;\r\n        uint256  value;\r\n        StatusType  lockStatus;\r\n        bool removeable = false;\r\n        \r\n        startTime = bonusAmount[_address][_id].startTime;\r\n        endTime = bonusAmount[_address][_id].endTime;\r\n        value = bonusAmount[_address][_id].value;\r\n        lockStatus = bonusAmount[_address][_id].lockStatus;\r\n        if (value > 0)\r\n        removeable = ((lockStatus == StatusType.Locked) && (startTime + BONUS_REMOVEALBE_DURATION > now));\r\n        \r\n        return (startTime, endTime, value, uint256(lockStatus), removeable);\r\n    }\r\n\r\n    function getHistoryLength(address _address) public view returns(uint256){\r\n        return fixedAmount[_address].length;\r\n    }\r\n\r\n    function isOwner() public view returns(bool) {\r\n        return (msg.sender == owner);\r\n    }\r\n    \r\n}",
  "sourcePath": "C:\\Users\\bestb\\Desktop\\Dapps\\nexty\\NextyBonus\\contracts\\NextyBonus.sol",
  "compiler": {
    "name": "solc",
    "version": "0.4.24+commit.e67f0147.Emscripten.clang"
  },
  "schemaVersion": "2.0.1",
  "updatedAt": "2018-08-18T01:20:45.097Z"
}